:020000040800F2
:10000000400A00205D010008650100086701000842
:10001000690100086B0100086D0100080000000084
:100020000000000000000000000000006F01000858
:10003000710100080000000073010008750100084C
:100040007701000877010008770100080000000030
:100050000000000077010008770100087701000820
:100060007701000800000000770100087701000810
:100070007701000800000000151E0008B51E0008EA
:10008000D51E000877010008000000007701000875
:1000900077010008000000000000000000000000E0
:1000A00000000000000000000000000077010008D0
:1000B0007701000877010008650200087701000851
:1000C00000F002F800F03AF80AA090E8000C824430
:1000D0008344AAF10107DA4501D100F02FF8AFF20D
:1000E000090EBAE80F0013F0010F18BFFB1A43F016
:1000F000010318472C6400004C640000103A24BF30
:1001000078C878C1FAD8520724BF30C830C144BF7C
:1001100004680C60704700000023002400250026BE
:10012000103A28BF78C1FBD8520728BF30C148BF5A
:100130000B6070471FB51FBD10B510BD00F031F842
:100140001146FFF7F7FF01F02DFF00F04FF803B461
:10015000FFF7F2FF03BC00F057F8000009488047A2
:1001600009480047FEE7FEE7FEE7FEE7FEE7FEE799
:10017000FEE7FEE7FEE7FEE704480549054A064BB1
:1001800070470000D51D0008C10000084004002091
:10019000400A0020400600204006002070477047BB
:1001A0007047754600F02CF8AE4605006946534688
:1001B00020F00700854618B020B5FFF7DDFFBDE849
:1001C00020404FF000064FF000074FF000084FF0BE
:1001D000000B21F00701AC46ACE8C009ACE8C0094F
:1001E000ACE8C009ACE8C0098D46704710B50446BC
:1001F000AFF300802046BDE81040FFF7A8BF000025
:1002000000487047DC03002001491820ABBEFEE720
:1002100026000200704710B500F01CF801F0FCFC4D
:1002200000F002F810BD00000848006840F0180017
:10023000064908600648806B40F006000449886360
:100240000846806B40F030008863704700800140B2
:1002500000800D404FF0FF300149C8617047000039
:100260000000024001200149087070471000002082
:1002700010B500F021F800F04FF8002211463820A8
:1002800001F0B0F880221146382001F0ABF880224E
:100290008521382001F0A6F800228621382001F0BF
:1002A000A1F80E228821382001F09CF80022A42118
:1002B000382001F097F810BD1548406840F0020062
:1002C000134948600846C06840F00200C86008460C
:1002D000806820F00C0088600846806940F00C00BF
:1002E00088610C48406840F020000A494860084690
:1002F000C06840F02000C8600846806820F4406074
:1003000088600846806940F440608861704700005A
:1003100000800C4000800A4010B51448006820F0AE
:10032000020012490860052001F028FE0F4800680D
:1003300040F002000D4908604FF4AF7001F01EFE5E
:100340000B48006820F0200009490860012001F0F6
:1003500015FE0748006840F020000549086008467F
:10036000406820F02000486010BD000000800C4074
:1003700000800A4010B5154890F8B20390B90121E9
:10038000124880F8B2134FF62071022000F01EFCD4
:1003900000220FA1022000F069FC0121162000F0CC
:1003A000A1F811E00021094880F8B2134DF2DA619A
:1003B000022000F00BFC002206A1022000F056FCF7
:1003C0000021162000F08EF810BD0000180000205B
:1003D000C2CACB00C2DBCACB0000000010B54FF68A
:1003E000207000F011F806480068401E04490860BB
:1003F000084604490268142000F096F810BD000079
:1004000000000020040000203EB5044621460120E3
:1004100000F0DCFB4FF6FF700022CDE900206B23DB
:100420006522BD210290952000F00EFE3EBD000029
:1004300010B5074890F8900348B90548B0F87A031A
:1004400047F26951884202D00846FFF7DDFF10BD30
:100450001800002010B54FF6207000F011F8064883
:100460000068401C044908600846044902681420DA
:1004700000F05AF810BD0000000000200400002029
:100480003EB504462146002000F0A0FB4FF6FF7069
:100490000022CDE90020BD239522AC210290A620A8
:1004A00000F0D2FD4FF6FF700022CDE90020AC2312
:1004B000A622BD210290952000F0C6FD3EBD0000A1
:1004C00010B5074890F8680348B90548B0F85203DA
:1004D00047F26951884202D00846FFF7D1FF10BDAC
:1004E0001800002070B505460C4654B94DF2DA618B
:1004F000284600F04FFE002207A1284600F09AFE91
:1005000009E04FF62071284600F044FE002204A1C5
:10051000284600F08FFE70BDCED5CBC0C62E0000A1
:10052000CDC0C3D0C5C2000070B505460E46144606
:100530003146204600F0F1FD00223146284600F009
:1005400079FE70BD10B5FFF7BBFFFFF771FF10BD5F
:1005500008B54BF6D75001F02AF82848002328A206
:100560004FF4937100905F2001F0D6FA23480023E6
:1005700025A24FF48B710090072001F0CDFA1F489F
:10058000002328A240F205110090272001F0C4FAB0
:1005900029482A4B42F2393264210090132000F09E
:1005A0009AFF164842F2393325A24F21009040208D
:1005B00001F0B2FA114842F2393325A23B210090F2
:1005C000182001F0A9FA2848284B002204210090A5
:1005D000602000F080FF2648264B42F2B0520C21EA
:1005E00000905C2000F077FF0448002322A2042141
:1005F0000090C72001F090FA08BD00004C4F0008A1
:10060000CACAC2CC2D313000CAF0E8EEE3E5EDED08
:10061000FBE920F2E5F0ECEEEAEEEDF2F0EEEBEBCA
:10062000E5F00000E2EEE4EEF0EEE4EDEEE920ECC1
:10063000E8F8E5EDE8000000DA330008922600084B
:100640004A4F494E5420494E53544954555445003D
:10065000464F52204E55434C45415220524553453A
:100660004152434800000000E6340008DE33000831
:100670009E350008EA34000876312E300000000074
:1006800000B58BB000F052FEFE4800F049FE4BF67C
:10069000D75000F08CFF00204FF6FF71CDE900012C
:1006A00040F23F130246EF21029000F0CDFC002003
:1006B000032119224FF6FF73CDE90432CDE906106C
:1006C000F1A000210223CDE9003140F23F134FF4A5
:1006D0008F72CDE90210EF21002000F005FC002010
:1006E0000622CDE9040206900790ECA000214FF607
:1006F000FF72CDE9001240F21D134FF48172CDE973
:1007000002106321002000F0EFFB00200522CDE95C
:10071000040206900790E3A000214FF6AE52CDE907
:10072000001240F20113E622CDE902104F21002011
:1007300000F0DAFB00200522CDE9040206900790C4
:10074000D9A000214FF6FF72CDE90012E523CA229D
:10075000CDE902104F21002000F0C6FB0020052249
:10076000CDE9040206900790D0A000214FF6AE52CA
:10077000CDE90012C923AE22CDE902104F2100209D
:1007800000F0B2FB00200522CDE90402069007909C
:10079000C7A000214FF6FF72CDE90012AD239222CF
:1007A000CDE902104F21002000F09EFB0020052221
:1007B000CDE9040206900790BEA000214FF6AE528C
:1007C000CDE9001291237622CDE902104F210020BD
:1007D00000F08AFB00200522CDE904020690079074
:1007E000B5A000214FF6FF72CDE9001275235A2201
:1007F000CDE902104F21002000F076FB00200522F9
:10080000CDE9040206900790ACA000214FF6AE524D
:10081000CDE9001259233E22CDE902104F210020DC
:1008200000F062FB00200522CDE90402069007904B
:10083000A3A000214FF6FF72CDE900123D23222232
:10084000CDE902104F21002000F04EFB00200522D0
:10085000CDE90402069007909AA000214FF6FF729E
:10086000CDE90012F423DB22CDE902109F2177208D
:1008700000F03AFB00200522CDE904020690079023
:1008800092A000214FF6FF72CDE900124FF4897358
:10089000F922CDE902109F21772000F025FB0020EE
:1008A000052240F26A53CDE905204FF6AE5207907B
:1008B000CDE900020290CDE9030340F20113E622E4
:1008C0006321222000F010FB00200522CDE9040264
:1008D00006904FF6FF720790CDE900020290E523E3
:1008E000CA2263210390222000F0FEFA0020052294
:1008F000CDE9040206904FF6AE520790CDE9000212
:100900000290C923AE2263210390222000F0ECFA6A
:1009100000200522CDE9040206904FF6FF720790F1
:10092000CDE900020290AD239222632103902220A0
:1009300000F0DAFA00200522CDE9040206904FF615
:10094000AE520790CDE900020290912376226321F6
:100950000390222000F0C8FA00200522CDE904020D
:1009600006904FF6FF720790CDE9000202907523C2
:100970005A2263210390222000F0B6FA00200522BB
:10098000CDE9040206904FF6AE520790CDE9000281
:10099000029059233E2263210390222000F0A4FA02
:1009A00000200522CDE9040206904FF6FF72079061
:1009B000CDE9000202903D232222632103901046DC
:1009C00000F092FA00200522CDE90402069007907B
:1009D00040A000214FF6FF72CDE90012CDE90210D0
:1009E0003D48B0F894010A3080B2F423DB22D621CE
:1009F0000A9000F079FA0020052240F26A53CDE90E
:100A000005200493079035A000214FF6FF72CDE931
:100A10000012CDE902103048B0F8B801401D80B294
:100A20004FF48973F922D6210A9000F05DFA002074
:100A300002210A22CDE90402CDE9061028A00021F6
:100A40004DF2DA620223CDE90032CDE90210212312
:100A50000A466321002000F047FA2348642100225F
:100A60000692CDE907210292039204920592099021
:100A700047F269500121C2239022CDE90010DB2109
:100A8000772033E045050008CAF0E8EECAEEEDF243
:100A9000F0EEEBEBE5F020CD00000000C4E0F2F753
:100AA000E8EAE800D2310000D2320000D233000080
:100AB000D2340000D2350000D2360000D237000018
:100AC000D2380000D220F3F1F23A0000D220E8E759
:100AD000EC3A0000300000001800002031323300F2
:100AE000CED5CBC0C62E00005504000800F034F966
:100AF0002F48642100220692CDE907210292039239
:100B000004920592099047F26950012181234F22F6
:100B1000CDE90010DB21772000F01EF92548642183
:100B200000220A23CDE90632CDE90810142011462F
:100B300021A20023CDE90232CDE904104DF2DA60A2
:100B4000012131230022CDE90010DB21772000F0C4
:100B500003F92E201A491B4ACDE9002102901A48B8
:100B6000808D4FF6FF7332224FF48E710A9000F0A1
:100B7000A7FE47F26950FFF783FC47F26950FFF781
:100B800043FC0020022140F21F130246CDE9001071
:100B9000632100F093FA0020022140F23F13024645
:100BA000CDE90010EF2100F089FA0BB000BD000084
:100BB000DD03000875030008C2DBCACB000000009B
:100BC00018210008E21F000818000020FEB50446A6
:100BD0000D4604EB8401244800EBC100458104EB81
:100BE0008401214800EBC100818904EB84021E4886
:100BF00000EBC200428904EB84031B4800EBC300F6
:100C0000008904EB8407184E06EBC706CDE90121E5
:100C10000090F38804EB8407134E06EBC706B288F6
:100C200004EB8407104E06EBC706718804EB8407BB
:100C30000D4E36F8370000F007FA04EB8401304619
:100C400000EBC100006970B104EB8403304600EB97
:100C5000C300828A04EB8403304600EBC3000169C1
:100C6000204600F003F8FEBD600300202DE9FE439E
:100C700004460D46164604EB8401364800EBC100DD
:100C80000561002104EB8402324800EBC200408978
:100C9000CDE9001004EB840C2E4F07EBCC0702913A
:100CA000B7F804C004EB84082A4F07EBC8073F8B52
:100CB00067441837BBB204EB840C264F07EBCC0714
:100CC000B7F804C004EB8408224F07EBC8073F8B3A
:100CD0006744BAB204EB840C1E4F37F83CC004EBF7
:100CE000840807EBC807FF8A6744B8B204EB840C9A
:100CF000184F07EBCC07F98B00F0A6F93DB304EBD6
:100D00008407144B03EBC7039F8804EB840C114B3F
:100D100003EBCC031B8BF91804EB84070D4B33F862
:100D2000377004EB840C03EBCC03DB8AF81804EB7C
:100D30008407084B03EBC7031A69334600F0ACFE87
:100D4000014604EB8402034800EBC200C183BDE806
:100D5000FE830000600300202DE9FE4F04460F468D
:100D600015469846DDF848B0DDE90C9A0F9E5C48C0
:100D7000407A00EB80015B4820F831405848407AC7
:100D800000EB8001574800EBC10047805448407A8F
:100D900000EB8001534800EBC10085805048407A49
:100DA00000EB80014F4800EBC100A0F806804C48E2
:100DB000407A00EB80014B4800EBC100A0F808909E
:100DC0004748407A00EB8001464800EBC100A0F89C
:100DD0000AA04348407A00EB8002424800EBC20080
:100DE0000E9981813E48407A00EB80013D4800EB3E
:100DF000C10006613A48407A00EB8002394800EBB6
:100E0000C200109981823648407A00EB8002354852
:100E100000EBC2001199C1823148407A00EB800199
:100E2000304800EBC100A0F818B02D48407A00EB24
:100E300080022C4800EBC200139981762848407A42
:100E400000EB8002274800EBC20014998183002147
:100E50002348407A00EB8002224800EBC20080F871
:100E600020101F48407A00EB80021E4800EBC200B1
:100E700041841B48407A00EB80021A4800EBC20014
:100E8000159941620E9843462A463946CDE9009AA3
:100E90000290204600F0D8F88EB105EB0B01119AB4
:100EA000A0183246109B00F0F7FD01460C48407A2E
:100EB00000EB80020B4800EBC200C18308E0002178
:100EC0000748407A00EB8002064800EBC200C1836D
:100ED0000348407A401CC1B201484172BDE8FE8F10
:100EE00018000020600300202DE9FE4F04460F4645
:100EF00015469846DDF848B0DDE90C9A0F9E51483A
:100F0000007A00EBC0014F480C3020F821400C382B
:100F1000007A00EBC0014B480C3000EB81004780A9
:100F20004848007A00EBC00146480C3000EB8100D5
:100F300085804448007A00EBC00142480C3000EB49
:100F40008100A0F806803F48007A00EBC0013D48D0
:100F50000C3000EB8100A0F808903A48007A00EBD2
:100F6000C00138480C3000EB8100A0F80AA03548D9
:100F7000007A00EBC00233480C3000EB82000E997F
:100F800081813048007A00EBC0012E480C3000EB24
:100F9000810006612B48007A00EBC00229480C3022
:100FA00000EB8200109981822648007A00EBC00293
:100FB00024480C3000EB82001199C1822148007A4C
:100FC00000EBC0011F480C3000EB8100A0F818B006
:100FD0001C48007A00EBC0021A480C3000EB82007B
:100FE0001399C1610E9843462A463946CDE9009AC5
:100FF0000290204600F028F896B105EB0B01119AFB
:10100000A0183246109B00F047FD01460D48007ABB
:1010100000EBC0020B480C3000EB8200018409E0B9
:1010200000210848007A00EBC00206480C3000EBB3
:10103000820001840348007A401C02490872BDE81E
:10104000FE8F0000180000202DE9F84F06460F46DD
:1010500090469946DDE90BA50A9C4B464246394627
:101060003046CDF800A000F0F3F9002C24DD601E1E
:10107000304481B24B4642463046009500F0E8F9D4
:10108000601EA9EB000082B24B46394630460095FF
:1010900000F0DEF9611E791A88B24B4642463946A5
:1010A000009500F0D5F9601E404483B242463946AF
:1010B0003046009500F0CCF9BDE8F88F2DE9F843F3
:1010C00006460F4690469946DDE90845601E3044C5
:1010D00081B24B4642463046009500F0B9F9601E99
:1010E000A9EB000082B24B4639463046009500F02D
:1010F000AFF9611E791A88B24B46424639460095CF
:1011000000F0A6F9601E404483B24246394630469C
:10111000009500F09DF9BDE8F883F0B500220024A9
:1011200028B930230B70491C00230B70F0BD002838
:1011300002DA2D230B70491C10E00A2390FBF3F513
:1011400003FB150330330B700A2390FBF3F313B149
:10115000491C531CDAB20A2390FBF3F00028ECD1AF
:10116000891A002309E0CC5C8D18ED1A2D78CD5436
:101170008D18ED1A2C705D1CEBB202EBD2760127B4
:1011800007EB66069E42EEDC00238D186B7000BFF5
:10119000CCE70000FEB504460D4604EBC40124482C
:1011A00000EB8100458104EBC401214800EB810084
:1011B000818904EBC4021E4800EB8200428904EBE3
:1011C000C4031B4800EB8300008904EBC407184EDE
:1011D00006EB8706CDE901210090F38804EBC407F4
:1011E000134E06EB8706B28804EBC407104E06EBDD
:1011F0008706718804EBC4070D4E36F82700FFF709
:1012000023FF04EBC401304600EB8100006970B19C
:1012100004EBC403304600EB8300828A04EBC40372
:10122000304600EB83000169204600F003F8FEBD64
:10123000240000202DE9FE4304460D46164604EB2B
:10124000C401364800EB81000561002104EBC402B3
:10125000324800EB82004089CDE9001004EBC40C59
:101260002E4F07EB8C070291B7F804C004EBC408BB
:101270002A4F07EB88073F8B67441837BBB204EB54
:10128000C40C264F07EB8C07B7F804C004EBC40866
:10129000224F07EB88073F8B6744BAB204EBC40CBC
:1012A0001E4F37F82CC004EBC40807EB8807FF8AF1
:1012B0006744B8B204EBC40C184F07EB8C07398CA9
:1012C000FFF7C2FE3DB304EBC407144B03EB8703E7
:1012D0009F8804EBC40C114B03EB8C031B8BF91898
:1012E00004EBC4070D4B33F8277004EBC40C03EB7D
:1012F0008C03DB8AF81804EBC407084B03EB870365
:101300001A69334600F0C8FB014604EBC4020348E7
:1013100000EB82000184BDE8FE8300002400002071
:101320000149C1F8C003704718000020002003499C
:101330000872002101484172817270471800002034
:1013400000B500F00DF800F041F89F200349086057
:10135000002048608020886000BD0000000005403B
:101360001948406820F00300174948600846806823
:1013700020F00F0088600846806840F00A0088600E
:101380000846C06840F00300C8600846006920F0C5
:10139000030008610846006920F4403008610846EF
:1013A000406920F0030048610846406920F440305D
:1013B00048610846806940F00F0088610846C069AE
:1013C00000F00300C861704700800B400020044912
:1013D000086048608860C86008614861886170473B
:1013E0000000054010B500BF184B1B6903F0400317
:1013F000002BF9D19023154CA361430063611023A6
:10140000A36100BF114B1B6903F00203002BF9D14C
:101410000E4B596110230D4CA36100BF0B4B1B6990
:1014200003F00203002BF9D1084B5A611023074C3B
:10143000A36100BF054B1B6903F00203002BF9D128
:101440004023024CA3610023A36110BD00000540AE
:101450002DE9FC5F06460F4614469846DDF83090AD
:10146000019440F23F10A0EB080084B240F23F111B
:101470000198081A1FFA80F800254FF0000A00961C
:10148000A34600BF21E00BEB0500401C83B20BEB31
:10149000050081B23A46009800F098FB2C2000F03D
:1014A0005DFB4FF0000A0BE04FEA292000F072FBD1
:1014B00009F0FF0000F06EFB0AF101001FFA80FA4C
:1014C000B81B5045F0DA681C85B2A8EB0400A842AE
:1014D000D9DABDE8FC9F2DE9FF4F81B00746894668
:1014E0009A460E9C4FF0000B002000906088C117B8
:1014F00000EB5171C910A0EBC10141B16088C11767
:1015000000EB5171C910491CC9B2009106E0608816
:10151000C11700EB5171C1F3C70100914FF00008F2
:1015200027E04FF0000B009D1CE0002612E0208811
:101530000BFB00801AF800000121B140084038B1CF
:1015400009EBC502921B91B2B8B2039A00F017F8EA
:10155000701CC6B2082EEADB0BF1010000F0FF0B95
:10156000681EC5B2002DE0DC7F1C08F1010000F010
:10157000FF0820884045D4DC05B0BDE8F08F70B589
:1015800006460C46154640F23F10001B84B2234627
:1015900032462146304600F019FB2C2000F0DEFADE
:1015A000281200F0F7FAE8B200F0F4FA70BD2DE965
:1015B000F04104462612E7B240F23F13EF22002129
:1015C000084600F003FB2C2000F0C8FA002506E0D6
:1015D000B0B200F0DFFAB8B200F0DCFA6D1CB5F57D
:1015E000963FF5D3BDE8F08110B500F039F9994880
:1015F000006840F00800974908609748006840F08C
:10160000800095490860012000F0A8FA642000F0ED
:10161000B5FCCB2000F0A2FA392000F0BBFA2C2058
:1016200000F0B8FA002000F0B5FA342000F0B2FA69
:10163000022000F0AFFACF2000F090FA002000F076
:10164000A9FAC12000F0A6FA302000F0A3FAE820A1
:1016500000F084FA852000F09DFA002000F09AFA4C
:10166000782000F097FAEA2000F078FA002000F0E5
:1016700091FA002000F08EFAED2000F06FFA64205D
:1016800000F088FA032000F085FA122000F082FAB8
:10169000812000F07FFAF72000F060FA202000F0AF
:1016A00079FAC02000F05AFA232000F073FAC12022
:1016B00000F054FA102000F06DFAC52000F04EFA48
:1016C0003E2000F067FA282000F064FAC72000F0FE
:1016D00045FA862000F05EFA362000F03FFA4820F6
:1016E00000F058FA3A2000F039FA552000F052FA8A
:1016F000B12000F033FA002000F04CFA182000F07E
:1017000049FAB62000F02AFA082000F043FA8220B5
:1017100000F040FA272000F03DFAF22000F01EFA17
:10172000002000F037FA2A2000F018FA002000F01C
:1017300031FA002000F02EFA002000F02BFAEF2002
:1017400000F028FA2B2000F009FA002000F022FA1D
:10175000002000F01FFA012000F01CFA3F2000F0EA
:1017600019FA262000F0FAF9012000F013FAE0201F
:1017700000F0F4F90F2000F00DFA312000F00AFA21
:101780002B2000F007FA0C2000F004FA0E2000F0E5
:1017900001FA082000F0FEF94E2000F0FBF9F120DC
:1017A00000F0F8F9372000F0F5F9072000F0F2F921
:1017B000102000F0EFF9032000F0ECF90E2000F00B
:1017C000E9F9092000F0E6F9002000F0E3F9E12052
:1017D00000F0C4F9002000F0DDF90E2000F0DAF985
:1017E000142000F0D7F9032000F0D4F9112000F004
:1017F000D1F9072000F0CEF9312000F0CBF9C1205B
:1018000000F0C8F9482000F0C5F9082000F0C2F93E
:101810000F2000F0BFF90C2000F0BCF9312000F0DF
:10182000B9F9362000F0B6F90F2000F0B3F9112015
:1018300000F094F9642000F0A1FB292000F08EF95B
:101840002C2000F08BF90548006840F08000034927
:10185000086010BD00000C4000800C4000800A4071
:101860001548406840F0C000134948600846C06809
:1018700040F0C000C8600846806820F4704088606E
:101880000846806940F4704088610C48406840F028
:1018900080000A4948600846C06840F08000C8607F
:1018A0000846806820F4404088600846806940F41B
:1018B000404088617047000000800A4000800C4072
:1018C0002DE9FF4F81B005468B461446DDE90F67D1
:1018D00000200090824643E000200090E01B00EBD7
:1018E000400006EB400090F8028031E04FF0000924
:1018F00023E0E01B00EB400006EB4000808800EB9B
:101900000A01E01B00EB400036F81020009800FBB5
:1019100002110E98405C012101FA09F1084040B122
:101920000BEBC802A2EB090291B2A8B2049AFFF72E
:1019300026FE09F1010000F0FF09B9F1080FD8DB1C
:101940000098401CC0B20090A8F1010000F0FF0810
:10195000B8F1000FCADC6D1C0AF1010000F0FF0AAB
:10196000E01B00EB400036F810005045B4DCA8B294
:1019700005B0BDE8F08F2DE9FF4F85B0074615464D
:10198000129C0020049003900290824601902088CF
:10199000A8427EDC6088A8427BDB002676E0A06857
:1019A00030F83600A8426FDCA06800EBC600408823
:1019B000A84269DBA06830F836A0A06800EBC6003A
:1019C0004068A5EB0A0101EB410130F811000390DA
:1019D000A06800EBC6004068A5EB0A0101EB4101DD
:1019E00000EB4100408802904FF0000B43E00020E4
:1019F0000490029800F0FF0835E0A06800EBC600F4
:101A00004068A5EB0A0101EB410100EB4100808831
:101A100000EB0B02DDE9031000FB01202169085CEB
:101A200001904FF0000913E0012000FA09F001993C
:101A3000084048B1069A02EBC802A2EB090291B233
:101A4000B8B2089AFFF79BFD09F1010000F0FF0909
:101A5000B9F1080FE8DB0498401CC0B20490A8F16B
:101A6000010000F0FF08B8F1000FC6DC7F1C0BF18D
:101A7000010000F0FF0B03988345B8DBB8B209B052
:101A8000BDE8F08F05E0FFE7701C86B2A089B04288
:101A900085DCB8B2F3E700002DE9FE4306460F46A9
:101AA00015469846002428E015F8014B202C00D15B
:101AB000B61D2E2C0EDB3B2C0CDC2E201249134ABB
:101AC0004346CDE900210290224639463046FFF7D1
:101AD000F7FE0646C02C0CDBC0200D490D4A4346DC
:101AE000CDE900210290224639463046FFF7E8FE54
:101AF000064615B1202C00D0761C28780028D3D1BA
:101B0000B0B2BDE8FE83000096500008604F0008A8
:101B1000BA540008E45000082DE9F84305460F4682
:101B200014469846DDF82090002611E014F8016B69
:101B3000202E00D1AD1D4346324639462846CDF809
:101B40000090FFF718FF054614B1202E00D06D1C41
:101B500020780028EAD1A8B2BDE8F88310B5044681
:101B60000A48006820F040000849086008480068FA
:101B700020F0080006490860204600F0CFF804482D
:101B8000006840F008000249086010BD00800A406B
:101B900000000C4010B504460A48006840F04000C0
:101BA000084908600848006820F0080006490860F5
:101BB000204600F0B3F80448006840F008000249ED
:101BC000086010BD00800A4000000C402DE9F04183
:101BD00004460D4616461F462A20FFF7BFFF201277
:101BE000FFF7D8FFE0B2FFF7D5FF3012FFF7D2FFC3
:101BF000F0B2FFF7CFFF2B20FFF7B0FF2812FFF75F
:101C0000C9FFE8B2FFF7C6FF3812FFF7C3FFF8B20B
:101C1000FFF7C0FFBDE8F08110B500BF1948C06BE9
:101C200000F400000028F9D01748C0681649C860C1
:101C30000846806840F00100886000BF12480068D4
:101C400000F004000028F9D00F48C06840F00200FE
:101C50000D49C8600846406840F2047108430A49CB
:101C6000486000BF0848006800F002000028F9D072
:101C70000548C06840F482700349C86000F062F80B
:101C800010BD000000800D400000024000B500F0D3
:101C900013F80748C06A40F000700549C86200F0B8
:101CA00033F807200349086002204860086100BD3E
:101CB0000000024000000A401248406820F0040082
:101CC000104948600846406840F06800486008468F
:101CD000C06840F06C00C8600846806843F6F04178
:101CE0008843084988600846806842F62001084316
:101CF000044988600846806943F6F0410843014979
:101D00008861704700000C4000200349086048606B
:101D1000086148614862704700000A4008498860CD
:101D200000BF0749C96801F010010029F9D100BFBF
:101D30000349C96801F001010029F9D0704700008A
:101D400000000A4030B5204CE46804F00204022C84
:101D500001D11E4800E01D481B4CE46804F001045A
:101D600004B140080146184CE46804F00404042C53
:101D700005D1154C6468C4F30324631C5943124C09
:101D8000E468C4F3012424B1012C06D0022C13D141
:101D90000DE00E4C0E4D2C6013E00B4CE468C4F3C8
:101DA0000314641CB1FBF4F2094C226009E04FF407
:101DB0000044074D2C6004E049F64044044D2C607B
:101DC00000BF00BF30BD00000000024000127A00DA
:101DD0001400002000B50D480D49C8610846C068D0
:101DE0000020C860084640680020486008468068B7
:101DF00000208860084600690020086108464069A4
:101E000000204861FFF79EFF00BD000010000008A1
:101E10000000024010B5002020E000EB80021449D1
:101E200001EBC201498C00290EDD00EB8002104954
:101E300001EBC201498C491E8AB200EB80030C49B8
:101E400001EBC3014A8407E0002200EB800308494C
:101E500001EBC30181F82020411CC8B20328DCDB60
:101E600000200449086048650E2000F067F810BDA6
:101E7000600300200000074010B50B48406A0B4982
:101E800008430949486201200949C86049F63F40B2
:101E900048600120886000200860022088650E20CC
:101EA00000F05AF862B610BD0000024001000001C7
:101EB0000000074010B501200449087000200449C3
:101EC000086048650F2000F039F810BD10000020B0
:101ED0000080074010B50848006820B10648006837
:101EE000401E05490860002004490860486510202C
:101EF00000F024F810BD00000C0000200000084095
:101F000010B50B48406A0B49084309494862002054
:101F10000949C860272048600120886000200860C7
:101F200002208865102000F017F862B610BD00008E
:101F3000000002400000010400000840002807DB08
:101F400000F01F0201219140024A430942F8231088
:101F50007047000080E200E000280DDB00BF00BFFA
:101F600000F01F02012191404209920002F1E0229B
:101F7000C2F8001100BF00BF704700000121074AEE
:101F8000D1604FF47A714143054A116000BF0449A2
:101F900009680029FBD1014AD16070470000084060
:101FA0000C000020FEF737F9FFF7AAFFFFF76EFEDF
:101FB000FFF7C6F9FFF718FBFEF75AF94BF6D750B3
:101FC000FFF7F5FAFFF758FFFEF7C2FA41F2883043
:101FD000FFF7D4FFFEF754FB02E00A20FFF7CEFF25
:101FE000FBE7000000008080808007070707F8FEFD
:101FF000FFFF0707FFFEFEF8FFFFFFFF0000FFFFE8
:10200000FFFF0003070707070707030118181CFC59
:10201000FEFFFF000000FFFFFFFF000000070707B3
:10202000077C7E7F0787FFFFFEFC00C0F0FEFF3FBE
:102030000F03000707070707070707073C3E3FBFD7
:102040008787FFFFFE7CF8F8F8FB0303FFFFFEFE27
:10205000010307070707070703010000E0FCFF1F54
:10206000FFFFFFFF00F8FFFFF7F0F0FFFFFFFFF0BB
:102070000000000000000707070700FFFFFFFFC781
:10208000E7E7E7C787F3F3F3F30000FFFFFFFF0184
:10209000030707070707070301F8FEFFFF87C7DFEE
:1020A000DF9E1CFFFFFFFF0101FFFFFFFF00030793
:1020B0000707070707030107070707FFFFFF3F00A1
:1020C00000F0FFFFFF070000060707070000007C85
:1020D000FEFFFF8787FFFFFE7CFCFEFFFF0303FF81
:1020E000FFFEFC01030707070707070301FCFEFFCC
:1020F000FF0707FFFFFEFCC7CFDFDF1C0CFFFFFF62
:10210000FF0103070707070703030080808080871C
:102110008787870707070700040003000000000007
:10212000000000000A0003000C00070003002A0062
:10213000090003003F000A0003005A000B000300DF
:1021400078000A00030099000A000300B7000800A5
:102150000300D5000A000300ED000A0003000B0194
:1021600004000300290100C0FFFFFF07FFFFFFC0BD
:102170000080FFFFFFE3E0E3FFFFFF8007070707A3
:1021800000000007070707FFFFFFFFC7C7FFFF7E2D
:102190007CFFFFFFFF0303FFFFFFFE0707070707A3
:1021A0000707070701FFFFFFFF0F0F0F0FFFFFFFDD
:1021B000FF00000000070707070000000000000004
:1021C000FFFFFFFF0F0F0FFFFFFFFF0080E0FFFF8C
:1021D000FFBF83808080FFFFFFFF803F3F3F3F07BF
:1021E0000707070707073F3F3F3FFFFFFFFF8F8FAF
:1021F0008F00FFFFFFFF8787878007070707070715
:10220000070701FFFFFFFF0000FFFFFFFF0000FFC8
:10221000FFFFFF0100F8FDFDFF0707FFFFFFFF07BE
:1022200007FFFDFDF8000407070707000007070781
:102230000700000707070704FFFFFFFF0000FEFF7E
:10224000FFFF01FFFFFFFF0707FFFDFDF800070786
:1022500007070000030707070400FFFFFFFF0F0F3A
:102260000FFFFFFFFF00FFFFFFFF000000FFFFFF6A
:10227000FF070707070100000007070707FFFFFF29
:10228000FF8080FFFFFFFFFFFFFFFF0707FFFFFF4C
:10229000FF07070707000007070707F8FEFEFF070D
:1022A00007FFFEFEF8FFFFFFFF0000FFFFFFFF003C
:1022B000030307070707030300FFFFFFFF0707FFED
:1022C000FFFEFCFFFFFFFF070707070303070707E2
:1022D000070000000000000F0F0FFFFFFFFF0F0FB0
:1022E0000F000000FFFFFFFF0000000000000707D5
:1022F0000707000000073FFFFFF8C0F8FFFF3F0798
:1023000080F0FFFF7F077FFFFFF0800707070700D0
:10231000000007070707FFFFFFFF80808080800025
:10232000000000FFFFFFFFFFFFFFFF030303FFFFAE
:10233000FFFE0000FFFFFFFF07070707070707076C
:10234000070703000007070707E0F0F8383838F8F8
:10235000F8F0E0F1F9FD0C0E06FFFFFFFF030707A1
:1023600007070307070707E0F0F8F83838F8F0F038
:10237000C0FFFFFFFF0707F7F7F7F70103030707A2
:102380000707070300E0F0F8F83838F8F8F0E0E164
:10239000E1E1E10C0CFFFFFFF3010307070707076B
:1023A000070301F8F8F8F80000F0F8F8F8F8FFFF74
:1023B000FFFFF03F03FFFFFFFF07070707030000D2
:1023C00007070707F8F8F8F80000F8F8F8F808FF2A
:1023D000FFFFFF0E0EFFFBFBF100070707070000E2
:1023E00003070707040000F8F8F8F83838F8F8F899
:1023F000F80000FFFFFFFF0000FFFFFFFF070707D8
:10240000070703000007070707F8F8F8F8F8F000D7
:1024100000F8F8F8F8F8F8FFFFFFFF07FFFCFCFFF3
:1024200007FFFFFFFF070707070001070701000776
:10243000070707F8F8F8F8000000F8F8F8F8FFFFC9
:10244000FFFF1E1E1EFFFFFFFF070707070000001C
:1024500007070707C0F0F8F83838F8F0F0E0FFFF9A
:10246000FFFF0000FFFFFFFF010307070707070744
:102470000300F8F8F8F83038F8F8F8F0FFFFFFFF3D
:102480000000FFFFFFFF1F1F1F1F030707070703B2
:10249000E0F0F8F8383838F0F0E0FFFFFFFF000018
:1024A00000F1F1F1000307070707070303003838BD
:1024B00038F8F8F8F8383838000000FFFFFFFF0060
:1024C00000000000000707070700000018F8F8F8F0
:1024D000000000F8F8F81800033FFFFF80FFFFFF3F
:1024E0001F00001C1C1F1F1F1F0F070000F8F8F81B
:1024F000F80000F8F8F8F83F7F7F7F7030FFFFFFAB
:10250000FF00000000000007070707F8F8F8F800D0
:1025100000F8F8F8F80000F8F8F8F8FFFFFFFF00FF
:1025200000FFFFFFFF0000FFFFFFFF070707070790
:102530000707070707070707070707000B00030040
:1025400000000000000000000A0003002100080055
:1025500003003F000F000300570008000300840041
:10256000120003009C0000000000000000000000BA
:1025700000000000000000000B000300D2000C006F
:102580000300F3000000000000000A000300170130
:102590000A00030035010000000000000A000300EB
:1025A00053010000000000000A0003007101000058
:1025B000000000000000000000000B0003008F017D
:1025C000000000000000000000000000000000000B
:1025D00000000000000000000000000000001100EA
:1025E0000300B00100000000000000000000000037
:1025F0000000000000000000000000000A000300CE
:10260000E3010000000000000000000000000000E6
:10261000000000000000000000000A0003000102AA
:102620000000000000000A0003001F020B0003006E
:102630003D020000000000000B0003005E020C00E1
:1026400003007F020E000300A3020B000300CD0273
:102650000A000300EE020000000000000A00030070
:102660000C030A0003002A030A00030048030B00BE
:1026700003006603000000000000000000000000EE
:102680000000000000000A000300870310000300A0
:10269000A503000000000000000000000000000092
:1026A000000000000000000000000000000000002A
:1026B000000000000000000000000000000000001A
:1026C0000000000000000000000000000080E0F0BA
:1026D000F8F8FC7E3E3E3E1F1F1F1F1F1F1E1E1EC2
:1026E0003E3C3C7878F0F0E0E0C0808000000000E4
:1026F00000000000000000000000000000000000DA
:1027000000000000000000000000000000000000C9
:1027100000000000000000000000000000000000B9
:1027200000000000000000000000000000000000A9
:102730000000000000000000000000000000000099
:102740000000000000000000000000000000000089
:102750000000000000000000000000000000000079
:102760000000000000000000000000000000000069
:102770000000000000000000000000000000000059
:102780000000000000000000000000000000000049
:10279000000000F8FEFF3F070301000000000000FA
:1027A0000000000000000000000000000000000128
:1027B000010307070F1E3C7878F0E0C0800000009E
:1027C0000000000000000000000000000000000009
:1027D00000000000000000000000000000000000F9
:1027E00000000000000000000000000000000000E9
:1027F00000000000000000000000000000000000D9
:1028000000000000000000000000000000000000C8
:1028100000000000000000000000000000000000B8
:1028200000000000000000000000000000000000A8
:102830000000000000000000000000000000000098
:102840000000000000000000000000000000000088
:1028500000000000000000000000FEFFFFFF00007D
:102860000000000000000000000000000000000068
:102870000000000000000000000000000000000058
:1028800000000103070F1E3C70E0C0800000000044
:102890000000000000000000000000000000000038
:1028A0000000000000000000000000000000000028
:1028B0000000000000000000000000000000000018
:1028C0000000000000000000000000000000000008
:1028D00000000000000000000000000000000000F8
:1028E00000000000000000000000000000000000E8
:1028F00000000000000000000000000000000000D8
:1029000000000000000000000000000000000000C7
:1029100000000000000000000000000000000000B7
:10292000000000FFFFFF00000000000000000000AA
:102930000000000000000000000000000000000097
:102940000000000000000000000000000000000087
:10295000000103070F1E78F0E08000000000000077
:102960000000000000000000000000000000000067
:102970000000000000000000000000000000000057
:10298000008080808080808080C0C0C0C0C0C0C007
:10299000C0C08080808080800000000000000000B7
:1029A0000000000000000000000000000000000027
:1029B0000000000000000000000000000000000017
:1029C00000008080C0C0C0E0E0E0E0E0E0E0E0E0E7
:1029D000E0F0F0F0F0F0E0E0E0E0E0E0E0E0E0E0A7
:1029E000E0E0E0C0C0C0C0C0C0C080809FFFFEC0AB
:1029F00000000000000000000000000000000000D7
:102A000000000000000000000000000000000000C6
:102A10000000000000E0E0000000000000000000F6
:102A200001070F1E78F0C0800000808080C0C0C009
:102A3000E0E0E0F0F07070787838383C3C1C1E1E06
:102A40001E1E0E0F0F0F0F0F0707070707070707B9
:102A500003030303030303030307070707070F0F1A
:102A60000F1F3F3EFEFCFCF8F0E08000000000007D
:102A70000000000000000000000000000000000056
:102A800000000000E0F8FCFEFF7F3F1F1F0F0F0754
:102A9000070703030303030303010101010101010C
:102AA000010101010101010101010103030303030C
:102AB0000303030303071FFFFFC707070E0E0E0ED6
:102AC0000E1C1C1C1C18383838303070606060E0F8
:102AD000C0C0C080808080008080C0C0FEFFFFFE3C
:102AE000C0E0E0E070703038381C1C1C0E0E0F0780
:102AF0001F3FF7E383030101010100000000000014
:102B000000000000000000000000000000000000C5
:102B100000000000000000000000000000000000B5
:102B20000000000000000000000000000003FFFFA4
:102B3000FFFFFF7E0000000000000000000000001A
:102B40000000000000000000000000001F7FFFFFE9
:102B500083000000000000000000000000000000F2
:102B60000000000000000000000000000000000065
:102B70000000000000000000000000000000000055
:102B8000073FFCE000000000000000000000000023
:102B900000808080C0C06060F0F0F0F97D3FDF7F92
:102BA0001FCFF73F0FFFFF0F3FF78F3F7FDF3E7CC9
:102BB000F8F0E0808080000000000001071F3CF872
:102BC000E0800000000000000000000000000000A5
:102BD00000000000000000000000000000000000F5
:102BE00000000000000000000000000000000000E5
:102BF00000000080E0FCFF7F3F0F030000000000AA
:102C000000000000000000000000000000000000C4
:102C100000000000000003071F3CF0C0800000001F
:102C200000000000000000000000000000000000A4
:102C30000000000000000000000000000000000094
:102C40000000000000000000008081CFFFF8E030AD
:102C50003018180C0C0606070303010100C0F8FF2A
:102C6000FF3F07E1FC0F0100FCFF010000FFFF0038
:102C70000003FFF800011FFCC1077FFFFFF981037C
:102C8000020206040C08081813373E7CF0C0C0800E
:102C900080000000000000000000000000000000B4
:102CA0000000000000000000000000000000000024
:102CB000000000000080C0F0783C1F0F07030100F7
:102CC0000000000000000000000000000000000004
:102CD00000000000000000000000000000000000F4
:102CE0000000000103070C183060C08000000000E5
:102CF00000000000000000000000000000000000D4
:102D000000008080C0C060603090988C8C86C6C304
:102D1000C3C1C14060616FFFF860202020203030C7
:102D200030F8FCFC3C3FFFFF1F1E1EFF1F1E1EFE57
:102D3000FF1E1EFEFE0F0FFEFE1E1FFFFE1E1EFFCD
:102D4000FF1E1E1FFF3F3FFCFCFCF83030302020F0
:102D5000202060E0E1677F7C79E1C3C3C6C6848C34
:102D600088989030206060C0C08080000000000023
:102D70000000000080C0E06030381C0E0703010036
:102D80000000000000000000000000000000000043
:102D90000000000000000000000000000000000033
:102DA0000000000000000000000000000000000023
:102DB000000000010306CCD858F0E02030F0F010FD
:102DC00018F8F8888C8CCCFEFEC7E7E3E3E3FFF14C
:102DD000F1F1F1F171787F7F7878383C3C3C3C3FF1
:102DE0003F3C1C1E1E1E1E1E1E1F1F1F1E0E0F0FF1
:102DF0000E0F0F0F0F0F0F0F0F0F0F0F0F0F0F0FE4
:102E00000F0F0F0F0F0F0F0F0F0F0F0E0F0E0E1FC5
:102E10001F1F1F1E1E1E1E1E1E3C3C3F3F3C3C3CF7
:102E20003C3878787F7F7871F1F1F1F1F3FFE3E2DC
:102E3000E2C7C7FFFFCE8E8C8CFE1E1B11F1F03057
:102E400060E0E040C0C000000000000000000000A2
:102E50000000000000000000000000000000000072
:102E60000000000000000000000000000000000062
:102E70000000000000000000000080C06020FFFF94
:102E8000FCFF3F1E1E9F0F0F0FC7C7070707E3E397
:102E9000E3030101F1F1F1000000F8F8F80000008F
:102EA000FCFCFC000000FCFEFEFE000000FEFEFE3E
:102EB000FE000000FFFFFFFFFF0000FFFFFFFFFF1E
:102EC000000000FFFFFFFFFFFF000000FFFFFFFF0C
:102ED000000000FFFFFFFFFF000000FEFEFEFE00FF
:102EE0000000FEFEFEFC0000FCFCFCFC000000F804
:102EF000F8F8000000F1F1F1010103E3E3E3070753
:102F000007C7CF0F0F0F9F1E1E3FFFFCFFFF183894
:102F10003070E0C0C0800000000000000000000031
:102F200000000000000000000000000000000000A1
:102F3000000000000000000080C0603018080C068F
:102F4000030101000000FFFFFFFF00FFFFFF000083
:102F500000FFFF000000FFFFFF000000FFFFFF0079
:102F60000000FFFFFF008080FFFFFF808080FFFFE9
:102F7000FFFFC0C0C0FFFFFFFFC0C0C0FFFFFFFFDB
:102F8000FFC0C0FFFFFFFFFFC0C0C0FFFFFFFFFF8C
:102F9000FFC0C0C0FFFFFFFFC0C0C0FFFFFFFFFFBB
:102FA000C0C0C0FFFFFFFFC0C0C0FFFFFFFF8080A9
:102FB000FFFFFFFF808000FFFFFF000000FFFFFF1B
:102FC000000000FFFFFF000000FFFF000000FFFF08
:102FD0000000FFFFFFFF0000000000010103070FDA
:102FE0000E1C3870F0E0C0800000000000000000FF
:102FF000000000000000000080C06030180C0603D4
:10300000010000000000000000008080C0C0FFFF41
:10301000FFFFE0FFFFFF7878787F3F3C3C3C3F1F9D
:103020001F1E1E1E1F0F0F0F0F0F0F0F0F0707077B
:103030000707070707070703030303030303030344
:103040000303030303030303030303030301010156
:1030500001E16161616161616161E101010101039E
:103060000303030303030303030303030303030330
:103070000303030303070707070707070707070FEC
:103080000F0F0F0F0F0F1F1F1E1E1E1F1F3F3C3C59
:103090003C3F7F787878FFFFF0E0FFFFFFFFC0C084
:1030A0008080000000000000000000000001030715
:1030B0001F3EFCF8E0C0800000000080E0F81C0724
:1030C00003000000000000000000000000000000FD
:1030D0000000FFFFFFFF0301F101F0F00000F0F836
:1030E0000000787878000078787800007C7C7C7C20
:1030F00000007C7C7C7C0000007E7E7E7E000000E8
:103100007E7E7E7E7E00000000007F7F7F00007F4D
:103110007F7F7F000000000000FF00B3B30000B31A
:10312000B300FF0000000000007F7F7F7F00007F72
:103130007F7F00000000007E7E7E7E7E0000007E9D
:103140007E7E7E0000007C7C7C7C00007C7C7C7C25
:10315000000078787800007878780000F8F00000B7
:10316000F00001F10103FFFFFFFF0000000000007D
:103170000000000000000000000000010FFFFFFE43
:10318000F8C07CFFFFC1000000000000000000004C
:10319000000000000000000078787F7F7F7F787853
:1031A000787878787878787878787878787878789F
:1031B000787878787878787878787878787878788F
:1031C00078787878787878F8F8F8F8F8F87878787F
:1031D000787878787878787878787878787878786F
:1031E000787F787B7B78787B7B787F787878787845
:1031F00078787878787878787878F8F8F8F8F8F84F
:10320000F8F8F878787878787878787878787878BE
:10321000787878787878787878787878787878782E
:1032200078787878787878787878787878787F7F10
:103230007F7F780000000000000000000000000018
:10324000000080C0F0FFFFFF3F070003070F3E7C38
:1032500078F0E0C0C08080000000000000000000A6
:10326000000000000000000000000000000000005E
:1032700000008080808080C0C0C0C0E0E0E0E0F05E
:103280007070703838381C1C1C0E0E0E07070303B4
:103290000301010000000000000000000000000029
:1032A000000000000000000000000000000000001E
:1032B000000000000000000000000000000000000E
:1032C00000000000000101010103030307070706D6
:1032D0000E0E0E0C1C1C1C183838383830707070EC
:1032E0007070E0E0E0E0E0E0E0C0C0C0C0C0C0C09E
:1032F000C0C0C0C0C0C0C0C0C0C0C0C0C0C0E0E08E
:10330000E0E0F0F0F078783C3E1E1F0F070301006C
:103310000000000000000000000001010303070797
:10332000070F0F0F0E0E0E1E1E1E1E1E1E1E1E1E31
:103330001E0E0E0F0F0F0F0F0707070707030303DC
:103340000301010100000000000000000000000077
:10335000000000000000000000000000000000006D
:10336000000000000000000000000000000000005D
:10337000000000000000000000000000000000004D
:10338000000000000000000000000000000000003D
:10339000000000000000000000000000000000002D
:1033A000000000000000000000000000000000001D
:1033B00000000101010101010101010101010101FF
:1033C00001010101010101010000000000000000F5
:1033D00000000000000000000000C80085000000A0
:1033E0000000000000000000000080C0E0F0783C19
:1033F0001E0F0F1E3C78F0E0C080000000000000AF
:1034000000000000000000000000000000000000BC
:103410000000000002070F1F3D78F0E0C0800000B0
:103420000000000103070F1E3C78F0E0C0800000A0
:1034300000000000000000000000000000103878CC
:10344000F0E0C0800000000103070F1E3C78F0E0B0
:10345000C08000000000000103070F1E3C78F0E070
:10346000C080183C78F0E0C0800000000001030735
:103470000F1E3C78F0E0C0800000000103070F1E23
:103480003C78F0E0C0800000000000010301000073
:1034900000000103070F1E3C78F0E0C08000000030
:1034A0000001010000000080C0E0F0783C1E0F0722
:1034B0000301000000000000000000000000000008
:1034C0000000000000000103070F1E3C78F0F078B8
:1034D0003C1E0F0703010000000000000000000078
:1034E0000000000000002C00300000000000000080
:1034F000000080C0E0F07878F0E0C08000000000BC
:103500000002070F1E3C78F0E0C0800000000000C1
:103510000000000000000080C0E0F0783C1E0F8733
:10352000C3C1800000000103070F1E3C78F0E0C01B
:1035300080000000000103070F1E3C78F0E0C0800F
:10354000000000000103010000000000000103076B
:103550000F1E3C78F0E0C0800000000103070F1E42
:103560003CF8F0E0C000000000000103070F1E1C43
:103570000800000000000000000000000000000043
:1035800000000103070F1E3C78F0783C1E0F070374
:1035900001000000000000000000000000002D00FD
:1035A00020000000000000000000000000000000FB
:1035B000000000000000000000000000000000000B
:1035C00000000000000000000000000000000000FB
:1035D000000000000000000000000000000000806B
:1035E000E0F0F8F8FC7E3E3E3E1F1F1F1F1F1F1E0F
:1035F0001E1E3E3C3C7878F0F0E0E0C08080000089
:1036000000000000000000000000000000000000BA
:1036100000000000000000000000000000000000AA
:10362000000000000000000000000000000000009A
:10363000000000000000000000000000000000008A
:10364000000000000000000000000000000000007A
:10365000000000000000000000000000000000006A
:10366000000000000000000000000000000000005A
:10367000000000000000000000000000000000004A
:10368000000000000000000000000000000000003A
:10369000000000000000000000000000000000002A
:1036A0000000000000F8FEFF3F07030100000000DB
:1036B000000000000000000000000000000000000A
:1036C0000001010307070F1E3C7878F0E0C080007E
:1036D00000000000000000000000000000000000EA
:1036E00000000000000000000000000000000000DA
:1036F00000000000000000000000000000000000CA
:1037000000000000000000000000000000000000B9
:1037100000000000000000000000000000000000A9
:103720000000000000000000000000000000000099
:103730000000000000000000000000000000000089
:103740000000000000000000000000000000000079
:103750000000000000000000000000000000000069
:10376000000000000000000000000000FEFFFFFF5E
:103770000000000000000000000000000000000049
:103780000000000000000000000000000000000039
:10379000000000000103070F1E3C70E0C080000025
:1037A0000000000000000000000000000000000019
:1037B0000000000000000000000000000000000009
:1037C00000000000000000000000000000000000F9
:1037D00000000000000000000000000000000000E9
:1037E00000000000000000000000000000000000D9
:1037F00000000000000000000000000000000000C9
:1038000000000000000000000000000000000000B8
:1038100000000000000000000000000000000000A8
:103820000000000000000000000000000000000098
:103830000000000000FFFFFF00000000000000008B
:103840000000000000000000000000000000000078
:103850000000000000000000000000000000000068
:103860000000000103070F1E78F0E0800000000058
:103870000000000000000000000000000000000048
:103880000000000000000000000000000000000038
:103890000000008080808080808080C0C0C0C0C068
:1038A000C0C0C0C080808080808000000000000018
:1038B0000000000000000000000000000000000008
:1038C00000000000000000000000000000000000F8
:1038D000000000008080C0C0C0E0E0E0E0E0E0E088
:1038E000E0E0E0F0F0F0F0F0E0E0E0E0E0E0E0E088
:1038F000E0E0E0E0E0C0C0C0C0C0C0C080809FFF8A
:10390000FEC00000000000000000000000000000F9
:1039100000000000000000000000000000000000A7
:1039200000000000000000E0E000000000000000D7
:10393000000001070F1E78F0C0800000808080C06A
:10394000C0C0E0E0E0F0F07070787838383C3C1CA3
:103950001E1E1E1E0E0F0F0F0F0F0707070707076C
:10396000070703030303030303030307070707070B
:103970000F0F0F1F3F3EFEFCFCF8F0E08000000040
:103980000000000000000000000000000000000037
:10399000000000000000E0F8FCFEFF7F3F1F1F0F4B
:1039A0000F070707030303030303030101010101D9
:1039B00001010101010101010101010101030303F1
:1039C00003030303030303071FFFFFC707070E0ECD
:1039D0000E0E0E1C1C1C1C183838383030706060FD
:1039E00060E0C0C0C080808080008080C0C0FEFFDA
:1039F000FFFEC0E0E0E070703038381C1C1C0E0E7A
:103A00000F071F3FF7E383030101010100000000DE
:103A100000000000000000000000000000000000A6
:103A20000000000000000000000000000000000096
:103A30000000000000000000000000000000000383
:103A4000FFFFFFFFFF7E00000000000000000000FD
:103A500000000000000000000000000000001F7FC8
:103A6000FFFF8300000000000000000000000000D5
:103A70000000000000000000000000000000000046
:103A80000000000000000000000000000000000036
:103A90000000073FFCE00000000000000000000004
:103AA000000000808080C0C06060F0F0F0F97D3FD1
:103AB000DF7F1FCFF73F0FFFFF0F3FF78F3F7FDF06
:103AC0003E7CF8F0E0808080000000000001071FCD
:103AD0003CF8E08000000000000000000000000052
:103AE00000000000000000000000000000000000D6
:103AF00000000000000000000000000000000000C6
:103B0000000000000080E0FCFF7F3F0F030000008A
:103B100000000000000000000000000000000000A5
:103B2000000000000000000003071F3CF0C0800000
:103B30000000000000000000000000000000000085
:103B40000000000000000000000000000000000075
:103B500000000000000000000000008081CFFFF89E
:103B6000E0303018180C0C0606070303010100C0F2
:103B7000F8FFFF3F07E1FC0F0100FCFF010000FF21
:103B8000FF000003FFF800011FFCC1077FFFFFF9E2
:103B90008103020206040C08081813373E7CF0C0AB
:103BA000C080800000000000000000000000000055
:103BB0000000000000000000000000000000000005
:103BC0000000000000000080C0F0783C1F0F0703D9
:103BD00001000000000000000000000000000000E4
:103BE00000000000000000000000000000000000D5
:103BF00000000000000103070C183060C0800000C6
:103C000000000000000000000000000000000000B4
:103C1000000000008080C0C060603090988C8C866E
:103C2000C6C3C3C1C14060616FFFF860202020207F
:103C3000303030F8FCFC3C3FFFFF1F1E1EFF1F1EF4
:103C40001EFEFF1E1EFEFE0F0FFEFE1E1FFFFE1EAF
:103C50001EFFFF1E1E1FFF3F3FFCFCFCF8303030F4
:103C60002020202060E0E1677F7C79E1C3C3C6C6E5
:103C7000848C88989030206060C0C08080000000F4
:103C800000000000000080C0E06030381C0E070318
:103C90000100000000000000000000000000000023
:103CA0000000000000000000000000000000000014
:103CB0000000000000000000000000000000000004
:103CC0000000000000010306CCD858F0E02030F0DE
:103CD000F01018F8F8888C8CCCFEFEC7E7E3E3E31D
:103CE000FFF1F1F1F1F171787F7F7878383C3C3C5D
:103CF0003C3F3F3C1C1E1E1E1E1E1E1F1F1F1E0E75
:103D00000F0F0E0F0F0F0F0F0F0F0F0F0F0F0F0FC4
:103D10000F0F0F0F0F0F0F0F0F0F0F0F0F0E0F0EB5
:103D20000E1F1F1F1F1E1E1E1E1E1E3C3C3F3F3C23
:103D30003C3C3C3878787F7F7871F1F1F1F1F3FF0A
:103D4000E3E2E2C7C7FFFFCE8E8C8CFE1E1B11F193
:103D5000F03060E0E040C0C0000000000000000063
:103D60000000000000000000000000000000000053
:103D70000000000000000000000000000000000043
:103D800000000000000000000000000080C0602073
:103D9000FFFFFCFF3F1E1E9F0F0F0FC7C707070740
:103DA000E3E3E3030101F1F1F1000000F8F8F800AA
:103DB0000000FCFCFC000000FCFEFEFE000000FE1B
:103DC000FEFEFE000000FFFFFFFFFF0000FFFFFF01
:103DD000FFFF000000FFFFFFFFFFFF000000FFFFED
:103DE000FFFF000000FFFFFFFFFF000000FEFEFEE0
:103DF000FE000000FEFEFEFC0000FCFCFCFC0000DF
:103E000000F8F8F8000000F1F1F1010103E3E3E349
:103E1000070707C7CF0F0F0F9F1E1E3FFFFCFFFFB7
:103E200018383070E0C0C0800000000000000000C2
:103E30000000000000000000000000000000000082
:103E40000000000000000000000080C06030180882
:103E50000C06030101000000FFFFFFFF00FFFFFF52
:103E6000000000FFFF000000FFFFFF000000FFFF59
:103E7000FF000000FFFFFF008080FFFFFF808080C9
:103E8000FFFFFFFFC0C0C0FFFFFFFFC0C0C0FFFFBC
:103E9000FFFFFFC0C0FFFFFFFFFFC0C0C0FFFFFF6D
:103EA000FFFFFFC0C0C0FFFFFFFFC0C0C0FFFFFF9C
:103EB000FFFFC0C0C0FFFFFFFFC0C0C0FFFFFFFF8C
:103EC0008080FFFFFFFF808000FFFFFF000000FFFA
:103ED000FFFF000000FFFFFF000000FFFF000000E9
:103EE000FFFF0000FFFFFFFF0000000000010103D3
:103EF000070F0E1C3870F0E0C080000000000000CA
:103F00000000000000000000000080C06030180CBD
:103F10000603010000000000000000008080C0C017
:103F2000FFFFFFFFE0FFFFFF7878787F3F3C3C3CDE
:103F30003F1F1F1E1E1E1F0F0F0F0F0F0F0F0F070C
:103F4000070707070707070707030303030303031D
:103F50000303030303030303030303030303030133
:103F6000010101E16161616161616161E101010181
:103F70000103030303030303030303030303030313
:103F800003030303030303070707070707070707DD
:103F9000070F0F0F0F0F0F0F1F1F1E1E1E1F1F3F9C
:103FA0003C3C3C3F7F787878FFFFF0E0FFFFFFFF6D
:103FB000C0C0808000000000000000000000000180
:103FC00003071F3EFCF8E0C0800000000080E0F81E
:103FD0001C070300000000000000000000000000BB
:103FE00000000000FFFFFFFF0301F101F0F00000FF
:103FF000F0F80000787878000078787800007C7C11
:104000007C7C00007C7C7C7C0000007E7E7E7E00D0
:1040100000007E7E7E7E7E00000000007F7F7F00AD
:10402000007F7F7F7F000000000000FF00B3B3002F
:1040300000B3B300FF0000000000007F7F7F7F001F
:10404000007F7F7F00000000007E7E7E7E7E00007D
:10405000007E7E7E7E0000007C7C7C7C00007C7C80
:104060007C7C000078787800007878780000F8F0A0
:104070000000F00001F10103FFFFFFFF000000005E
:1040800000000000000000000000000000010FFF21
:10409000FFFEF8C07CFFFFC1000000000000000030
:1040A0000000000000000000000078787F7F7F7F24
:1040B0007878787878787878787878787878787880
:1040C0007878787878787878787878787878787870
:1040D000787878787878787878F8F8F8F8F8F87860
:1040E0007878787878787878787878787878787850
:1040F0007878787F787B7B78787B7B787F78787826
:10410000787878787878787878787878F8F8F8F82F
:10411000F8F8F8F8F878787878787878787878789F
:10412000787878787878787878787878787878780F
:1041300078787878787878787878787878787878FF
:104140007F7F7F7F780000000000000000000000FB
:104150000000000080C0F0FFFFFF3F070003070FD3
:104160003E7C78F0E0C0C0808000000000000000CD
:10417000000000000000000000000000000000003F
:10418000000000008080808080C0C0C0C0E0E0E00F
:10419000E0F07070703838381C1C1C0E0E0E0707CB
:1041A0000303030101000000000000000000000004
:1041B00000000000000000000000000000000000FF
:1041C00000000000000000000000000000000000EF
:1041D00000000000000000010101010303030707C4
:1041E00007060E0E0E0C1C1C1C18383838383070A0
:1041F00070707070E0E0E0E0E0E0E0C0C0C0C0C01F
:10420000C0C0C0C0C0C0C0C0C0C0C0C0C0C0C0C0AE
:10421000E0E0E0E0F0F0F078783C3E1E1F0F07038E
:104220000100000000000000000000000101030385
:104230000707070F0F0F0E0E0E1E1E1E1E1E1E1E40
:104240001E1E1E0E0E0F0F0F0F0F07070707070387
:104250000303030101010000000000000000000052
:10426000000000000000000000000000000000004E
:10427000000000000000000000000000000000003E
:10428000000000000000000000000000000000002E
:10429000000000000000000000000000000000001E
:1042A000000000000000000000000000000000000E
:1042B00000000000000000000000000000000000FE
:1042C00000000000010101010101010101010101E2
:1042D00001010101010101010101000000000000D4
:1042E000000000000000000000000000C800850081
:1042F00000000000000000000000000080C0E0F0AE
:10430000783C1E0F0F1E3C78F0E0C08000000000DB
:10431000000000000000000000000000000000009D
:1043200000000000000002070F1F3D78F0E0C08091
:1043300000000000000103070F1E3C78F0E0C08081
:10434000000000000000000000000000000000105D
:104350003878F0E0C0800000000103070F1E3C78B1
:10436000F0E0C08000000000000103070F1E3C7851
:10437000F0E0C080183C78F0E0C080000000000150
:1043800003070F1E3C78F0E0C08000000001030727
:104390000F1E3C78F0E0C080000000000001030127
:1043A000000000000103070F1E3C78F0E0C0800011
:1043B00000000001010000000080C0E0F0783C1E19
:1043C0000F070301000000000000000000000000D3
:1043D00000000000000000000103070F1E3C78F001
:1043E000F0783C1E0F0703010000000000000000F1
:1043F00000000000000000002C0030000000000061
:104400000000000080C0E0F07878F0E0C08000009C
:1044100000000002070F1E3C78F0E0C080000000A2
:1044200000000000000000000080C0E0F0783C1EAA
:104430000F87C3C1800000000103070F1E3C78F006
:10444000E0C080000000000103070F1E3C78F0E090
:10445000C080000000000103010000000000000116
:1044600003070F1E3C78F0E0C08000000001030746
:104470000F1E3CF8F0E0C000000000000103070F31
:104480001E1C0800000000000000000000000000EA
:10449000000000000103070F1E3C78F0783C1E0F5F
:1044A0000703010000000000000000000000000001
:1044B0002D00200000000000808080800707070793
:1044C000F8FEFFFF0707FFFEFEF8FFFFFFFF0000FB
:1044D000FFFFFFFF0003070707070707030118187F
:1044E0001CFCFEFFFF000000FFFFFFFF00000007B5
:1044F0000707077C7E7F0787FFFFFEFC00C0F0FEFA
:10450000FF3F0F03000707070707070707073C3EA2
:104510003FBF8787FFFFFE7CF8F8F8FB0303FFFF30
:10452000FEFE010307070707070703010000E0FC81
:10453000FF1FFFFFFFFF00F8FFFFF7F0F0FFFFFF97
:10454000FFF00000000000000707070700FFFFFF63
:10455000FFC7E7E7E7C787F3F3F3F30000FFFFFFC9
:10456000FF01030707070707070301F8FEFFFF879F
:10457000C7DFDF9E1CFFFFFFFF0101FFFFFFFF0002
:1045800003070707070707030107070707FFFFFFE1
:104590003F0000F0FFFFFF070000060707070000CD
:1045A000007CFEFFFF8787FFFFFE7CFCFEFFFF0312
:1045B00003FFFFFEFC01030707070707070301FCD2
:1045C000FEFFFF0707FFFFFEFCC7CFDFDF1C0CFF6E
:1045D000FFFFFF0103070707070703030080808031
:1045E000808787878707070707000400030000000C
:1045F0000000000000000A0003000C000700030098
:104600002A00090003003F000A0003005A000B00C3
:10461000030078000A00030099000A000300B700B5
:1046200008000300D5000A000300ED000A000300A3
:104630000B0104000300290100C0FFFFFF07FFFF7B
:10464000FFC00080FFFFFFE3E0E3FFFFFF800707FD
:10465000070700000007070707FFFFFFFFC7C7FFA7
:10466000FF7E7CFFFFFFFF0303FFFFFFFE0707073F
:1046700007070707070701FFFFFFFF0F0F0F0FFFD8
:10468000FFFFFF0000000007070707000000000011
:104690000000FFFFFFFF0F0F0FFFFFFFFF0080E095
:1046A000FFFFFFBF83808080FFFFFFFF803F3F3F12
:1046B0003F070707070707073F3F3F3FFFFFFFFF92
:1046C0008F8F8F00FFFFFFFF878787800707070710
:1046D0000707070701FFFFFFFF0000FFFFFFFF00C5
:1046E00000FFFFFFFF0100F8FDFDFF0707FFFFFFD1
:1046F000FF0707FFFDFDF800040707070700000795
:1047000007070700000707070704FFFFFFFF000078
:10471000FEFFFFFF01FFFFFFFF0707FFFDFDF800A2
:10472000070707070000030707070400FFFFFFFF55
:104730000F0F0FFFFFFFFF00FFFFFFFF000000FF55
:10474000FFFFFF070707070100000007070707FF34
:10475000FFFFFF8080FFFFFFFFFFFFFFFF0707FF57
:10476000FFFFFF07070707000007070707F8FEFE20
:10477000FF0707FFFEFEF8FFFFFFFF0000FFFFFF40
:10478000FF00030307070707030300FFFFFFFF07FF
:1047900007FFFFFEFCFFFFFFFF07070707030307F5
:1047A0000707070000000000000F0F0FFFFFFFFFCB
:1047B0000F0F0F000000FFFFFFFF000000000000D0
:1047C00007070707000000073FFFFFF8C0F8FFFFDB
:1047D0003F0780F0FFFF7F077FFFFFF0800707079D
:1047E0000700000007070707FFFFFFFF80808080AA
:1047F0008000000000FFFFFFFFFFFFFFFF03030338
:10480000FFFFFFFE0000FFFFFFFF07070707070787
:104810000707070703000007070707E0F0F8383825
:1048200038F8F8F0E0F1F9FD0C0E06FFFFFFFF038A
:10483000070707070307070707E0F0F8F83838F815
:10484000F0F0C0FFFFFFFF0707F7F7F7F7010303DB
:1048500007070707070300E0F0F8F83838F8F8F022
:10486000E0E1E1E1E10C0CFFFFFFF30103070707C3
:104870000707070301F8F8F8F80000F0F8F8F8F86F
:10488000FFFFFFFFF03F03FFFFFFFF0707070703DF
:10489000000007070707F8F8F8F80000F8F8F8F83C
:1048A00008FFFFFFFF0E0EFFFBFBF10007070707E6
:1048B000000003070707040000F8F8F8F83838F894
:1048C000F8F8F80000FFFFFFFF0000FFFFFFFF0701
:1048D0000707070703000007070707F8F8F8F8F8C5
:1048E000F00000F8F8F8F8F8F8FFFFFFFF07FFFC0A
:1048F000FCFF07FFFFFFFF0707070700010707018E
:104900000007070707F8F8F8F8000000F8F8F8F8CB
:10491000FFFFFFFF1E1E1EFFFFFFFF070707070029
:10492000000007070707C0F0F8F83838F8F0F0E0A3
:10493000FFFFFFFF0000FFFFFFFF0103070707075F
:1049400007070300F8F8F8F83038F8F8F8F0FFFF38
:10495000FFFF0000FFFFFFFF1F1F1F1F03070707C9
:104960000703E0F0F8F8383838F0F0E0FFFFFFFF19
:10497000000000F1F1F10003070707070703030038
:10498000383838F8F8F8F8383838000000FFFFFFFA
:10499000FF0000000000000707070700000018F8EC
:1049A000F8F8000000F8F8F81800033FFFFF80FF58
:1049B000FFFF1F00001C1C1F1F1F1F0F070000F818
:1049C000F8F8F80000F8F8F8F83F7F7F7F7030FFC4
:1049D000FFFFFF00000000000007070707F8F8F8D6
:1049E000F80000F8F8F8F80000F8F8F8F8FFFFFF12
:1049F000FF0000FFFFFFFF0000FFFFFFFF070707AB
:104A000007070707070707070707070707000B0040
:104A1000030000000000000000000A000300210065
:104A2000080003003F000F000300570008000300C8
:104A30008400120003009C00000000000000000041
:104A4000000000000000000000000B000300D20086
:104A50000C000300F3000000000000000A00030047
:104A600017010A00030035010000000000000A00E1
:104A7000030053010000000000000A000300710160
:104A80000000000000000000000000000B00030018
:104A90008F01000000000000000000000000000086
:104AA0000000000000000000000000000000000006
:104AB00011000300B0010000000000000000000031
:104AC00000000000000000000000000000000A00DC
:104AD0000300E301000000000000000000000000EF
:104AE0000000000000000000000000000A000300B9
:104AF00001020000000000000A0003001F020B007A
:104B000003003D020000000000000B0003005E02F5
:104B10000C0003007F020E000300A3020B00030041
:104B2000CD020A000300EE020000000000000A00AF
:104B300003000C030A0003002A030A0003004803D1
:104B40000B000300660300000000000000000000EE
:104B500000000000000000000A00030087031000AE
:104B60000300A50300000000010101010000181866
:104B7000F8FC06020206FCF8070F181010180F07C1
:104B8000080C06FEFE0000001010101F1F10101071
:104B90000000C0F83E063EF8C00000181F070202E1
:104BA000020202071F18F0FC0C06020202020403B4
:104BB0000F0C181010101008FEFE42424242021F55
:104BC0001F1010101010FEFE42424242421F1F00F2
:104BD00000000000FEFE404040404040FEFE1F1F1F
:104BE0000000000000001F1FFEFE1F1F000000FE4F
:104BF000FE0810101F0FFEFE00000000001F1F1017
:104C000010101010FEFE063CF0C00000FEFE1F1F3C
:104C1000000000030F181F1FF0FC0C060202020622
:104C20000CFCF0030F0C18101010180C0F03FEFEF4
:104C3000828282C67C38001F1F000000030F1C10F8
:104C4000387C66C2C2860408181010190F070202C9
:104C500002FEFE0202020000001F1F000000FEFE16
:104C6000000000000000FEFE070F181010101018C2
:104C70000F0730F0C0000000C0F0300001071E1820
:104C80001E070100FEFE424242FE9C001F1F101044
:104C900010180F07FEFE4040E0B81E061F1F000060
:104CA00000071F18FEFE0E7CE0000000E03C0EFE38
:104CB000FE1F1F0000010F180F0100001F1F201012
:104CC000101010F0E00E1F1111191F1FF0F010103E
:104CD00010F0E01F1F1111111F0EF0F01010101F27
:104CE0001F0000000000F0F0101010F0F000F01EA7
:104CF00017101010101F1FF0C0E0301010F0E00768
:104D00000F1911111109F0F00080E0F0F01F1F0ED3
:104D100003001F1FF0F30784E4F7F31F1F0E0300C7
:104D20001F1FF0F00000C0F0301F1F0101061E1809
:104D3000000000F01010F0F010180F0100001F1F0D
:104D4000F0F0F0C0000000C0F0F0F01F1F00031FE3
:104D5000180F03001F1FF0F0000000F0F01F1F01EC
:104D600001011F1FC0E030101030E0C0070F181005
:104D700010180F07F0F020101030E0C0FFFF0810EF
:104D800010180F07C0E03010101020070F18101077
:104D90001008101010F0F01010100000001F1F007D
:104DA0000000F0F0000000F0F0000000F0F01F1F25
:104DB0001010101F1F1010101F1FF0F08080808037
:104DC0000000F0F01F1F1010100F0F001F1F040035
:104DD00002000000020002000800000000000000C5
:104DE000080002000C00080002001C000B0002007A
:104DF0002C0000000000000009000200420000003A
:104E000000000000070002005400070002006200DA
:104E10000000000000000A00020070000200020012
:104E20008400050002008800000000000000070068
:104E3000020092000000000000000A000200A00032
:104E40000B000200B40000000000000000000000A1
:104E5000000009000200CA0007000200DC00080090
:104E60000200EA000A000200FA00090002000E0136
:104E700008000200200108000200300100000000CC
:104E800000000D0002004001070002005A0100006E
:104E90000000000007000200680105000200760122
:104EA0000A000200800107000200940100000000D7
:104EB000000000000000000007000200A20107003F
:104EC0000200B00107000200BE0108000200CC0190
:104ED0000B000200DC0107000200F20108000200E2
:104EE000000200000000000008000200100207009D
:104EF00002002002080002002E020C0002003E0206
:104F00000000000000000000000000000A00020095
:104F1000560200002D003100CE4D00084100550022
:104F2000EC4D0008760076006A4E0008C200C20010
:104F3000704E0008CA00CC00764E0008E000F20077
:104F4000884E0008F800FB00FA4E00082D00FB0018
:104F500002000000144F000807000000644B000826
:104F6000000000008080808007070707F8FEFFFF31
:104F70000707FFFEFEF8FFFFFFFF0000FFFFFFFF38
:104F80000003070707070707030118181CFCFEFFAB
:104F9000FF000000FFFFFFFF000000070707077C7E
:104FA0007E7F0787FFFFFEFC00C0F0FEFF3F0F0380
:104FB000000707070707070707073C3E3FBF87872C
:104FC000FFFFFE7CF8F8F8FB0303FFFFFEFE010382
:104FD00007070707070703010000E0FCFF1FFFFFAB
:104FE000FFFF00F8FFFFF7F0F0FFFFFFFFF000000A
:104FF000000000000707070700FFFFFFFFC7E7E704
:10500000E7C787F3F3F3F30000FFFFFFFF01030798
:1050100007070707070301F8FEFFFF87C7DFDF9ECB
:105020001CFFFFFFFF0101FFFFFFFF000307070752
:10503000070707030107070707FFFFFF3F0000F00F
:10504000FFFFFF070000060707070000007CFEFFC8
:10505000FF8787FFFFFE7CFCFEFFFF0303FFFFFED1
:10506000FC01030707070707070301FCFEFFFF0713
:1050700007FFFFFEFCC7CFDFDF1C0CFFFFFFFF01B8
:10508000030707070707030300808080808787875F
:105090008707070707000400030000000000000066
:1050A00000000A0003000C00070003002A000900AA
:1050B00003003F000A0003005A000B0003007800C1
:1050C0000A00030099000A000300B700080003006B
:1050D000D5000A000300ED000A0003000B010400E4
:1050E0000300290100C0FFFFFF07FFFFFFC0008092
:1050F000FFFFFFE3E0E3FFFFFF8007070707000074
:105100000007070707FFFFFFFFC7C7FFFF7E7CFF02
:10511000FFFFFF0303FFFFFFFE0707070707070760
:10512000070701FFFFFFFF0F0F0F0FFFFFFFFF003C
:105130000000000707070700000000000000FFFF55
:10514000FFFF0F0F0FFFFFFFFF0080E0FFFFFFBF1C
:1051500083808080FFFFFFFF803F3F3F3F070707BF
:10516000070707073F3F3F3FFFFFFFFF8F8F8F007E
:10517000FFFFFFFF878787800707070707070707E6
:1051800001FFFFFFFF0000FFFFFFFF0000FFFFFF29
:10519000FF0100F8FDFDFF0707FFFFFFFF0707FF07
:1051A000FDFDF800040707070700000707070700D1
:1051B000000707070704FFFFFFFF0000FEFFFFFFD8
:1051C00001FFFFFFFF0707FFFDFDF80007070707C7
:1051D0000000030707070400FFFFFFFF0F0F0FFF8B
:1051E000FFFFFF00FFFFFFFF000000FFFFFFFF07C3
:1051F0000707070100000007070707FFFFFFFF8001
:1052000080FFFFFFFFFFFFFFFF0707FFFFFFFF0715
:10521000070707000007070707F8FEFEFF0707FF5D
:10522000FEFEF8FFFFFFFF0000FFFFFFFF0003038C
:1052300007070707030300FFFFFFFF0707FFFFFE46
:10524000FCFFFFFFFF070707070303070707070028
:1052500000000000000F0F0FFFFFFFFF0F0F0F00F8
:105260000000FFFFFFFF0000000000000707070726
:10527000000000073FFFFFF8C0F8FFFF3F0780F086
:10528000FFFF7F077FFFFFF0800707070700000091
:1052900007070707FFFFFFFF808080808000000076
:1052A00000FFFFFFFFFFFFFFFF030303FFFFFFFE02
:1052B0000000FFFFFFFF07070707070707070707AC
:1052C00003000007070707E0F0F8383838F8F8F06F
:1052D000E0F1F9FD0C0E06FFFFFFFF0307070707CC
:1052E0000307070707E0F0F8F83838F8F0F0C0FFD8
:1052F000FFFFFF0707F7F7F7F701030307070707A4
:10530000070300E0F0F8F83838F8F8F0E0E1E1E100
:10531000E10C0CFFFFFFF301030707070707070373
:1053200001F8F8F8F80000F0F8F8F8F8FFFFFFFFD0
:10533000F03F03FFFFFFFF07070707030000070712
:105340000707F8F8F8F80000F8F8F8F808FFFFFF8A
:10535000FF0E0EFFFBFBF100070707070000030726
:105360000707040000F8F8F8F83838F8F8F8F800FB
:1053700000FFFFFFFF0000FFFFFFFF070707070712
:1053800003000007070707F8F8F8F8F8F00000F83E
:10539000F8F8F8F8F8FFFFFFFF07FFFCFCFF07FF36
:1053A000FFFFFF07070707000107070100070707BF
:1053B00007F8F8F8F8000000F8F8F8F8FFFFFFFF2A
:1053C0001E1E1EFFFFFFFF0707070700000007075D
:1053D0000707C0F0F8F83838F8F0F0E0FFFFFFFFFB
:1053E0000000FFFFFFFF0103070707070707030090
:1053F000F8F8F8F83038F8F8F8F0FFFFFFFF000091
:10540000FFFFFFFF1F1F1F1F030707070703E0F032
:10541000F8F8383838F0F0E0FFFFFFFF000000F147
:10542000F1F100030707070707030300383838F8CE
:10543000F8F8F8383838000000FFFFFFFF000000E0
:105440000000000707070700000018F8F8F8000040
:1054500000F8F8F81800033FFFFF80FFFFFF1F0070
:10546000001C1C1F1F1F1F0F070000F8F8F8F80092
:1054700000F8F8F8F83F7F7F7F7030FFFFFFFF00F4
:10548000000000000007070707F8F8F8F80000F828
:10549000F8F8F80000F8F8F8F8FFFFFFFF0000FF49
:1054A000FFFFFF0000FFFFFFFF07070707070707D2
:1054B000070707070707070707000B00030000009F
:1054C0000000000000000A000300210008000300A3
:1054D0003F000F0003005700080003008400120083
:1054E00003009C000000000000000000000000001D
:1054F0000000000000000B000300D2000C000300BD
:10550000F3000000000000000A00030017010A0079
:10551000030035010000000000000A0003005301F1
:105520000000000000000A000300710100000000FC
:1055300000000000000000000B0003008F010000CD
:10554000000000000000000000000000000000005B
:105550000000000000000000000000001100030037
:10556000B00100000000000000000000000000008A
:10557000000000000000000000000A000300E3013A
:10558000000000000000000000000000000000001B
:1055900000000000000000000A00030001020000FB
:1055A000000000000A0003001F020B0003003D0280
:1055B0000000000000000B0003005E020C0003006E
:1055C0007F020E000300A3020B000300CD020A00BD
:1055D0000300EE020000000000000A0003000C03BC
:1055E0000A0003002A030A00030048030B0003001B
:1055F0006603000000000000000000000000000042
:10560000000000000A000300870310000300A50348
:10561000000000000000000000000000000000008A
:10562000000000000000000000000000000000007A
:10563000000000000000000000000000000000006A
:10564000000000000000000000000080E0F0F8F81A
:10565000FC7E3E3E3E1F1F1F1F1F1F1E1E1E3E3C88
:105660003C7878F0F0E0E0C08080000000000000AE
:10567000000000000000000000000000000000002A
:10568000000000000000000000000000000000001A
:10569000000000000000000000000000000000000A
:1056A00000000000000000000000000000000000FA
:1056B00000000000000000000000000000000000EA
:1056C00000000000000000000000000000000000DA
:1056D00000000000000000000000000000000000CA
:1056E00000000000000000000000000000000000BA
:1056F00000000000000000000000000000000000AA
:105700000000000000000000000000000000000099
:1057100000F8FEFF3F07030100000000000000004A
:105720000000000000000000000000000001010374
:1057300007070F1E3C7878F0E0C0800000000000F2
:105740000000000000000000000000000000000059
:105750000000000000000000000000000000000049
:105760000000000000000000000000000000000039
:105770000000000000000000000000000000000029
:105780000000000000000000000000000000000019
:105790000000000000000000000000000000000009
:1057A00000000000000000000000000000000000F9
:1057B00000000000000000000000000000000000E9
:1057C00000000000000000000000000000000000D9
:1057D0000000000000000000FEFFFFFF00000000CE
:1057E00000000000000000000000000000000000B9
:1057F00000000000000000000000000000000000A9
:105800000103070F1E3C70E0C08000000000000094
:105810000000000000000000000000000000000088
:105820000000000000000000000000000000000078
:105830000000000000000000000000000000000068
:105840000000000000000000000000000000000058
:105850000000000000000000000000000000000048
:105860000000000000000000000000000000000038
:105870000000000000000000000000000000000028
:105880000000000000000000000000000000000018
:105890000000000000000000000000000000000008
:1058A00000FFFFFF000000000000000000000000FB
:1058B00000000000000000000000000000000000E8
:1058C00000000000000000000000000000000001D7
:1058D00003070F1E78F0E0800000000000000000C9
:1058E00000000000000000000000000000000000B8
:1058F0000000000000000000000000000000008028
:1059000080808080808080C0C0C0C0C0C0C0C0C057
:105910008080808080800000000000000000000087
:105920000000000000000000000000000000000077
:105930000000000000000000000000000000000067
:105940008080C0C0C0E0E0E0E0E0E0E0E0E0E0F067
:10595000F0F0F0F0E0E0E0E0E0E0E0E0E0E0E0E007
:10596000E0C0C0C0C0C0C0C080809FFFFEC00000BB
:105970000000000000000000000000000000000027
:105980000000000000000000000000000000000017
:10599000000000E0E000000000000000000001073F
:1059A0000F1E78F0C0800000808080C0C0C0E0E0A2
:1059B000E0F0F07070787838383C3C1C1E1E1E1EDB
:1059C0000E0F0F0F0F0F0707070707070707030340
:1059D0000303030303030307070707070F0F0F1F43
:1059E0003F3EFEFCFCF8F0E08000000000000000FC
:1059F00000000000000000000000000000000000A7
:105A00000000E0F8FCFEFF7F3F1F1F0F0F07070796
:105A10000303030303030301010101010101010168
:105A20000101010101010101010303030303030358
:105A3000030303071FFFFFC707070E0E0E0E0E1C02
:105A40001C1C1C18383838303070606060E0C0C0F2
:105A5000C080808080008080C0C0FEFFFFFEC0E06C
:105A6000E0E070703038381C1C1C0E0E0F071F3F12
:105A7000F7E38303010101010000000000000000C2
:105A80000000000000000000000000000000000016
:105A90000000000000000000000000000000000006
:105AA000000000000000000000000003FFFFFFFFF7
:105AB000FF7E000000000000000000000000000069
:105AC000000000000000000000001F7FFFFF8300B7
:105AD00000000000000000000000000000000000C6
