:020000040800F2
:10000000A80A00205D0100086501000867010008DA
:10001000690100086B0100086D0100080000000084
:100020000000000000000000000000006F01000858
:10003000710100080000000073010008750100084C
:100040007701000877010008770100080000000030
:100050000000000077010008770100087701000820
:100060007701000800000000770100087701000810
:100070007701000800000000D9200008892100084D
:10008000A92100087701000800000000770100089E
:1000900077010008000000000000000000000000E0
:1000A00000000000000000000000000077010008D0
:1000B0007701000877010008650200087701000851
:1000C00000F002F800F03AF80AA090E8000C824430
:1000D0008344AAF10107DA4501D100F02FF8AFF20D
:1000E000090EBAE80F0013F0010F18BFFB1A43F016
:1000F00001031847283B0000483B0000103A24BF8A
:1001000078C878C1FAD8520724BF30C830C144BF7C
:1001100004680C60704700000023002400250026BE
:10012000103A28BF78C1FBD8520728BF30C148BF5A
:100130000B6070471FB51FBD10B510BD00F031F842
:100140001146FFF7F7FF02F097F800F04FF803B4FD
:10015000FFF7F2FF03BC00F057F8000009488047A2
:1001600009480047FEE7FEE7FEE7FEE7FEE7FEE799
:10017000FEE7FEE7FEE7FEE704480549054A064BB1
:100180007047000099200008C1000008A804002062
:10019000A80A0020A8060020A80600207047704783
:1001A0007047754600F02CF8AE4605006946534688
:1001B00020F00700854618B020B5FFF7DDFFBDE849
:1001C00020404FF000064FF000074FF000084FF0BE
:1001D000000B21F00701AC46ACE8C009ACE8C0094F
:1001E000ACE8C009ACE8C0098D46704710B50446BC
:1001F000AFF300802046BDE81040FFF7A8BF000025
:10020000004870474804002001491820ABBEFEE7B3
:1002100026000200704710B500F01CF801F05EFEE9
:1002200000F002F810BD00000848006840F0180017
:10023000064908600648806B40F006000449886360
:100240000846806B40F030008863704700800140B2
:1002500000800D404FF0FF300149C8617047000039
:100260000000024001200149087070471000002082
:10027000002003490968C1F3401181F00100704773
:1002800000800A4038B50446002000906B460422E6
:100290000321382001F03AFA9DF800004FF4706114
:1002A00001EA0020208020889DF80110084320806A
:1002B0009DF802004FF4706101EA002060806088C0
:1002C0009DF8031008436080608840F23F11081ACF
:1002D000608038BD10B500F021F800F04FF8002222
:1002E0001146382001F07CFA80221146382001F0B6
:1002F00077FA80228521382001F072FA00228621C7
:10030000382001F06DFA0E228821382001F068FAB9
:100310000022A421382001F063FA10BD154840687E
:1003200040F00200134948600846C06840F00200EF
:10033000C8600846806820F00C0088600846806924
:1003400040F00C0088610C48406840F020000A49E9
:1003500048600846C06840F02000C86008468068D1
:1003600020F4406088600846806940F440608861FD
:100370007047000000800C4000800A4010B514480F
:10038000006820F0020012490860052001F060FFBB
:100390000F48006840F002000D4908604FF4AF704C
:1003A00001F056FF0B48006820F020000949086062
:1003B000012001F04DFF0748006840F0200005498A
:1003C00008600846406820F02000486010BD00002A
:1003D00000800C4000800A4010B5164890F81A04BE
:1003E00098B90121134880F81A144FF620710220A1
:1003F00000F0BAFC104B002210A1022000F022FDF8
:100400000121162000F0A4F812E00021094880F82C
:100410001A144DF2DA61022000F0A6FC064B00220D
:1004200007A1022000F00EFD0021162000F090F838
:1004300010BD00001C000020E02C0008C2CACB0048
:10044000C2DBCACB0000000010B54FF6207000F0F0
:1004500011F806480068401E04490860084604492F
:100460000268142000F09AF810BD0000000000207F
:10047000040000203EB504462146012000F074FC33
:100480004FF6FF700022CDE900206B236522BD21CD
:100490000290952000F03CFF3EBD000010B50748DB
:1004A00090F8F40348B90548B0F8DA0347F2695107
:1004B000884202D00846FFF7DDFF10BD1C00002077
:1004C00010B54FF6207000F011F806480068401C87
:1004D00004490860084604490268142000F05EF8E8
:1004E00010BD000000000020040000203EB50446BE
:1004F0002146002000F038FC4FF6FF700022CDE9C5
:100500000020BD239522AC210290A62000F000FF20
:100510004FF6FF700022CDE90020AC23A622BD21BA
:100520000290952000F0F4FE3EBD000010B5074893
:1005300090F8C80348B90548B0F8AE0347F26951CE
:10054000884202D00846FFF7D1FF10BD1C000020F2
:1005500070B505460C465CB94DF2DA61284600F0EC
:1005600095FF094B002209A1284600F0E5FF0AE0AB
:100570004FF62071284600F089FF034B002205A1A9
:10058000284600F0D9FF70BDE02C0008CED5CBC0C6
:10059000C62E0000CDC0C3D0C5C2000070B5054650
:1005A0000E4614463146204600F034FF034B00222D
:1005B0003146284600F0C0FF70BD0000E02C000866
:1005C00010B5FFF7B3FFFFF769FF10BD08B54BF695
:1005D000D75001F0EAF92548002325A24FF4937182
:1005E00000905F2001F0FAFB2048002322A24FF484
:1005F0008B710090072001F0F1FB1C48002325A21D
:1006000040F205110090272001F0E8FB264B42F252
:1006100039326421132001F05CF9144842F2393375
:1006200022A24F210090402001F0D8FB0F4842F257
:10063000393322A23B210090182001F0CFFB254B3B
:1006400000220421602001F044F9234B42F2B05211
:100650000C215C2001F03DF9044800231FA2042175
:100660000090C72001F0BAFB08BD000080260008FA
:10067000CACAC2CC2D313000CAF0E8EEE3E5EDED98
:10068000FBE920F2E5F0ECEEEAEEEDF2F0EEEBEB5A
:10069000E5F00000E2EEE4EEF0EEE4EDEEE920EC51
:1006A000E8F8E5EDE8000000403A00084A4F494EFE
:1006B0005420494E5354495455544500464F5220F6
:1006C0004E55434C454152205245534541524348B3
:1006D00000000000543B0008143C000876312E3026
:1006E0000000000000B58BB000F0C0FFFE4800F035
:1006F000B7FF4BF6D75001F058F900204FF6FF71C5
:10070000CDE9000140F23F130246EF21029000F0D4
:10071000FFFD002003211922F44BCDE90532CDE97C
:1007200007104FF6FF70F2A100220192CDE90221DD
:100730000490022040F23F134FF48F72EF2100909B
:10074000002000F029FD00200622E84BCDE906201C
:10075000ECA1059308904FF6FF73CDE90130CDE988
:10076000031040F21D134FF481726321009000F0DA
:1007700013FD00200522DD4BCDE90620E3A1059302
:1007800008904FF6AE53CDE90130CDE9031040F2A9
:100790000113E6224F21009000F0FEFC002005220C
:1007A000D24BCDE90620DAA1059308904FF6FF73EE
:1007B000CDE90130CDE90310E523CA224F21009095
:1007C00000F0EAFC00200522C84BCDE90620D1A1AB
:1007D000059308904FF6AE53CDE90130CDE90310F3
:1007E000C923AE224F21009000F0D6FC0020052244
:1007F000BE4BCDE90620C8A1059308904FF6FF73C4
:10080000CDE90130CDE90310AD2392224F210090B4
:1008100000F0C2FC00200522B44BCDE90620BFA1A8
:10082000059308904FF6AE53CDE90130CDE90310A2
:10083000912376224F21009000F0AEFC002005228B
:10084000AA4BCDE90620B6A1059308904FF6FF7399
:10085000CDE90130CDE9031075235A224F210090D4
:1008600000F09AFC00200522A04BCDE90620ADA1A6
:10087000059308904FF6AE53CDE90130CDE9031052
:1008800059233E224F21009000F086FC00200522D3
:10089000964BCDE90620A4A1059308904FF6FF736F
:1008A000CDE90130CDE903103D2322224F210090F4
:1008B00000F072FC002005228C4BCDE906209BA1A4
:1008C000059308904FF6FF73CDE90130CDE9031091
:1008D000F423DB229F210090772000F05DFC0020B4
:1008E0000522824BCDE9062092A1059308904FF690
:1008F000FF73CDE90130CDE903104FF48973F9227C
:100900009F210090772000F047FC00200522774BC4
:10091000CDE906200593089040F26A5000214FF679
:10092000AE53CDE90131CDE9031040F20113E622C7
:1009300000916321222000F02FFC002005226B4B48
:10094000CDE90620059308904FF6FF73CDE90130FD
:1009500003900490E523CA2263210090222000F036
:100960001BFC00200522614BCDE906200593089071
:100970004FF6AE53CDE9013003900490C923AE2267
:1009800063210090222000F007FC00200522574B35
:10099000CDE90620059308904FF6FF73CDE90130AD
:1009A00003900490AD23922263210090222000F056
:1009B000F3FB002005224D4BCDE90620059308905E
:1009C0004FF6AE53CDE90130039004909123762287
:1009D00063210090222000F0DFFB00200522434B22
:1009E000CDE90620059308904FF6FF73CDE901305D
:1009F0000390049075235A2263210090222000F076
:100A0000CBFB00200522394BCDE906200593089049
:100A10004FF6AE53CDE901300390049059233E22A6
:100A200063210090222000F0B7FB002005222F4B0D
:100A3000CDE90620059308904FF6FF73CDE901300C
:100A4000039004903D23222263210090104600F081
:100A5000A3FB00200522254BCDE9062037A10593F5
:100A600008904FF6FF73CDE90130CDE903100090F7
:100A70003348B0F8C0010A3080B2F423DB22D6211B
:100A80000A9000F089FB00200522184BCDE90620D2
:100A90000593089040F26A502AA100224FF6FF7396
:100AA000CDE901320092CDE903102548B0F8E80104
:100AB000401D80B24FF48973F922D6210A9000F0CC
:100AC0006BFB002002210A22084BCDE90532CDE95B
:100AD00007101DA14DF2DA63CDE90130CDE9031015
:100AE00002202123002233E0C1050008E02C000889
:100AF000CAF0E8EECAEEEDF2F0EEEBEBE5F020CD59
:100B000000000000C4E0F2F7E8EAE800D23100009B
:100B1000D2320000D2330000D2340000D2350000BF
:100B2000D2360000D2370000D2380000D220F3F1D4
:100B3000F23A0000D220E8E7EC3A00003000000072
:100B40001C00002031323300CED5CBC0C62E0000B1
:100B500063210090104600F01FFB3C4864210022F6
:100B60000792CDE908210A9039490392CDE9042181
:100B7000104647F2695106920122C223CDE90021B5
:100B800002909022DB21772000F00CFA314864219A
:100B900000220792CDE908210A902D490392CDE960
:100BA0000421104647F26951069201228123CDE9C2
:100BB000002102904F22DB21772000F0F3F9264834
:100BC000642100220A23CDE90732CDE9091014205F
:100BD0001F4922A3CDE90332CDE9051010464DF29D
:100BE000DA6101223123CDE9002102900022DB21CC
:100BF000772000F0D7F9164800901A48008E4FF67B
:100C0000FF7332224FF48E710A9001F057F847F2C9
:100C10006950FFF76BFC47F26950FFF72BFC00208F
:100C2000022140F21F130246CDE90010632100F0BB
:100C3000A9FB0020022140F23F130246CDE900103B
:100C4000EF2100F09FFB0BB000BD0000C1040008C5
:100C5000E02C000849040008D9030008C2DBCACB15
:100C6000000000001C00002010B500F0BBFB00F0ED
:100C7000EFFC3B480078002870D000246CE0384836
:100C8000418804EB440000EBC402364830F82200EF
:100C900081420BDB3248418804EB440000EBC40284
:100CA000304800EB82004088814200DD52E02C4851
:100CB000818804EB440000EBC4022A4800EB820068
:100CC000808881420BDB2648818804EB440000EBDE
:100CD000C402244800EB8200C088814200DD39E074
:100CE00004EB440000EBC4011E4800EB810090F8C7
:100CF000240058BB04EB440101EBC402194901EB89
:100D00008201886A804704EB440000EBC401154867
:100D100000EB8100008CC8B1012104EB440000EB22
:100D2000C402104800EB820080F8241004EB440059
:100D300000EBC4010B4800EB8100018C04EB440084
:100D400000EBC402074800EB8200C1840020044984
:100D5000087010BD601CC4B2032C90DB00BFF8E724
:100D60001C000020C0030020FEB504460D4604EB25
:100D7000440000EBC401324800EB8100458104EBE4
:100D8000440000EBC4012E4800EB8100828904EB93
:100D9000440000EBC4012A4800EB8100418904EBC8
:100DA000440000EBC403264800EB8300008904EBF9
:100DB000440606EBC407224E06EB87068DE80700C3
:100DC000F38804EB440606EBC4071D4E06EB8706CA
:100DD000B28804EB440606EBC407194E06EB8706FF
:100DE000718804EB440606EBC407154E36F827005D
:100DF00000F08EFA04EB440000EBC401304600EB37
:100E000081000069D0B104EB440000EBC4060C483B
:100E100000EB8600436904EB440000EBC40608487D
:100E200000EB8600028B04EB440000EBC406044890
:100E300000EB86000169204600F004F8FEBD0000CA
:100E4000C00300202DE9FE4304460D4616461F460A
:100E500004EB440000EBC401514800EB8100056144
:100E600004EB440000EBC4014D4800EB8100068315
:100E700004EB440000EBC401494800EB81004761EA
:100E8000002104EB440000EBC402454800EB820063
:100E90004089CDE9001004EB440C0CEBC408DFF8EA
:100EA00000C10CEB880C0291BCF8048004EB440CEC
:100EB0000CEBC409DFF8E8C00CEB890CBCF81CC0D3
:100EC000C4440CF1180C1FFA8CF304EB440C0CEB2B
:100ED000C408DFF8CCC00CEB880CBCF8048004EB31
:100EE000440C0CEBC409DFF8B8C00CEB890CBCF85F
:100EF0001CC0C4441FFA8CF204EB440C0CEBC40875
:100F0000DFF89CC03CF8288004EB440C0CEBC409CF
:100F1000DFF88CC00CEB890CBCF81AC0C4441FFA73
:100F20008CF004EB440C0CEBC408DFF874C00CEB41
:100F3000880CBCF8221000F0EBF975B304EB440206
:100F400002EBC403164A02EB83020097938804EB7A
:100F5000440202EBC40C124A02EB8C02928B9918E9
:100F600004EB440202EBC4030D4A32F8233004EBD5
:100F7000440202EBC40C0A4A02EB8C02528B981812
:100F800033462A4600F02AFF014604EB440000EBFA
:100F9000C402034800EB82004184BDE8FE830000E8
:100FA000C00300202DE9FE4F04460F461546984623
:100FB000DDF848B0DDE90C9A0F9E7548407A00EBE9
:100FC000400101EBC001734820F821407048407A8D
:100FD00000EB400101EBC0016E4800EB810047804F
:100FE0006B48407A00EB400101EBC001694800EB1F
:100FF000810085806648407A00EB400101EBC0012A
:10100000644800EB8100A0F806806148407A00EB5C
:10101000400101EBC0015F4800EB8100A0F808909F
:101020005B48407A00EB400101EBC001594800EBFE
:101030008100A0F80AA05648407A00EB400202EB7B
:10104000C002544800EB82000E9981815048407ADA
:1010500000EB400101EBC0014E4800EB810006614E
:101060004B48407A00EB400202EBC002494800EBDB
:101070008200109901834648407A00EB400202EB5F
:10108000C002444800EB8200119941614048407A17
:1010900000EB400101EBC0013E4800EB8100A0F8ED
:1010A0001AB03B48407A00EB400202EBC0023948DC
:1010B00000EB8200139981833548407A00EB4002AF
:1010C00002EBC002334800EB82001499817730486C
:1010D000407A00EB400202EBC0022E4800EB820097
:1010E0001599018400212A48407A00EB400202EB66
:1010F000C002284800EB820080F824102448407A7F
:1011000000EB400202EBC002224800EB8200C184E7
:101110001F48407A00EB400202EBC0021D4800EB82
:101120008200169981620E9843462A463946CDE9D7
:10113000009A0290204600F0EBF8AEB111980090B2
:10114000139AA91804EB0B003246109B00F046FEE0
:1011500001460F48407A00EB400202EBC0020D4806
:1011600000EB820041840AE000210948407A00EB4C
:10117000400202EBC002074800EB820041840448B1
:10118000407A401CC1B202484172BDE8FE8F0000A7
:101190001C000020C00300202DE9FE4F04460F462E
:1011A00015469846DDF848B0DDE90C9A0F9E574881
:1011B000007A00EB800155480C3020F831400C38A3
:1011C000007A00EB800151480C3000EBC1004780F1
:1011D0004E48007A00EB80014C480C3000EBC10017
:1011E00085804A48007A00EB800148480C3000EBCB
:1011F000C100A0F806804548007A00EB8001434812
:101200000C3000EBC100A0F808904048007A00EBD9
:1012100080013E480C3000EBC100A0F80AA03B481A
:10122000007A00EB800239480C3000EBC2000E99C6
:1012300081813648007A00EB800134480C3000EBA5
:10124000C10006613148007A00EB80022F480C3063
:1012500000EBC200109901832C48007A00EB800259
:101260002A480C3000EBC200119941612748007AEE
:1012700000EB800125480C3000EBC100A0F81AB04B
:101280002248007A00EB800220480C3000EBC200BC
:10129000139981831D48007A00EB80021B480C30B3
:1012A00000EBC200149901620E9843462A46394663
:1012B000CDE9009A0290204600F02AF8A6B11198D4
:1012C0000090139AA91804EB0B003246109B00F013
:1012D00085FD01460D48007A00EB80020B480C307A
:1012E00000EBC200818409E000210848007A00EB8D
:1012F000800206480C3000EBC20081840348007A6B
:10130000401C02490872BDE8FE8F00001C0000204E
:101310002DE9F84F06460F4690469946DDE90BA5A4
:101320000A9C4B46424639463046CDF800A000F0B4
:101330008DFA002C24DD601E304481B24B464246BB
:101340003046009500F082FA601EA9EB000082B2E0
:101350004B4639463046009500F078FA611E791AFE
:1013600088B24B4642463946009500F06FFA601E3F
:10137000404483B2424639463046009500F066FA52
:10138000BDE8F88F2DE9F84306460F46904699468A
:10139000DDE90845601E304481B24B464246304686
:1013A000009500F053FA601EA9EB000082B24B4694
:1013B00039463046009500F049FA611E791A88B224
:1013C0004B4642463946009500F040FA601E4044C4
:1013D00083B2424639463046009500F037FABDE800
:1013E000F883000010B5FEF743FF0849087008466F
:1013F000007850B10648FEF745FF054800880349CC
:101400004880034841880148818010BD1C000020AD
:1014100012000020F0B50022002428B930230B7000
:10142000491C00230B70F0BD002802DA2D230B703D
:10143000491C10E00A2390FBF3F503FB150330333E
:101440000B700A2390FBF3F313B1491C531CDAB25F
:101450000A2390FBF3F00028ECD1891A002309E05D
:10146000CC5C8D18ED1A2D78CD548D18ED1A2C709A
:101470005D1CEBB202EBD276012707EB66069E42BB
:10148000EEDC00238D186B7000BFCCE7FEB5044680
:101490000D4604EB8401274800EBC100458104EBB5
:1014A0008401244800EBC100818904EB84022148B7
:1014B00000EBC200428904EB84031E4800EBC3002A
:1014C000008904EB84071B4E06EBC706CDE901211A
:1014D0000090F38804EB8407164E06EBC706B2882B
:1014E00004EB8407134E06EBC706718804EB8407F0
:1014F000104E36F83700FFF70BFF04EB840130463F
:1015000000EBC1000069A0B104EB8406094800EBC0
:10151000C60004EB84064369064800EBC600028B54
:1015200004EB8406034800EBC6000169204600F086
:1015300003F8FEBD280000202DE9FE4304460D46B9
:1015400016461F4604EB8401404800EBC1000561CC
:1015500004EB84013D4800EBC100068304EB8401E9
:101560003A4800EBC1004761002104EB8402374890
:1015700000EBC2004089CDE9001004EB8408DFF8DD
:10158000CCC00CEBC80C0291BCF8048004EB8409BD
:10159000DFF8B8C00CEBC90CBCF81CC0C4440CF19B
:1015A000180C1FFA8CF304EB8408DFF8A0C00CEBD6
:1015B000C80CBCF8048004EB8409DFF890C00CEB85
:1015C000C90CBCF81CC0C4441FFA8CF204EB84089C
:1015D000DFF878C03CF8388004EB84090CEBC90CC8
:1015E000BCF81AC0C4441FFA8CF004EB8408DFF87E
:1015F0005CC00CEBC80CBCF82410FFF789FE1DB3CF
:1016000004EB8403114A02EBC3020097938804EBB6
:10161000840C0E4A02EBCC02928B991804EB8403E3
:101620000A4A32F8333004EB840C02EBCC02528BC2
:10163000981833462A4600F0D1FB014604EB840299
:10164000024800EBC2008184BDE8FE832800002030
:1016500010B50249D1F82804804710BD1C000020B5
:101660000149C1F8280470471C00002000200349EC
:101670000872002101484172817270471C000020ED
:1016800000B500F00DF800F09FF89F2003490860B6
:10169000002048608020886000BD000000000540F8
:1016A0001948406820F003001749486008468068E0
:1016B00020F00F0088600846806840F00A008860CB
:1016C0000846C06840F00300C8600846006920F082
:1016D000030008610846006920F4403008610846AC
:1016E000406920F0030048610846406920F440301A
:1016F00048610846806940F00F0088610846C0696B
:1017000000F00300C861704700800B4070B50C46C4
:1017100000BF2C49096901F040010029F9D190214D
:10172000284DA961410069611021A96100BF2549C7
:10173000096901F002010029F9D122494C61102107
:10174000204DA96100BF1F49096901F0020100296C
:10175000F9D190211B4DA961012101EB4001696183
:101760001021A96100BF1749096901F00201002990
:10177000F9D100BF0EE02025124EB56100BF114D1A
:101780002D6905F00205002DF9D10E4DED685D546F
:101790004D1CE9B2551E8D42EDDC2821094DA96191
:1017A00000BF0849096901F002010029F9D1054982
:1017B000C968CDB2511E5D544021024DA96100217E
:1017C000A96170BD00000540002004490860486020
:1017D0008860C86008614861886170470000054002
:1017E00010B500BF184B1B6903F04003002BF9D163
:1017F0009023154CA361430063611023A36100BFD4
:10180000114B1B6903F00203002BF9D10E4B5961F8
:1018100010230D4CA36100BF0B4B1B6903F00203A7
:10182000002BF9D1084B5A611023074CA36100BF6C
:10183000054B1B6903F00203002BF9D14023024C36
:10184000A3610023A36110BD000005402DE9FC5FEA
:1018500006460F4614469846DDF83090019440F253
:101860003F10A0EB080084B240F23F110198081A23
:101870001FFA80F800254FF0000A0096A34600BF2B
:1018800021E00BEB0500401C83B20BEB050081B29D
:101890003A46009800F0FCFA2C2000F0C1FA4FF014
:1018A000000A0BE04FEA292000F0D6FA09F0FF0009
:1018B00000F0D2FA0AF101001FFA80FAB81B504575
:1018C000F0DA681C85B2A8EB0400A842D9DABDE8BA
:1018D000FC9F2DE9FF5F074689461C464FF0000A32
:1018E000D34621684888C11700EB5171C910A0EB9D
:1018F000C10149B121684888C11700EB5171C91075
:10190000491C01F0FF0B06E021684888C11700EB75
:101910005171C1F3C70B4FF0000828E04FF0000AE7
:101920005D461DE0002613E0D4E9001009880AFB9B
:101930000181405C0121B140084038B109EBC5028A
:10194000921B91B2B8B2029A00F017F8701CC6B29E
:10195000082EE9DB0AF1010000F0FF0A681EC5B29B
:10196000002DDFDC7F1C08F1010000F0FF0820687B
:1019700000884045D2DCBDE8FF9F70B506460C46A6
:10198000154640F23F10001B84B2234632462146E2
:10199000304600F07DFA2C2000F042FA281200F0C8
:1019A0005BFAE8B200F058FA70BD2DE9F041044648
:1019B0002612E7B240F23F13EF220021084600F062
:1019C00067FA2C2000F02CFA002506E0B0B200F0F7
:1019D00043FAB8B200F040FA6D1CB5F5963FF5D366
:1019E000BDE8F08110B500F039F99948006840F081
:1019F0000800974908609748006840F080009549C2
:101A00000860012000F00CFA642000F021FCCB20DB
:101A100000F006FA392000F01FFA2C2000F01CFA22
:101A2000002000F019FA342000F016FA022000F02D
:101A300013FACF2000F0F4F9002000F00DFAC120D5
:101A400000F00AFA302000F007FAE82000F0E8F988
:101A5000852000F001FA002000F0FEF9782000F067
:101A6000FBF9EA2000F0DCF9002000F0F5F9002095
:101A700000F0F2F9ED2000F0D3F9642000F0ECF969
:101A8000032000F0E9F9122000F0E6F9812000F0CF
:101A9000E3F9F72000F0C4F9202000F0DDF9C020C0
:101AA00000F0BEF9232000F0D7F9C12000F0B8F90A
:101AB000102000F0D1F9C52000F0B2F93E2000F06E
:101AC000CBF9282000F0C8F9C72000F0A9F986203A
:101AD00000F0C2F9362000F0A3F9482000F0BCF96C
:101AE0003A2000F09DF9552000F0B6F9B12000F041
:101AF00097F9002000F0B0F9182000F0ADF9B620F9
:101B000000F08EF9082000F0A7F9822000F0A4F977
:101B1000272000F0A1F9F22000F082F9002000F067
:101B20009BF92A2000F07CF9002000F095F90020B4
:101B300000F092F9002000F08FF9EF2000F08CF90E
:101B40002B2000F06DF9002000F086F9002000F055
:101B500083F9012000F080F93F2000F07DF9262074
:101B600000F05EF9012000F077F9E02000F058F96C
:101B70000F2000F071F9312000F06EF92B2000F0F9
:101B80006BF90C2000F068F90E2000F065F90820D0
:101B900000F062F94E2000F05FF9F12000F05CF9EE
:101BA000372000F059F9072000F056F9102000F016
:101BB00053F9032000F050F90E2000F04DF90920F0
:101BC00000F04AF9002000F047F9E12000F028F980
:101BD000002000F041F90E2000F03EF9142000F042
:101BE0003BF9032000F038F9112000F035F9072007
:101BF00000F032F9312000F02FF9C12000F02CF96B
:101C0000482000F029F9082000F026F90F2000F004
:101C100023F90C2000F020F9312000F01DF93620C6
:101C200000F01AF90F2000F017F9112000F0F8F871
:101C3000642000F00DFB292000F0F2F82C2000F0C9
:101C4000EFF80548006840F080000349086010BDC7
:101C500000000C4000800C4000800A40154840689D
:101C600040F0C000134948600846C06840F0C0001A
:101C7000C8600846806820F4704088600846806923
:101C800040F4704088610C48406840F080000A4988
:101C900048600846C06840F08000C8600846806818
:101CA00020F4404088600846806940F440408861E4
:101CB0007047000000800A4000800C402DE9FF4F73
:101CC00085B007461546129C0020049003900290B0
:101CD000824601902088A8427EDC6088A8427BDB97
:101CE000002676E0A06830F83600A8426FDCA068D5
:101CF00000EBC6004088A84269DBA06830F836A037
:101D0000A06800EBC6004068A5EB0A0101EB4101A9
:101D100030F811000390A06800EBC6004068A5EB06
:101D20000A0101EB410100EB4100408802904FF0B5
:101D3000000B43E000200490029800F0FF0835E01B
:101D4000A06800EBC6004068A5EB0A0101EB410169
:101D500000EB4100808800EB0B02DDE9031000FB83
:101D600001202169085C01904FF0000913E0012077
:101D700000FA09F00199084048B1069A02EBC8023E
:101D8000A2EB090291B2B8B2089AFFF7F6FD09F189
:101D9000010000F0FF09B9F1080FE8DB0498401CCE
:101DA000C0B20490A8F1010000F0FF08B8F1000FE4
:101DB000C6DC7F1C0BF1010000F0FF0B039883458C
:101DC000B8DBB8B209B0BDE8F08F05E0FFE7701CE2
:101DD00086B2A089B04285DCB8B2F3E72DE9F843BA
:101DE00005460F4614469846DDF82090002611E07F
:101DF00014F8016B202E00D1AD1D43463246394602
:101E00002846CDF80090FFF759FF054614B1202E63
:101E100000D06D1C20780028EAD1A8B2BDE8F88374
:101E200010B504460A48006820F0400008490860E0
:101E30000848006820F0080006490860204600F0C5
:101E4000CFF80448006840F008000249086010BD5F
:101E500000800A4000000C4010B504460A480068A3
:101E600040F04000084908600848006820F0080079
:101E700006490860204600F0B3F80448006840F0C6
:101E800008000249086010BD00800A4000000C40B4
:101E90002DE9F04104460D4616461F462A20FFF75D
:101EA000BFFF2012FFF7D8FFE0B2FFF7D5FF3012D7
:101EB000FFF7D2FFF0B2FFF7CFFF2B20FFF7B0FF05
:101EC0002812FFF7C9FFE8B2FFF7C6FF3812FFF785
:101ED000C3FFF8B2FFF7C0FFBDE8F08110B500BF47
:101EE0001948C06B00F400000028F9D01748C068FA
:101EF0001649C8600846806840F00100886000BF4D
:101F00001248006800F004000028F9D00F48C068AB
:101F100040F002000D49C8600846406840F2047174
:101F200008430A49486000BF0848006800F0020002
:101F30000028F9D00548C06840F482700349C860A1
:101F400000F062F810BD000000800D40000002406B
:101F500000B500F013F80748C06A40F0007005496A
:101F6000C86200F033F80720034908600220486087
:101F7000086100BD0000024000000A4012484068AD
:101F800020F00400104948600846406840F06800AE
:101F900048600846C06840F06C00C8600846806829
:101FA00043F6F0418843084988600846806842F655
:101FB00020010843044988600846806943F6F041DF
:101FC000084301498861704700000C400020034924
:101FD00008604860086148614862704700000A4034
:101FE0000849886000BF0749C96801F0100100294D
:101FF000F9D100BF0349C96801F001010029F9D0F6
:102000007047000000000A4030B5204CE46804F03E
:102010000204022C01D11E4800E01D481B4CE4685C
:1020200004F0010404B140080146184CE46804F0CF
:102030000404042C05D1154C6468C4F30324631C08
:102040005943124CE468C4F3012424B1012C06D096
:10205000022C13D10DE00E4C0E4D2C6013E00B4CF6
:10206000E468C4F30314641CB1FBF4F2094C22606D
:1020700009E04FF40044074D2C6004E049F6404469
:10208000044D2C6000BF00BF30BD000000000240C6
:1020900000127A001800002000B50D480D49C861F3
:1020A0000846C0680020C8600846406800204860B4
:1020B00008468068002088600846006900200861A2
:1020C0000846406900204861FFF79EFF00BD000000
:1020D000100000080000024010B5002028E000EBCE
:1020E000400101EBC002174901EB8201C98C0029B4
:1020F00012DD00EB400101EBC002124901EB82014D
:10210000C98C491E8AB200EB400101EBC0030D49A6
:1021100001EB8301CA8409E0002200EB400101EBDE
:10212000C003084901EB830181F82420411CC8B297
:102130000328D4DB00200449086048650E2000F025
:1021400067F810BDC00300200000074010B50B4821
:10215000406A0B4908430949486201200949C8609F
:1021600049F63F4048600120886000200860022056
:1021700088650E2000F05AF862B610BD00000240DB
:10218000010000010000074010B50120044908705B
:1021900000200449086048650F2000F039F810BDA0
:1021A000100000200080074010B50848006820B1EA
:1021B00006480068401E0549086000200449086080
:1021C0004865102000F024F810BD00000C0000202D
:1021D0000000084010B50B48406A0B490843094904
:1021E000486200200949C8602720486001208860B3
:1021F0000020086002208865102000F017F862B601
:1022000010BD000000000240000001040000084072
:10221000002807DB00F01F0201219140024A430918
:1022200042F823107047000080E200E000280DDB38
:1022300000BF00BF00F01F0201219140420992003F
:1022400002F1E022C2F8001100BF00BF7047000099
:102250000121074AD1604FF47A714143054A116068
:1022600000BF044909680029FBD1014AD1607047C9
:10227000000008400C000020FDF7CDFFFFF7AAFF8B
:10228000FFF766FEFFF7FCF9FFF7ACFBFEF722F85D
:102290004BF6D750FFF789FBFFF758FFFEF796F98B
:1022A00041F28830FFF7D4FFFEF71CFA04E0FEF796
:1022B000DBFC0A20FFF7CCFFF9E70000000000007C
:1022C0000101010100001818F8FC06020206FCF8E2
:1022D000070F181010180F07080C06FEFE0000006C
:1022E0001010101F1F1010100000C0F83E063EF81E
:1022F000C00000181F070202020202071F18F0FCAC
:102300000C060202020204030F0C18101010100831
:10231000FEFE42424242021F1F1010101010FEFE2D
:1023200042424242421F1F0000000000FEFE4040A9
:1023300040404040FEFE1F1F0000000000001F1F25
:10234000FEFE1F1F000000FEFE0810101F0FFEFE05
:1023500000000000001F1F1010101010FEFE063CB1
:10236000F0C00000FEFE1F1F000000030F181F1F1B
:10237000F0FC0C06020202060CFCF0030F0C181015
:102380001010180C0F03FEFE828282C67C38001FDC
:102390001F000000030F1C10387C66C2C2860408B0
:1023A000181010190F07020202FEFE0202020000BE
:1023B000001F1F000000FEFE000000000000FEFEE7
:1023C000070F1810101010180F0730F0C000000091
:1023D000C0F0300001071E181E070100FEFE424239
:1023E00042FE9C001F1F101010180F07FEFE4040F9
:1023F000E0B81E061F1F000000071F18FEFE0E7C1F
:10240000E0000000E03C0EFEFE1F1F0000010F1860
:102410000F0100001F1FF0F0101010F0E01F1F113F
:1024200011111F0EF0F01010101F1F00000000000F
:10243000F0F0101010F0F000F01E17101010101F28
:102440001FF0C0E0301010F0E0070F191111110952
:10245000F0F00080E0F0F01F1F0E03001F1FF0F3EC
:102460000784E4F7F31F1F0E03001F1FF0F00000A6
:10247000C0F0301F1F0101061E18000000F01010F0
:10248000F0F010180F0100001F1FF0F0F0C0000066
:1024900000C0F0F0F01F1F00031F180F03001F1FE4
:1024A000F0F0000000F0F01F1F0101011F1FC0E04D
:1024B00030101030E0C0070F181010180F07F0F0A0
:1024C00020101030E0C0FFFF081010180F07101088
:1024D00010F0F01010100000001F1F000000F0F0BE
:1024E000000000F0F0000000F0F01F1F1010101F9F
:1024F0001F1010101F1FF0F0808080800000F0F08F
:102500001F1F1010100F0F001F1F040002000000FB
:10251000020002000800080002000C00080002008F
:102520001C000B0002002C00090002004200070002
:10253000020054000700020062000A00020070005E
:10254000020002008400050002008800070002006B
:1025500092000A000200A0000B000200B400090073
:102560000200CA0007000200DC0008000200EA00C6
:102570000A000200FA00090002000E010800020031
:1025800020010800020030010D0002004001070098
:1025900002005A010500020068010A0002007201EF
:1025A00007000200860107000200940107000200F4
:1025B000A20107000200B00108000200BE010B00EA
:1025C0000200CE0107000200E40108000200F2014F
:1025D0000800020002020800020012020C000200C1
:1025E00022020A0002003A022D002E000A250008ED
:1025F0003000310016250008410041002225000866
:102600004300430028250008450046002E25000809
:1026100048004A003A2500084C004C004C250008B0
:102620004E004F0052250008520055005E2500085C
:102630007600760076250008C200C2007C250008DE
:10264000CA00CA0082250008CC00CC0088250008FA
:10265000E200E5008E250008E800EE00A62500084F
:10266000F000F000D0250008F200F200D6250008A6
:10267000F800F800DC250008FB00FB00E22500085C
:102680002D00FB0002000000E825000813000000F8
:10269000BC22000800000000808080800707070738
:1026A000F8FEFFFF0707FFFEFEF8FFFFFFFF000039
:1026B000FFFFFFFF000307070707070703011818BD
:1026C0001CFCFEFFFF000000FFFFFFFF00000007F3
:1026D0000707077C7E7F0787FFFFFEFC00C0F0FE38
:1026E000FF3F0F03000707070707070707073C3EE1
:1026F0003FBF8787FFFFFE7CF8F8F8FB0303FFFF6F
:10270000FEFE010307070707070703010000E0FCBF
:10271000FF1FFFFFFFFF00F8FFFFF7F0F0FFFFFFD5
:10272000FFF00000000000000707070700FFFFFFA1
:10273000FFC7E7E7E7C787F3F3F3F30000FFFFFF07
:10274000FF01030707070707070301F8FEFFFF87DD
:10275000C7DFDF9E1CFFFFFFFF0101FFFFFFFF0040
:1027600003070707070707030107070707FFFFFF1F
:102770003F0000F0FFFFFF0700000607070700000B
:10278000007CFEFFFF8787FFFFFE7CFCFEFFFF0350
:1027900003FFFFFEFC01030707070707070301FC10
:1027A000FEFFFF0707FFFFFEFCC7CFDFDF1C0CFFAC
:1027B000FFFFFF010307070707070303008080806F
:1027C00080878787870707070700C0FFFFFF07FF8E
:1027D000FFFFC00080FFFFFFE3E0E3FFFFFF800794
:1027E00007070700000007070707FFFFFFFFC7C72E
:1027F000FFFF7E7CFFFFFFFF0303FFFFFFFE0707D6
:102800000707070707070701FFFFFFFF0F0F0F0F5E
:10281000FFFFFFFF000000000707070700000000A0
:10282000000000FFFFFFFF0F0F0FFFFFFFFF008003
:10283000E0FFFFFFBF83808080FFFFFFFF803F3FFF
:102840003F3F070707070707073F3F3F3FFFFFFFE0
:10285000FF8F8F8F00FFFFFFFF87878780070707A6
:10286000070707070701FFFFFFFF0000FFFFFFFF4C
:102870000000FFFFFFFF0100F8FDFDFF0707FFFF5E
:10288000FFFF0707FFFDFDF800040707070700002B
:102890000707070700000707070704FFFFFFFF0000
:1028A00000FEFFFFFF01FFFFFFFF0707FFFDFDF831
:1028B00000070707070000030707070400FFFFFFE3
:1028C000FF0F0F0FFFFFFFFF00FFFFFFFF000000E4
:1028D000FFFFFFFF070707070100000007070707C3
:1028E000FFFFFFFF8080FFFFFFFFFFFFFFFF0707E6
:1028F000FFFFFFFF07070707000007070707F8FEAE
:10290000FEFF0707FFFEFEF8FFFFFFFF0000FFFFCF
:10291000FFFF00030307070707030300FFFFFFFF95
:102920000707FFFFFEFCFFFFFFFF07070707030383
:10293000070707070000000000000F0F0FFFFFFF51
:10294000FF0F0F0F000000FFFFFFFF00000000005F
:102950000007070707000000073FFFFFF8C0F8FF68
:10296000FF3F0780F0FFFF7F077FFFFFF080070733
:10297000070700000007070707FFFFFFFF808080B1
:10298000808000000000FFFFFFFFFFFFFFFF030349
:1029900003FFFFFFFE0000FFFFFFFF07070707071A
:1029A000070707070703000007070707E0F0F838E5
:1029B0003838F8F8F0E0F1F9FD0C0E06FFFFFFFFE4
:1029C00003070707070307070707E0F0F8F8383899
:1029D000F8F0F0C0FFFFFFFF0707F7F7F7F7010375
:1029E0000307070707070300E0F0F8F83838F8F89E
:1029F000F0E0E1E1E1E10C0CFFFFFFF30103070769
:102A0000070707070301F8F8F8F80000F0F8F8F8EE
:102A1000F8FFFFFFFFF03F03FFFFFFFF0707070778
:102A200003000007070707F8F8F8F80000F8F8F8BF
:102A3000F808FFFFFFFF0E0EFFFBFBF10007070783
:102A400007000003070707040000F8F8F8F8383813
:102A5000F8F8F8F80000FFFFFFFF0000FFFFFFFF9E
:102A6000070707070703000007070707F8F8F8F844
:102A7000F8F00000F8F8F8F8F8F8FFFFFFFF07FF9C
:102A8000FCFCFF07FFFFFFFF070707070001070721
:102A9000010007070707F8F8F8F8000000F8F8F851
:102AA000F8FFFFFFFF1E1E1EFFFFFFFF07070707C0
:102AB00000000007070707C0F0F8F83838F8F0F012
:102AC000E0FFFFFFFF0000FFFFFFFF010307070715
:102AD0000707070300F8F8F8F83038F8F8F8F0FFBF
:102AE000FFFFFF0000FFFFFFFF1F1F1F1F03070760
:102AF000070703E0F0F8F8383838F0F0E0FFFFFFA0
:102B0000FF000000F1F1F1000307070707070303C7
:102B100000383838F8F8F8F8383838000000FFFF87
:102B2000FFFF000000000000070707070000001873
:102B3000F8F8F8000000F8F8F81800033FFFFF80ED
:102B4000FFFFFF1F00001C1C1F1F1F1F0F0700009F
:102B5000F8F8F8F80000F8F8F8F83F7F7F7F703059
:102B6000FFFFFFFF00000000000007070707040049
:102B7000030000000A0003000C00070003002A0005
:102B8000090003003F000A0003005A000B00030085
:102B900078000A00030099000A000300B70008004B
:102BA0000300D5000A000300ED000A0003000B013A
:102BB0000400030029010B00030035010A00030093
:102BC00056010800030074010F0003008C01080087
:102BD0000300B90112000300D1010B00030007023A
:102BE0000C00030028020A0003004C020A00030044
:102BF0006A020A00030088020A000300A6020B0012
:102C00000300C40211000300E5020A0003001803D8
:102C10000A00030036030A00030054030B000300FC
:102C200072030B00030093030C000300B4030E00B7
:102C30000300D8030B00030002040A00030023046E
:102C40000A00030041040A0003005F040A000300B5
:102C50007D040B0003009B040A000300BC04000079
:102C60002E002E006E2B000830003A00742B000856
:102C7000C000C000B62B0008C200C600BC2B000874
:102C8000CA00CB00DA2B0008CD00CE00E62B0008EE
:102C9000D000D000F22B0008D200D200F82B0008A0
:102CA000D500D500FE2B0008DB00DB00042C00085B
:102CB000E000E0000A2C0008E500E500102C000808
:102CC000E700E800162C0008EA00EE00222C0008BD
:102CD000F000F300402C0008F700F700582C000823
:102CE0002E00F70002000000602C00081000000019
:102CF0009426000800000000000000000000000012
:102D000000000000000000000000000000000000C3
:102D100000000000000000000000000000000000B3
:102D20000000000000000000000000000000008023
:102D3000E0F0F8F8FC7E3E3E3E1F1F1F1F1F1F1EC7
:102D40001E1E3E3C3C7878F0F0E0E0C08080000041
:102D50000000000000000000000000000000000073
:102D60000000000000000000000000000000000063
:102D70000000000000000000000000000000000053
:102D80000000000000000000000000000000000043
:102D90000000000000000000000000000000000033
:102DA0000000000000000000000000000000000023
:102DB0000000000000000000000000000000000013
:102DC0000000000000000000000000000000000003
:102DD00000000000000000000000000000000000F3
:102DE00000000000000000000000000000000000E3
:102DF0000000000000F8FEFF3F0703010000000094
:102E000000000000000000000000000000000000C2
:102E10000001010307070F1E3C7878F0E0C0800036
:102E200000000000000000000000000000000000A2
:102E30000000000000000000000000000000000092
:102E40000000000000000000000000000000000082
:102E50000000000000000000000000000000000072
:102E60000000000000000000000000000000000062
:102E70000000000000000000000000000000000052
:102E80000000000000000000000000000000000042
:102E90000000000000000000000000000000000032
:102EA0000000000000000000000000000000000022
:102EB000000000000000000000000000FEFFFFFF17
:102EC0000000000000000000000000000000000002
:102ED00000000000000000000000000000000000F2
:102EE000000000000103070F1E3C70E0C0800000DE
:102EF00000000000000000000000000000000000D2
:102F000000000000000000000000000000000000C1
:102F100000000000000000000000000000000000B1
:102F200000000000000000000000000000000000A1
:102F30000000000000000000000000000000000091
:102F40000000000000000000000000000000000081
:102F50000000000000000000000000000000000071
:102F60000000000000000000000000000000000061
:102F70000000000000000000000000000000000051
:102F80000000000000FFFFFF000000000000000044
:102F90000000000000000000000000000000000031
:102FA0000000000000000000000000000000000021
:102FB0000000000103070F1E78F0E0800000000011
:102FC0000000000000000000000000000000000001
:102FD00000000000000000000000000000000000F1
:102FE0000000008080808080808080C0C0C0C0C021
:102FF000C0C0C0C0808080808080000000000000D1
:1030000000000000000000000000000000000000C0
:1030100000000000000000000000000000000000B0
:10302000000000008080C0C0C0E0E0E0E0E0E0E040
:10303000E0E0E0F0F0F0F0F0E0E0E0E0E0E0E0E040
:10304000E0E0E0E0E0C0C0C0C0C0C0C080809FFF42
:10305000FEC00000000000000000000000000000B2
:103060000000000000000000000000000000000060
:1030700000000000000000E0E00000000000000090
:10308000000001070F1E78F0C0800000808080C023
:10309000C0C0E0E0E0F0F07070787838383C3C1C5C
:1030A0001E1E1E1E0E0F0F0F0F0F07070707070725
:1030B00007070303030303030303030707070707C4
:1030C0000F0F0F1F3F3EFEFCFCF8F0E080000000F9
:1030D00000000000000000000000000000000000F0
:1030E000000000000000E0F8FCFEFF7F3F1F1F0F04
:1030F0000F07070703030303030303010101010192
:1031000001010101010101010101010101030303A9
:1031100003030303030303071FFFFFC707070E0E85
:103120000E0E0E1C1C1C1C183838383030706060B5
:1031300060E0C0C0C080808080008080C0C0FEFF92
:10314000FFFEC0E0E0E070703038381C1C1C0E0E32
:103150000F071F3FF7E38303010101010000000097
:10316000000000000000000000000000000000005F
:10317000000000000000000000000000000000004F
:10318000000000000000000000000000000000033C
:10319000FFFFFFFFFF7E00000000000000000000B6
:1031A00000000000000000000000000000001F7F81
:1031B000FFFF83000000000000000000000000008E
:1031C00000000000000000000000000000000000FF
:1031D00000000000000000000000000000000000EF
:1031E0000000073FFCE000000000000000000000BD
:1031F000000000808080C0C06060F0F0F0F97D3F8A
:10320000DF7F1FCFF73F0FFFFF0F3FF78F3F7FDFBE
:103210003E7CF8F0E0808080000000000001071F85
:103220003CF8E0800000000000000000000000000A
:10323000000000000000000000000000000000008E
:10324000000000000000000000000000000000007E
:10325000000000000080E0FCFF7F3F0F0300000043
:10326000000000000000000000000000000000005E
:10327000000000000000000003071F3CF0C08000B9
:10328000000000000000000000000000000000003E
:10329000000000000000000000000000000000002E
:1032A00000000000000000000000008081CFFFF857
:1032B000E0303018180C0C0606070303010100C0AB
:1032C000F8FFFF3F07E1FC0F0100FCFF010000FFDA
:1032D000FF000003FFF800011FFCC1077FFFFFF99B
:1032E0008103020206040C08081813373E7CF0C064
:1032F000C08080000000000000000000000000000E
:1033000000000000000000000000000000000000BD
:103310000000000000000080C0F0783C1F0F070391
:10332000010000000000000000000000000000009C
:10333000000000000000000000000000000000008D
:1033400000000000000103070C183060C08000007E
:10335000000000000000000000000000000000006D
:10336000000000008080C0C060603090988C8C8627
:10337000C6C3C3C1C14060616FFFF8602020202038
:10338000303030F8FCFC3C3FFFFF1F1E1EFF1F1EAD
:103390001EFEFF1E1EFEFE0F0FFEFE1E1FFFFE1E68
:1033A0001EFFFF1E1E1FFF3F3FFCFCFCF8303030AD
:1033B0002020202060E0E1677F7C79E1C3C3C6C69E
:1033C000848C88989030206060C0C08080000000AD
:1033D00000000000000080C0E06030381C0E0703D1
:1033E00001000000000000000000000000000000DC
:1033F00000000000000000000000000000000000CD
:1034000000000000000000000000000000000000BC
:103410000000000000010306CCD858F0E02030F096
:10342000F01018F8F8888C8CCCFEFEC7E7E3E3E3D5
:10343000FFF1F1F1F1F171787F7F7878383C3C3C15
:103440003C3F3F3C1C1E1E1E1E1E1E1F1F1F1E0E2D
:103450000F0F0E0F0F0F0F0F0F0F0F0F0F0F0F0F7D
:103460000F0F0F0F0F0F0F0F0F0F0F0F0F0E0F0E6E
:103470000E1F1F1F1F1E1E1E1E1E1E3C3C3F3F3CDC
:103480003C3C3C3878787F7F7871F1F1F1F1F3FFC3
:10349000E3E2E2C7C7FFFFCE8E8C8CFE1E1B11F14C
:1034A000F03060E0E040C0C000000000000000001C
:1034B000000000000000000000000000000000000C
:1034C00000000000000000000000000000000000FC
:1034D00000000000000000000000000080C060202C
:1034E000FFFFFCFF3F1E1E9F0F0F0FC7C7070707F9
:1034F000E3E3E3030101F1F1F1000000F8F8F80063
:103500000000FCFCFC000000FCFEFEFE000000FED3
:10351000FEFEFE000000FFFFFFFFFF0000FFFFFFB9
:10352000FFFF000000FFFFFFFFFFFF000000FFFFA5
:10353000FFFF000000FFFFFFFFFF000000FEFEFE98
:10354000FE000000FEFEFEFC0000FCFCFCFC000097
:1035500000F8F8F8000000F1F1F1010103E3E3E302
:10356000070707C7CF0F0F0F9F1E1E3FFFFCFFFF70
:1035700018383070E0C0C08000000000000000007B
:10358000000000000000000000000000000000003B
:103590000000000000000000000080C0603018083B
:1035A0000C06030101000000FFFFFFFF00FFFFFF0B
:1035B000000000FFFF000000FFFFFF000000FFFF12
:1035C000FF000000FFFFFF008080FFFFFF80808082
:1035D000FFFFFFFFC0C0C0FFFFFFFFC0C0C0FFFF75
:1035E000FFFFFFC0C0FFFFFFFFFFC0C0C0FFFFFF26
:1035F000FFFFFFC0C0C0FFFFFFFFC0C0C0FFFFFF55
:10360000FFFFC0C0C0FFFFFFFFC0C0C0FFFFFFFF44
:103610008080FFFFFFFF808000FFFFFF000000FFB2
:10362000FFFF000000FFFFFF000000FFFF000000A1
:10363000FFFF0000FFFFFFFF00000000000101038B
:10364000070F0E1C3870F0E0C08000000000000082
:103650000000000000000000000080C06030180C76
:103660000603010000000000000000008080C0C0D0
:10367000FFFFFFFFE0FFFFFF7878787F3F3C3C3C97
:103680003F1F1F1E1E1E1F0F0F0F0F0F0F0F0F07C5
:1036900007070707070707070703030303030303D6
:1036A00003030303030303030303030303030301EC
:1036B000010101E16161616161616161E10101013A
:1036C00001030303030303030303030303030303CC
:1036D0000303030303030307070707070707070796
:1036E000070F0F0F0F0F0F0F1F1F1E1E1E1F1F3F55
:1036F0003C3C3C3F7F787878FFFFF0E0FFFFFFFF26
:10370000C0C0808000000000000000000000000138
:1037100003071F3EFCF8E0C0800000000080E0F8D6
:103720001C07030000000000000000000000000073
:1037300000000000FFFFFFFF0301F101F0F00000B7
:10374000F0F80000787878000078787800007C7CC9
:103750007C7C00007C7C7C7C0000007E7E7E7E0089
:1037600000007E7E7E7E7E00000000007F7F7F0066
:10377000007F7F7F7F000000000000FF00B3B300E8
:1037800000B3B300FF0000000000007F7F7F7F00D8
:10379000007F7F7F00000000007E7E7E7E7E000036
:1037A000007E7E7E7E0000007C7C7C7C00007C7C39
:1037B0007C7C000078787800007878780000F8F059
:1037C0000000F00001F10103FFFFFFFF0000000017
:1037D00000000000000000000000000000010FFFDA
:1037E000FFFEF8C07CFFFFC10000000000000000E9
:1037F0000000000000000000000078787F7F7F7FDD
:103800007878787878787878787878787878787838
:103810007878787878787878787878787878787828
:10382000787878787878787878F8F8F8F8F8F87818
:103830007878787878787878787878787878787808
:103840007878787F787B7B78787B7B787F787878DE
:10385000787878787878787878787878F8F8F8F8E8
:10386000F8F8F8F8F8787878787878787878787858
:1038700078787878787878787878787878787878C8
:1038800078787878787878787878787878787878B8
:103890007F7F7F7F780000000000000000000000B4
:1038A0000000000080C0F0FFFFFF3F070003070F8C
:1038B0003E7C78F0E0C0C080800000000000000086
:1038C00000000000000000000000000000000000F8
:1038D000000000008080808080C0C0C0C0E0E0E0C8
:1038E000E0F07070703838381C1C1C0E0E0E070784
:1038F00003030301010000000000000000000000BD
:1039000000000000000000000000000000000000B7
:1039100000000000000000000000000000000000A7
:10392000000000000000000101010103030307077C
:1039300007060E0E0E0C1C1C1C1838383838307058
:1039400070707070E0E0E0E0E0E0E0C0C0C0C0C0D7
:10395000C0C0C0C0C0C0C0C0C0C0C0C0C0C0C0C067
:10396000E0E0E0E0F0F0F078783C3E1E1F0F070347
:10397000010000000000000000000000010103033E
:103980000707070F0F0F0E0E0E1E1E1E1E1E1E1EF9
:103990001E1E1E0E0E0F0F0F0F0F07070707070340
:1039A000030303010101000000000000000000000B
:1039B0000000000000000000000000000000000007
:1039C00000000000000000000000000000000000F7
:1039D00000000000000000000000000000000000E7
:1039E00000000000000000000000000000000000D7
:1039F00000000000000000000000000000000000C7
:103A000000000000000000000000000000000000B6
:103A1000000000000101010101010101010101019A
:103A2000010101010101010101010000000000008C
:103A3000000000000000000000000000C800850039
:103A40003C3A0008F42C00080000000000000000D0
:103A50000000000080C0E0F0783C1E0F0F1E3C7894
:103A6000F0E0C08000000000000000000000000046
:103A7000000000000000000000000000000002073D
:103A80000F1F3D78F0E0C080000000000001030738
:103A90000F1E3C78F0E0C080000000000000000035
:103AA00000000000000000103878F0E0C080000046
:103AB000000103070F1E3C78F0E0C080000000000A
:103AC000000103070F1E3C78F0E0C080183C78F03E
:103AD000E0C080000000000103070F1E3C78F0E00A
:103AE000C0800000000103070F1E3C78F0E0C0809A
:103AF0000000000000010301000000000103070FA7
:103B00001E3C78F0E0C080000000000101000000D1
:103B10000080C0E0F0783C1E0F07030100000000A9
:103B20000000000000000000000000000000000095
:103B30000103070F1E3C78F0F0783C1E0F070301CD
:103B40000000000000000000000000000000000075
:103B50002C003000503B0008483A000800000000EC
:103B60000000000080C0E0F07878F0E0C080000045
:103B700000000002070F1E3C78F0E0C0800000004B
:103B800000000000000000000080C0E0F0783C1E53
:103B90000F87C3C1800000000103070F1E3C78F0AF
:103BA000E0C080000000000103070F1E3C78F0E039
:103BB000C0800000000001030100000000000001BF
:103BC00003070F1E3C78F0E0C080000000010307EF
:103BD0000F1E3CF8F0E0C000000000000103070FDA
:103BE0001E1C080000000000000000000000000093
:103BF000000000000103070F1E3C78F0783C1E0F08
:103C000007030100000000000000000000000000A9
:103C10002D002000103C00085C3B00083C3C0008E4
:103C2000000000201C000000FC000008583C0008B8
:103C30001C0000208C0A0000180100080000000091
:103C40000000000000000000000000000000000074
:083C50000000000000127A00E0
:040000050800015D91
:00000001FF
