:020000040800F2
:10000000400A00205D010008650100086701000842
:10001000690100086B0100086D0100080000000084
:100020000000000000000000000000006F01000858
:10003000710100080000000073010008750100084C
:100040007701000877010008770100080000000030
:100050000000000077010008770100087701000820
:100060007701000800000000770100087701000810
:100070007701000800000000F51B0008951C00082F
:10008000B51C000877010008000000007701000897
:1000900077010008000000000000000000000000E0
:1000A00000000000000000000000000077010008D0
:1000B0007701000877010008650200087701000851
:1000C00000F002F800F03AF80AA090E8000C824430
:1000D0008344AAF10107DA4501D100F02FF8AFF20D
:1000E000090EBAE80F0013F0010F18BFFB1A43F016
:1000F00001031847C8230000E8230000103A24BF7A
:1001000078C878C1FAD8520724BF30C830C144BF7C
:1001100004680C60704700000023002400250026BE
:10012000103A28BF78C1FBD8520728BF30C148BF5A
:100130000B6070471FB51FBD10B510BD00F031F842
:100140001146FFF7F7FF01F019FE00F04FF803B476
:10015000FFF7F2FF03BC00F057F8000009488047A2
:1001600009480047FEE7FEE7FEE7FEE7FEE7FEE799
:10017000FEE7FEE7FEE7FEE704480549054A064BB1
:1001800070470000B51B0008C100000840040020B3
:10019000400A0020400600204006002070477047BB
:1001A0007047754600F02CF8AE4605006946534688
:1001B00020F00700854618B020B5FFF7DDFFBDE849
:1001C00020404FF000064FF000074FF000084FF0BE
:1001D000000B21F00701AC46ACE8C009ACE8C0094F
:1001E000ACE8C009ACE8C0098D46704710B50446BC
:1001F000AFF300802046BDE81040FFF7A8BF000025
:1002000000487047E003002001491820ABBEFEE71C
:1002100026000200704710B500F01CF801F0ECFB5E
:1002200000F002F810BD00000848006840F0180017
:10023000064908600648806B40F006000449886360
:100240000846806B40F030008863704700800140B2
:1002500000800D404FF0FF300149C8617047000039
:100260000000024001200149087070471000002082
:10027000002002490968C1F34010704700800A401D
:1002800038B50446002000906B4604220321382034
:1002900001F04EF89DF800004FF4706101EA002073
:1002A000208020889DF80110084320809DF80200DE
:1002B0004FF4706101EA0020608060889DF80310AF
:1002C00008436080608840F23F11081A608038BDA2
:1002D00010B500F021F800F04FF800221146382048
:1002E00001F090F880221146382001F08BF880222E
:1002F0008521382001F086F800228621382001F07F
:1003000081F80E228821382001F07CF80022A421F7
:10031000382001F077F810BD1548406840F0020021
:10032000134948600846C06840F00200C8600846AB
:10033000806820F00C0088600846806940F00C005E
:1003400088610C48406840F020000A49486008462F
:10035000C06840F02000C8600846806820F4406013
:1003600088600846806940F44060886170470000FA
:1003700000800C4000800A4010B51448006820F04E
:10038000020012490860052001F0E4FC0F480068F3
:1003900040F002000D4908604FF4AF7001F0DAFC44
:1003A0000B48006820F0200009490860012001F096
:1003B000D1FC0748006840F0200005490860084665
:1003C000406820F02000486010BD000000800C4014
:1003D00000800A4010B5154890F8B20390B9012189
:1003E000124880F8B21347F26951022000F0AEFBC8
:1003F00000220FA1022000F0F9FB0121162000F0DD
:1004000005FB11E00021094880F8B2134DF2DA61D2
:10041000022000F09BFB002206A1022000F0E6FB78
:100420000021162000F0F2FA10BD00001C00002090
:10043000C2CACB00C2DBCACB0000000010B54FF629
:10044000207000F011F806480068401E044908605A
:10045000084604490268142000F0FAFA10BD0000B2
:1004600000000020040000203EB504462146002084
:1004700000F06CFB4FF6FF700022CDE90020AD23A9
:10048000A922B8210290862000F08AFD3EBD00001E
:1004900010B54FF6207000F011F806480068401CB7
:1004A00004490860084604490268142000F0D0FAA4
:1004B00010BD000000000020040000203EB50446EE
:1004C0002146002000F042FB4FF6FF700022CDE9EC
:1004D00000204FF48873DE22A12102909D2000F0BD
:1004E0005FFD4FF6FF700022CDE90020F923F522D1
:1004F000B8210290862000F053FD3EBD00B58BB0C0
:1005000000F0C6FE00204FF6FF71CDE9000140F279
:100510003F130246EF21029000F042FD002004212B
:100520000822CDE90402CDE90610FEA000214FF615
:10053000FF720223CDE90032CDE9021040F23F13F1
:100540004FF48F72EF21002000F07AFC002002218E
:100550000622CDE90402CDE90610F9A000214FF6EC
:10056000FF72CDE9001240F21D134FF48172CDE904
:1005700002104F21002000F063FC00200522CDE98D
:10058000040206900790F0A000214FF6AE52CDE98C
:10059000001240F20113E622CDE902104F210020A3
:1005A00000F04EFC00200522CDE9040206900790E1
:1005B000E6A000214FF6FF72CDE90012E523CA2222
:1005C000CDE902104F21002000F03AFC0020052266
:1005D000CDE9040206900790DDA000214FF6AE524F
:1005E000CDE90012C923AE22CDE902104F2100202F
:1005F00000F026FC00200522CDE9040206900790B9
:10060000D4A000214FF6FF72CDE90012AD23922253
:10061000CDE902104F21002000F012FC002005223D
:10062000CDE9040206900790CBA000214FF6AE5210
:10063000CDE9001291237622CDE902104F2100204E
:1006400000F0FEFB00200522CDE904020690079091
:10065000C2A000214FF6FF72CDE9001275235A2285
:10066000CDE902104F21002000F0EAFB0020052216
:10067000CDE9040206900790B9A000214FF6AE52D2
:10068000CDE9001259233E22CDE902104F2100206E
:1006900000F0D6FB00200522CDE904020690079069
:1006A000B0A000214FF6FF72CDE900123D232222B7
:1006B000CDE902104F21002000F0C2FB00200522EE
:1006C000CDE9040206900790A7A000214FF6FF7223
:1006D000CDE9001286236822CDE9021095216D2014
:1006E00000F0AEFB00200522CDE904020690079041
:1006F0009FA000214FF6FF72CDE90012632347222D
:10070000CDE9021095216D2000F09AFB0020052212
:1007100040F26A53CDE905204FF6AE520790CDE97D
:1007200000020290CDE9030340F20113E6224F21BB
:100730001A2000F085FB00200522CDE90402069076
:100740004FF6FF720790CDE900020290E523CA221E
:100750004F2103901A2000F073FB00200522CDE901
:10076000040206904FF6AE520790CDE900020290C7
:10077000C923AE224F2103901A2000F061FB002014
:100780000522CDE9040206904FF6FF720790CDE9ED
:1007900000020290AD2392224F2103901A2000F014
:1007A0004FFB00200522CDE9040206904FF6AE5221
:1007B0000790CDE900020290912376224F21039009
:1007C0001A2000F03DFB00200522CDE9040206902E
:1007D0004FF6FF720790CDE90002029075235A226E
:1007E0004F2103901A2000F02BFB00200522CDE9B9
:1007F000040206904FF6AE520790CDE90002029037
:1008000059233E224F2103901A2000F019FB0020AB
:100810000522CDE9040206904FF6FF720790CDE95C
:10082000000202903D2322224F2103901A2000F063
:1008300007FB00200522CDE90402069007904EA098
:1008400000214FF6FF72CDE90012CDE902104B48AE
:10085000B0F89401C01D80B286236822D6210A9088
:1008600000F0EEFA0020052240F26A53CDE905209F
:100870000493079040A000214FF6FF72CDE90012CB
:10088000CDE902103D48B0F8B801401D80B26323A5
:100890004722D6210A9000F0D3FA00200522CDE9A4
:1008A00004020690079036A000214FF62072022322
:1008B000CDE90032CDE9021021230A464F21002064
:1008C00000F0BEFA3048642100220692CDE90721EB
:1008D0000292039204920592099047F26950012115
:1008E00040F21713D722CDE90010D621682000F07E
:1008F000DFF92648642100220692CDE90721029201
:10090000039204920592099047F269500121CB238A
:100910008B22CDE90010D621682000F0C9F91C48CF
:10092000642137E0CAF0E8EECAEEEDF2F0EEEBEB50
:10093000E5F020ECE8F8E5EDE820CD32000000001D
:10094000C4E0F2F7E8EAE800D2310000D232000059
:10095000D2330000D2340000D2350000D23600007D
:10096000D2370000D2380000D220F3F1F23A000072
:10097000D220E8E7EC3A0000300000001C00002024
:10098000CED5CBC0C62E0000910400083D0400085F
:10099000D503000800221223CDE90632CDE9081064
:1009A0001E20114617A20023CDE90232CDE9041022
:1009B0004DF2DA6001213F230022CDE90010D6215B
:1009C000682000F075F947F26950FFF777FD47F2AC
:1009D0006950FFF749FD0020022140F21F13024633
:1009E000CDE900104F2100F015FB0020022140F25C
:1009F0003F130246CDE90010EF2100F00BFB0BB0D6
:100A000000BD0000C2DBCACB0000000070B5054687
:100A10000C4654B94DF2DA61284600F07FFB002203
:100A200007A1284600F0CAFB09E047F269512846B1
:100A300000F074FB002204A1284600F0BFFB70BD4B
:100A4000CED5CBC0C62E0000CDC0C3D0C5C20000DD
:100A500070B505460E4614463146204600F022FB8E
:100A600000223146284600F0A9FB70BD10B500F009
:100A700001FB00F005FC33480078002860D000241A
:100A80005CE03048418804EB840200F5527030F895
:100A9000320081420ADB2B48418804EB840200F5D6
:100AA000527000EBC2004088814200DD44E02548DE
:100AB000818804EB840200F5527000EBC20080884C
:100AC00081420ADB1F48818804EB840200F55270E2
:100AD00000EBC200C088814200DD2DE004EB840100
:100AE000194800EBC10090F8200008BB04EB840219
:100AF000154901EBC201486A804704EB84011248A2
:100B000000EBC100808B98B1012104EB84020E48F8
:100B100000EBC20080F8201004EB84010A4800EBCF
:100B2000C100818B04EB8402074800EBC2004184C2
:100B300000200449087010BD601CC4B2032CA0DB67
:100B400000BFF8E71C00002064030020FEB5044647
:100B50000D4604EB8401244800EBC100458104EB01
:100B60008401214800EBC100818904EB84021E4806
:100B700000EBC200428904EB84031B4800EBC30076
:100B8000008904EB8407184E06EBC706CDE9012166
:100B90000090F38804EB8407134E06EBC706B28877
:100BA00004EB8407104E06EBC706718804EB84073C
:100BB0000D4E36F8370000F0F3F904EB84013046AF
:100BC00000EBC100006970B104EB8403304600EB18
:100BD000C300828A04EB8403304600EBC300016942
:100BE000204600F003F8FEBD640300202DE9FE431B
:100BF00004460D461646002104EB84022B4800EB08
:100C0000C2004089CDE9001004EB840C274F07EBAC
:100C1000CC070291B7F804C004EB8408234F07EB1C
:100C2000C8073F8B6744BAB204EB840C1F4F37F8F8
:100C30003CC004EB840807EBC807FF8A6744B8B2DE
:100C400004EB840C194F07EBCC07BF881837BBB2F5
:100C500004EB840C154F07EBCC07F98B00F0A0F9DF
:100C600015B304EB8403114A02EBC302938804EB2F
:100C700084070E4A02EBC702128B991804EB840317
:100C80000A4A32F8333004EB840702EBC702D28AF7
:100C9000981833462A4600F015FE014604EB8402FC
:100CA000024800EBC200C183BDE8FE83640300205C
:100CB0002DE9FE4F04460F4615469846DDF848B02C
:100CC000DDE90C9A0F9E5C48407A00EB80015B489E
:100CD00020F831405848407A00EB8001574800EB3B
:100CE000C10047805448407A00EB8001534800EB34
:100CF000C10085805048407A00EB80014F4800EBEE
:100D0000C100A0F806804C48407A00EB80014B48B7
:100D100000EBC100A0F808904748407A00EB800142
:100D2000464800EBC100A0F80AA04348407A00EB17
:100D30008002424800EBC2000E9981813E48407A11
:100D400000EB80013D4800EBC10006613A48407A63
:100D500000EB8002394800EBC200109981823648CE
:100D6000407A00EB8002354800EBC2001199C18245
:100D70003148407A00EB8001304800EBC100A0F818
:100D800018B02D48407A00EB80022C4800EBC200DE
:100D9000139981762848407A00EB8002274800EBBF
:100DA000C2001499818300212348407A00EB80021D
:100DB000224800EBC20080F820101F48407A00EB68
:100DC00080021E4800EBC20041841B48407A00EBC1
:100DD00080021A4800EBC200159941620E98434602
:100DE0002A463946CDE9009A0290204600F0D8F80C
:100DF0008EB105EB0B01119AA0183246109B00F042
:100E000061FD01460C48407A00EB80020B4800EB84
:100E1000C200C18308E000210748407A00EB80024D
:100E2000064800EBC200C1830348407A401CC1B2AF
:100E300001484172BDE8FE8F1C00002064030020C1
:100E40002DE9FE4F04460F4615469846DDF848B09A
:100E5000DDE90C9A0F9E5148007A00EBC0014F4823
:100E60000C3020F821400C38007A00EBC0014B48D0
:100E70000C3000EB810047804848007A00EBC0014D
:100E800046480C3000EB810085804448007A00EB36
:100E9000C00142480C3000EB8100A0F806803F48BA
:100EA000007A00EBC0013D480C3000EB8100A0F857
:100EB00008903A48007A00EBC00138480C3000EB4B
:100EC0008100A0F80AA03548007A00EBC002334840
:100ED0000C3000EB82000E9981813048007A00EBE3
:100EE000C0012E480C3000EB810006612B48007ACF
:100EF00000EBC00229480C3000EB8200109981827F
:100F00002648007A00EBC00224480C3000EB820037
:100F10001199C1822148007A00EBC0011F480C30B2
:100F200000EB8100A0F818B01C48007A00EBC0026A
:100F30001A480C3000EB82001399C1610E984346A9
:100F40002A463946CDE9009A0290204600F028F85A
:100F500096B105EB0B01119AA0183246109B00F0D8
:100F6000B1FC01460D48007A00EBC0020B480C3082
:100F700000EB8200018409E000210848007A00EBC0
:100F8000C00206480C3000EB820001840348007A5E
:100F9000401C02490872BDE8FE8F00001C000020C2
:100FA0002DE9F84F06460F4690469946DDE90BA518
:100FB0000A9C4B46424639463046CDF800A000F028
:100FC00057FA002C24DD601E304481B24B46424665
:100FD0003046009500F04CFA601EA9EB000082B28A
:100FE0004B4639463046009500F042FA611E791AA8
:100FF00088B24B4642463946009500F039FA601EE9
:10100000404483B2424639463046009500F030FAFB
:10101000BDE8F88F2DE9F84306460F4690469946FD
:10102000DDE90845601E304481B24B4642463046F9
:10103000009500F01DFA601EA9EB000082B24B463D
:1010400039463046009500F013FA611E791A88B2CD
:101050004B4642463946009500F00AFA601E40446D
:1010600083B2424639463046009500F001FABDE8A9
:10107000F883000010B5FFF7FBF808490870084630
:10108000007850B10648FFF7FBF80548008803498F
:101090004880034841880148818010BD1C00002021
:1010A00012000020F0B50022002428B930230B7074
:1010B000491C00230B70F0BD002802DA2D230B70B1
:1010C000491C10E00A2390FBF3F503FB15033033B2
:1010D0000B700A2390FBF3F313B1491C531CDAB2D3
:1010E0000A2390FBF3F00028ECD1891A002309E0D1
:1010F000CC5C8D18ED1A2D78CD548D18ED1A2C700E
:101100005D1CEBB202EBD276012707EB66069E422E
:10111000EEDC00238D186B7000BFCCE7FEB50446F3
:101120000D4604EBC401244800EB8100458104EB2B
:10113000C401214800EB8100818904EBC4021E48F0
:1011400000EB8200428904EBC4031B4800EB8300E0
:10115000008904EBC407184E06EB8706CDE9012190
:101160000090F38804EBC407134E06EB8706B288A1
:1011700004EBC407104E06EB8706718804EBC40726
:101180000D4E36F82700FFF70BFF04EBC401304685
:1011900000EB8100006970B104EBC403304600EB42
:1011A0008300828A04EBC403304600EB83000169AC
:1011B000204600F003F8FEBD280000202DE9FE4384
:1011C00004460D461646002104EBC4022B4800EBF2
:1011D00082004089CDE9001004EBC40C274F07EBD7
:1011E0008C070291B7F804C004EBC408234F07EB47
:1011F00088073F8B6744BAB204EBC40C1F4F37F823
:101200002CC004EBC40807EB8807FF8A6744B8B218
:1012100004EBC40C194F07EB8C07BF881837BBB21F
:1012200004EBC40C154F07EB8C07398CFFF7B8FEA5
:1012300015B304EBC403114A02EB8302938804EB59
:10124000C4070E4A02EB8702128B991804EBC40301
:101250000A4A32F8233004EBC40702EB8702D28A31
:10126000981833462A4600F02DFB014604EBC402D1
:10127000024800EB82000184BDE8FE8328000020C4
:1012800010B50249D1F8C003804710BD1C000020F2
:1012900000200349087200210148417281727047A1
:1012A0001C00002000B500F00DF800F09FF89F2012
:1012B00003490860002048608020886000BD00006D
:1012C000000005401948406820F0030017494860B5
:1012D0000846806820F00F0088600846806840F06B
:1012E0000A0088600846C06840F00300C8600846ED
:1012F000006920F0030008610846006920F44030CE
:1013000008610846406920F00300486108464069CA
:1013100020F4403048610846806940F00F00886141
:101320000846C06900F00300C861704700800B40A8
:1013300070B50C4600BF2C49096901F04001002935
:10134000F9D19021284DA961410069611021A9615D
:1013500000BF2549096901F002010029F9D122499C
:101360004C611021204DA96100BF1F49096901F09E
:1013700002010029F9D190211B4DA961012101EB46
:10138000400169611021A96100BF1749096901F095
:1013900002010029F9D100BF0EE02025124EB561EF
:1013A00000BF114D2D6905F00205002DF9D10E4D3C
:1013B000ED685D544D1CE9B2551E8D42EDDC2821CF
:1013C000094DA96100BF0849096901F0020100291E
:1013D000F9D10549C968CDB2511E5D544021024D75
:1013E000A9610021A96170BD0000054000200449E9
:1013F000086048608860C86008614861886170471B
:101400000000054010B500BF184B1B6903F04003F6
:10141000002BF9D19023154CA36143006361102385
:10142000A36100BF114B1B6903F00203002BF9D12C
:101430000E4B596110230D4CA36100BF0B4B1B6970
:1014400003F00203002BF9D1084B5A611023074C1B
:10145000A36100BF054B1B6903F00203002BF9D108
:101460004023024CA3610023A36110BD000005408E
:101470002DE9FC5F06460F4614469846DDF830908D
:10148000019440F23F10A0EB080084B240F23F11FB
:101490000198081A1FFA80F800254FF0000A0096FC
:1014A000A34600BF21E00BEB0500401C83B20BEB11
:1014B000050081B23A46009800F078FA2C2000F03E
:1014C0003DFA4FF0000A0BE04FEA292000F052FAF3
:1014D00009F0FF0000F04EFA0AF101001FFA80FA4D
:1014E000B81B5045F0DA681C85B2A8EB0400A8428E
:1014F000D9DABDE8FC9F70B506460C46154640F2A9
:101500003F10001B84B2234632462146304600F08D
:101510004DFA2C2000F012FA281200F02BFAE8B253
:1015200000F028FA70BD2DE9F04104462612E7B21A
:1015300040F23F13EF220021084600F037FA2C203A
:1015400000F0FCF9002506E0B0B200F013FAB8B2E2
:1015500000F010FA6D1CB5F5963FF5D3BDE8F081AB
:1015600010B500F039F99948006840F00800974933
:1015700008609748006840F08000954908600120A5
:1015800000F0DCF9642000F0E5FBCB2000F0D6F998
:10159000392000F0EFF92C2000F0ECF9002000F0E9
:1015A000E9F9342000F0E6F9022000F0E3F9CF2059
:1015B00000F0C4F9002000F0DDF9C12000F0DAF9F4
:1015C000302000F0D7F9E82000F0B8F9852000F0CD
:1015D000D1F9002000F0CEF9782000F0CBF9EA2014
:1015E00000F0ACF9002000F0C5F9002000F0C2F9CD
:1015F000ED2000F0A3F9642000F0BCF9032000F016
:10160000B9F9122000F0B6F9812000F0B3F9F72003
:1016100000F094F9202000F0ADF9C02000F08EF920
:10162000232000F0A7F9C12000F088F9102000F075
:10163000A1F9C52000F082F93E2000F09BF9282096
:1016400000F098F9C72000F079F9862000F092F9AF
:10165000362000F073F9482000F08CF93A2000F0B1
:101660006DF9552000F086F9B12000F067F90020EF
:1016700000F080F9182000F07DF9B62000F05EF946
:10168000082000F077F9822000F074F9272000F09C
:1016900071F9F22000F052F9002000F06BF92A20D5
:1016A00000F04CF9002000F065F9002000F062F92C
:1016B000002000F05FF9EF2000F05CF92B2000F033
:1016C0003DF9002000F056F9002000F053F9012008
:1016D00000F050F93F2000F04DF9262000F02EF9DF
:1016E000012000F047F9E02000F028F90F2000F079
:1016F00041F9312000F03EF92B2000F03BF90C209D
:1017000000F038F90E2000F035F9082000F032F929
:101710004E2000F02FF9F12000F02CF9372000F0D6
:1017200029F9072000F026F9102000F023F9032002
:1017300000F020F90E2000F01DF9092000F01AF940
:10174000002000F017F9E12000F0F8F8002000F088
:1017500011F90E2000F00EF9142000F00BF903200F
:1017600000F008F9112000F005F9072000F002F957
:10177000312000F0FFF8C12000F0FCF8482000F014
:10178000F9F8082000F0F6F80F2000F0F3F80C202C
:1017900000F0F0F8312000F0EDF8362000F0EAF823
:1017A0000F2000F0E7F8112000F0C8F8642000F0E6
:1017B000D1FA292000F0C2F82C2000F0BFF805482B
:1017C000006840F080000349086010BD00000C4034
:1017D00000800C4000800A401548406840F0C0007E
:1017E000134948600846C06840F0C000C860084619
:1017F000806820F4704088600846806940F470403A
:1018000088610C48406840F080000A4948600846FA
:10181000C06840F08000C8600846806820F44040FE
:1018200088600846806940F4404088617047000045
:1018300000800A4000800C402DE9F05F05468A4692
:1018400014469B46DDE90B674FF0000930E04FF08E
:10185000000820E0E01B00EB400006EB4000808821
:1018600000EB09010A98415C012000FA08F00140F0
:1018700069B1E21B02EB420206EB4202528852447B
:10188000A2EB080291B2A8B25A46FFF734FE08F163
:10189000010000F0FF08E01B00EB400006EB4000F9
:1018A00040884045D6DC6D1C09F1010000F0FF09BD
:1018B000E01B00EB400036F810004845C7DCA8B23A
:1018C000BDE8F09F2DE9FE4306460F4615469846B3
:1018D000002428E015F8014B202C00D1B61D2E2C39
:1018E0000EDB3B2C0CDC2E201249134A4346CDE97B
:1018F00000210290224639463046FFF79DFF0646FA
:10190000C02C0CDB2E200B490B4A4346CDE90021AD
:101910000290224639463046FFF78EFF064615B143
:10192000202C00D0761C28780028D3D1B0B2BDE896
:10193000FE830000121F0008AC1D000810B504460D
:101940000A48006820F0400008490860084800681C
:1019500020F0080006490860204600F0CFF804484F
:10196000006840F008000249086010BD00800A408D
:1019700000000C4010B504460A48006840F04000E2
:10198000084908600848006820F008000649086017
:10199000204600F0B3F80448006840F0080002490F
:1019A000086010BD00800A4000000C402DE9F041A5
:1019B00004460D4616461F462A20FFF7BFFF201299
:1019C000FFF7D8FFE0B2FFF7D5FF3012FFF7D2FFE5
:1019D000F0B2FFF7CFFF2B20FFF7B0FF2812FFF781
:1019E000C9FFE8B2FFF7C6FF3812FFF7C3FFF8B22E
:1019F000FFF7C0FFBDE8F08110B500BF1948C06B0C
:101A000000F400000028F9D01748C0681649C860E3
:101A10000846806840F00100886000BF12480068F6
:101A200000F004000028F9D00F48C06840F0020020
:101A30000D49C8600846406840F2047108430A49ED
:101A4000486000BF0848006800F002000028F9D094
:101A50000548C06840F482700349C86000F062F82D
:101A600010BD000000800D400000024000B500F0F5
:101A700013F80748C06A40F000700549C86200F0DA
:101A800033F807200349086002204860086100BD60
:101A90000000024000000A401248406820F00400A4
:101AA000104948600846406840F0680048600846B1
:101AB000C06840F06C00C8600846806843F6F0419A
:101AC0008843084988600846806842F62001084338
:101AD000044988600846806943F6F041084301499B
:101AE0008861704700000C4000200349086048608E
:101AF000086148614862704700000A4008498860F0
:101B000000BF0749C96801F010010029F9D100BFE1
:101B10000349C96801F001010029F9D070470000AC
:101B200000000A4030B5204CE46804F00204022CA6
:101B300001D11E4800E01D481B4CE46804F001047C
:101B400004B140080146184CE46804F00404042C75
:101B500005D1154C6468C4F30324631C5943124C2B
:101B6000E468C4F3012424B1012C06D0022C13D163
:101B70000DE00E4C0E4D2C6013E00B4CE468C4F3EA
:101B80000314641CB1FBF4F2094C226009E04FF429
:101B90000044074D2C6004E049F64044044D2C609D
:101BA00000BF00BF30BD00000000024000127A00FC
:101BB0001800002000B50D480D49C8610846C068EE
:101BC0000020C860084640680020486008468068D9
:101BD00000208860084600690020086108464069C6
:101BE00000204861FFF79EFF00BD000010000008C4
:101BF0000000024010B5002020E000EB80021449F4
:101C000001EBC201498C00290EDD00EB8002104976
:101C100001EBC201498C491E8AB200EB80030C49DA
:101C200001EBC3014A8407E0002200EB800308496E
:101C300001EBC30181F82020411CC8B20328DCDB82
:101C400000200449086048650E2000F067F810BDC8
:101C5000640300200000074010B50B48406A0B49A0
:101C600008430949486201200949C86049F63F40D4
:101C700048600120886000200860022088650E20EE
:101C800000F05AF862B610BD0000024001000001E9
:101C90000000074010B501200449087000200449E5
:101CA000086048650F2000F039F810BD10000020D2
:101CB0000080074010B50848006820B10648006859
:101CC000401E05490860002004490860486510204E
:101CD00000F024F810BD00000C00002000000840B7
:101CE00010B50B48406A0B49084309494862002077
:101CF0000949C860272048600120886000200860EA
:101D000002208865102000F017F862B610BD0000B0
:101D1000000002400000010400000840002807DB2A
:101D200000F01F0201219140024A430942F82310AA
:101D30007047000080E200E0002809DB00F01F028D
:101D4000012191404209920002F1E022C2F8001103
:101D5000704700000121074AD1604FF47A71414376
:101D6000054A116000BF044909680029FBD1014AF6
:101D7000D1607047000008400C000020FEF74BFACD
:101D8000FFF7AEFFFFF772FEFFF78CFAFFF7E8FBF5
:101D9000FEF79EFA4BF6D750FFF7C5FBFFF75CFF47
:101DA000FEF7ACFB01E0FEF761FEFCE70F0F0F064C
:101DB000F0FCFE1F070707071FFEFCF01F7FFFF068
:101DC000C0C0C0C0F0FF7F1F000000010101010181
:101DD00001000000181C0E06FFFFFF000000C0C03D
:101DE000C0C0FFFFFFC0C0C001010101010101012E
:101DF00001010E0E070707078FFFFE7C00C0E0F011
:101E0000F8DCCFC7C3C0C0C001010101010101015D
:101E10000101010E0E87878787CFFFFE3C00E0E0BF
:101E2000C3C3C3C3C3E7FF7E3C000001010101013E
:101E3000010000000080C0F0F83C1F0FFFFFFF0012
:101E4000001E1F1F1D1C1C1C1CFFFFFF1C1C000074
:101E5000000000000000010101000000FFFFFFC7BB
:101E6000C7C7C7878700E0E1C1C1C1C1C1E3FF7F28
:101E70003F0000010101010100000000E0F8FC9EAC
:101E8000CFC7C7C7C7C78E001F7FFFE3C1C1C1C18E
:101E9000E3FF7F3F0000000101010101010000009C
:101EA000070707070707C7F7FFFF3F0F000080E09E
:101EB000F8FF7F1F07000000000001010101000082
:101EC000000000003C7EFECFC78787C7CFFF7E3C67
:101ED00078FCFEE7C3C3C3C3E7FFFE7C000000013C
:101EE0000101010101000000F8FCFE8F0707070750
:101EF0008FFEFCF001E3C3C7C7C7C7E7F37F3F0FFF
:101F00000000010101010101000000000F0F0F1E80
:101F10001E1E0400040000000000000000000C0071
:101F2000110004000A00110028000B0011004600F7
:101F30000B00110067000D00110088000B0011005C
:101F4000AF000C001100D0000C001100F4000C00D8
:101F5000110018010C0011003C0103000D0060018C
:101F6000000018180000F8FE0701010103FEF80345
:101F70000F181010101C0F030000000000000000DC
:101F8000000C0602FFFF0000001010101F1F1010B1
:101F900010000000000000000002010101C3FE3E2D
:101FA00000181C1613111010100000000000000093
:101FB000000241414163BF9E000810101010180F2D
:101FC00007000000000000000000C060380E03FFA2
:101FD000FF00000303020202021F1F0202000000B2
:101FE00000000000000000003F3F212161C1800887
:101FF00010101010180F070000000000000000F87B
:10200000FC4623212161C180070F18101010180F02
:10201000070000000000000000000101010181F143
:102020003D0F030000181E07010000000000000023
:1020300000000000001CBEB3E141E1F39E0E0F0F53
:1020400018101010190F0700000000000000000019
:102050003C7EC381818143FEF81010101010180CD3
:102060000701000000000000000000181818180008
:1020700000000080F03E07073EF0C00000101C0F7B
:102080000302020202030F1E100000000000000005
:102090000000000000FFFF41414163FE9C001F1F44
:1020A00010101010180F07000000000000000000C2
:1020B000FFFF01010101011F1F00000000000000DF
:1020C0000000000000000000F8FF0F010101FFFF09
:1020D0000000F0181E1F11101010101F1F10F0012B
:1020E000000000000000000000000001FFFF41416F
:1020F0004141011F1F1010101010000000000000CF
:1021000000030FBCA0404040FFFF404040A0BC0F78
:1021100003181E07000000001F1F00000001071E1B
:102120001800000000000000000000000000000097
:1021300000FFFF404040B0BC0F031F1F0000000124
:10214000071E18000000000000000000000000E072
:10215000FF1F010101FFFF10101C0F010000000014
:102160001F1F0000000000000000000000FFFF40F3
:102170004040404040FFFF1F1F0000000000001FC4
:102180001F00000000000000000000F0FC0603013A
:102190000101010306FCF803070C181010101018B9
:1021A0000C0701000000000000000000000000FF1C
:1021B000FF818181C37E3C1F1F00000000000000E2
:1021C0000000000000000001010101FFFF0101010A
:1021D00001000000001F1F000000000000000000C0
:1021E000000000000003071CF8E0F81C0703181E9D
:1021F00007010001071E1800000000000000000099
:10220000FFFF40404040C0800000FFFF1F1F101034
:102210001010180F07001F1F000000000000000032
:1022200000000000100808080818F8F00E1E13112E
:1022300011091F1F0000000000000000E0F0988856
:102240008898F0E0070F1810101010080000000028
:102250000000000010888888C8F870081010101955
:102260000F0F00000000000000F8F80000C070F838
:10227000F81F1F0E0300001F1F00000000000000D9
:1022800000F8F8000080E078181F1F0101030E1C01
:102290001000000000000000000000008078080826
:1022A000F8F810100C070000001F1F0000000000CD
:1022B00000000000F8F878E0000000E078F8F81F6F
:1022C0001F00031F180F03001F1F00000000000065
:1022D0000000000000F8F800000000F8F81F1F01DF
:1022E0000101011F1F0000000000000000E0F018C5
:1022F00008080818F0E0070F18101010180F070052
:102300000000000000000000F8F810080818F0E0D5
:10231000FFFF081010180F07010100000000000067
:10232000E0F01808080810070F1810101008000037
:102330000000000000080808F8F80808080000007D
:102340001F1F00000000000000000000000878F0DF
:10235000800000C0F818000001CFFC3E070000001C
:102360000000010100000000F8F800000000F8F88B
:102370000001010101011F1F00000000000000001A
:10238000F8F8000000F8F8000000F8F81F1F10101F
:10239000101F1F1010101F1F000000000000000081
:1023A000000000000200000000000000090006001C
:1023B0000800210008003900080051000A006900E7
:1023C0000800870009009F000900BA000900D50035
:1023D0000900F00002000B010C00000000000000EA
:1023E0000900240007003F000D00540007007B0097
:1023F000100090000000000000000000000000003D
:102400000900C0000B00DB00000000000A00FC0017
:102410000C001A010000000008003E01000000004E
:102420000A005601000000000000000009007401CD
:10243000000000000000000000000000000000009C
:10244000000000000C008F010000000000000000F0
:1024500000000000000000000800B30100000000C0
:102460000000000000000000000000000800CB0198
:10247000000000000700E3010800F8010000000070
:1024800008001002090028020B0043020800640241
:1024900009007C0200000000080097020700AF025C
:1024A0000800C4020900DC02000000000000000077
:1024B000000000000800F7020C000F03DC240008F5
:1024C000000000201C000000FC000008F8240008A8
:1024D0001C000020240A0000180100080000000071
:1024E00000000000000000000000000000000000EC
:0824F0000000000000127A0058
:040000050800015D91
:00000001FF
