:020000040800F2
:10000000380A00205D01000865010008670100084A
:10001000690100086B0100086D0100080000000084
:100020000000000000000000000000006F01000858
:10003000710100080000000073010008750100084C
:100040007701000877010008770100080000000030
:100050000000000077010008770100087701000820
:100060007701000800000000770100087701000810
:1000700077010008000000005D1C0008FD1C00085E
:100080001D1D00087701000800000000770100082E
:1000900077010008000000000000000000000000E0
:1000A00000000000000000000000000077010008D0
:1000B0007701000877010008650200087701000851
:1000C00000F002F800F03AF80AA090E8000C824430
:1000D0008344AAF10107DA4501D100F02FF8AFF20D
:1000E000090EBAE80F0013F0010F18BFFB1A43F016
:1000F000010318478C220000AC220000103A24BFF4
:1001000078C878C1FAD8520724BF30C830C144BF7C
:1001100004680C60704700000023002400250026BE
:10012000103A28BF78C1FBD8520728BF30C148BF5A
:100130000B6070471FB51FBD10B510BD00F031F842
:100140001146FFF7F7FF01F04DFE00F04FF803B442
:10015000FFF7F2FF03BC00F057F8000009488047A2
:1001600009480047FEE7FEE7FEE7FEE7FEE7FEE799
:10017000FEE7FEE7FEE7FEE704480549054A064BB1
:10018000704700001D1C0008C10000083804002052
:10019000380A0020380600203806002070477047D3
:1001A0007047754600F02CF8AE4605006946534688
:1001B00020F00700854618B020B5FFF7DDFFBDE849
:1001C00020404FF000064FF000074FF000084FF0BE
:1001D000000B21F00701AC46ACE8C009ACE8C0094F
:1001E000ACE8C009ACE8C0098D46704710B50446BC
:1001F000AFF300802046BDE81040FFF7A8BF000025
:1002000000487047D403002001491820ABBEFEE728
:1002100026000200704710B500F01CF801F020FC29
:1002200000F002F810BD00000848006840F0180017
:10023000064908600648806B40F006000449886360
:100240000846806B40F030008863704700800140B2
:1002500000800D404FF0FF300149C8617047000039
:100260000000024001200149087070471000002082
:10027000002002490968C1F34010704700800A401D
:1002800038B50446002000906B4604220321382034
:1002900000F0D4FF9DF800004FF4706101EA0020E7
:1002A000208020889DF80110084320809DF80200DE
:1002B0004FF4706101EA0020608060889DF80310AF
:1002C00008436080608840F23F11081A608038BDA2
:1002D00010B500F021F800F04FF800221146382048
:1002E00001F016F880221146382001F011F8802222
:1002F0008521382001F00CF800228621382001F0F9
:1003000007F80E228821382001F002F80022A421EB
:10031000382000F0FDFF10BD1548406840F0020095
:10032000134948600846C06840F00200C8600846AB
:10033000806820F00C0088600846806940F00C005E
:1003400088610C48406840F020000A49486008462F
:10035000C06840F02000C8600846806820F4406013
:1003600088600846806940F44060886170470000FA
:1003700000800C4000800A4010B51448006820F04E
:10038000020012490860052001F018FD0F480068BE
:1003900040F002000D4908604FF4AF7001F00EFD0F
:1003A0000B48006820F0200009490860012001F096
:1003B00005FD0748006840F0200005490860084630
:1003C000406820F02000486010BD000000800C4014
:1003D00000800A4010B5154890F8AA0390B9012191
:1003E000124880F8AA1347F26951022000F086FBF8
:1003F00000220FA1022000F0BBFB0121162000F01B
:10040000E5FA11E00021094880F8AA134DF2DA61FB
:10041000022000F073FB002206A1022000F0A8FBDE
:100420000021162000F0D2FA10BD00001C000020B0
:10043000C2CACB00C2DBCACB0000000010B5064820
:100440000068401E044908600846044902681420F8
:1004500000F0DEFA10BD00000000002004000020C3
:1004600010B506480068401C044908600846044965
:100470000268142000F0CCFA10BD0000000000203B
:100480000400002000B58BB000F08AFE00204FF67B
:10049000FF71CDE9000140F23F130246EF210290C7
:1004A00000F03CFD002004210822CDE90402CDE942
:1004B0000610FEA000214FF6FF720223CDE90032A4
:1004C000CDE9021040F23F134FF48F72EF2100206C
:1004D00000F076FC002002210622CDE90402CDE9DD
:1004E0000610F9A000214FF6FF72CDE9001240F28C
:1004F0001D134FF48172CDE902104F21002000F04E
:100500005FFC00200522CDE9040206900790F0A0D0
:1005100000214FF6AE52CDE9001240F20113E6225F
:10052000CDE902104F21002000F04AFC00200522F6
:10053000CDE9040206900790E6A000214FF6FF7275
:10054000CDE90012E523CA22CDE902104F21002097
:1005500000F036FC00200522CDE904020690079049
:10056000DDA000214FF6AE52CDE90012C923AE2224
:10057000CDE902104F21002000F022FC00200522CE
:10058000CDE9040206900790D4A000214FF6FF7237
:10059000CDE90012AD239222CDE902104F210020B7
:1005A00000F00EFC00200522CDE904020690079021
:1005B000CBA000214FF6AE52CDE900129123762256
:1005C000CDE902104F21002000F0FAFB00200522A7
:1005D000CDE9040206900790C2A000214FF6FF72F9
:1005E000CDE9001275235A22CDE902104F210020D7
:1005F00000F0E6FB00200522CDE9040206900790FA
:10060000B9A000214FF6AE52CDE9001259233E2287
:10061000CDE902104F21002000F0D2FB002005227E
:10062000CDE9040206900790B0A000214FF6FF72BA
:10063000CDE900123D232222CDE902104F210020F6
:1006400000F0BEFB00200522CDE9040206900790D1
:10065000A7A000214FF6FF72CDE900128623682281
:10066000CDE9021095216D2000F0AAFB00200522A3
:10067000CDE90402069007909FA000214FF6FF727B
:10068000CDE9001263234722CDE9021095216D20A8
:1006900000F096FB0020052240F26A53CDE90520C8
:1006A0004FF6AE520790CDE900020290CDE9030368
:1006B00040F20113E6224F211A2000F081FB0020B6
:1006C0000522CDE9040206904FF6FF720790CDE9AE
:1006D00000020290E523CA224F2103901A2000F065
:1006E0006FFB00200522CDE9040206904FF6AE52C2
:1006F0000790CDE900020290C923AE224F2103905A
:100700001A2000F05DFB00200522CDE904020690CE
:100710004FF6FF720790CDE900020290AD239222BE
:100720004F2103901A2000F04BFB00200522CDE959
:10073000040206904FF6AE520790CDE900020290F7
:10074000912376224F2103901A2000F039FB0020DC
:100750000522CDE9040206904FF6FF720790CDE91D
:100760000002029075235A224F2103901A2000F0B4
:1007700027FB00200522CDE9040206904FF6AE5279
:100780000790CDE90002029059233E224F210390A9
:100790001A2000F015FB00200522CDE90402069086
:1007A0004FF6FF720790CDE9000202903D2322220E
:1007B0004F2103901A2000F003FB00200522CDE911
:1007C0000402069007904EA000214FF6FF72CDE97B
:1007D0000012CDE902104B48B0F88C01C01D80B268
:1007E00086236822D6210A9000F0EAFA002005222A
:1007F00040F26A53CDE905200493079040A0002100
:100800004FF6FF72CDE90012CDE902103D48B0F875
:10081000B001401D80B263234722D6210A9000F028
:10082000CFFA00200522CDE904020690079036A0F9
:1008300000214DF2DA620223CDE90032CDE9021047
:1008400021230A464F21002000F0BAFA30486421E3
:1008500000220692CDE907210292039204920592AA
:10086000099047F26950012140F21713D722CDE9D0
:100870000010D621682000F0DDF92648642100220E
:100880000692CDE907210292039204920592099003
:1008900047F269500121CB238B22CDE90010D621EC
:1008A000682000F0C7F91C48642137E0CAF0E8EE80
:1008B000CAEEEDF2F0EEEBEBE5F020ECE8F8E5ED5A
:1008C000E820CD3200000000C4E0F2F7E8EAE800DA
:1008D000D2310000D2320000D2330000D234000006
:1008E000D2350000D2360000D2370000D2380000E6
:1008F000D220F3F1F23A0000D220E8E7EC3A00000F
:10090000300000001C000020CED5CBC0C62E000059
:10091000610400083D040008D503000800221223EA
:10092000CDE90632CDE908101E20114625A200238C
:10093000CDE90232CDE904104DF2DA6001213F2306
:100940000022CDE90010D621682000F073F94FF69F
:10095000FF700022CDE900204FF48873DE22A12130
:1009600002909D2000F0DAFA4FF6FF700022CDE9E8
:100970000020F923F522B8210290862000F0CEFA5B
:100980004FF6FF700022CDE90020AD23A922B82147
:100990000290862000F0C2FA0020022140F21F13CC
:1009A0000246CDE900104F2100F0F2FA00200221AA
:1009B00040F23F130246CDE90010EF2100F0E8FAC3
:1009C0000BB000BDC2DBCACB0000000070B505460D
:1009D0000C4654B94DF2DA61284600F045FB00227E
:1009E00007A1284600F07AFB09E047F26951284642
:1009F00000F03AFB002204A1284600F06FFB70BD16
:100A0000CED5CBC0C62E0000CDC0C3D0C5C200001D
:100A100070B505460E4614463146204600F0E7FA0A
:100A200000223146284600F059FB70BD70B5002504
:100A3000002456E02F48018804EB84022E4830F849
:100A40003200814209DB2B48018804EB84022A48EA
:100A500000EBC2004088814200DD40E0254841882B
:100A600004EB8402244800EBC2008088814209DB49
:100A70002048418804EB84021F4800EBC200C08874
:100A8000814200DD2BE004EB84011B4800EBC10038
:100A900090F8200008BB04EB8402174901EBC20167
:100AA000486A804704EB8401134800EBC100808B47
:100AB00098B1012104EB84020F4800EBC20080F8DA
:100AC000201004EB84010C4800EBC100818B04EB87
:100AD0008402094800EBC2004184012503E0601C48
:100AE000C4B2032CA6DB00BF012D00D170BD00BF36
:100AF000FCE70000120000205C030020FEB5044665
:100B00000D4604EB8401194800EBC100458104EB5C
:100B10008401164800EBC100818904EB840213486C
:100B200000EBC200408904EB8403104A02EBC302CD
:100B3000128904EB84070D4E06EBC706CDE90020B1
:100B40000291F38804EB8407084E06EBC706B288CF
:100B500004EB8407054E06EBC706718804EB840797
:100B6000024E36F8370000F0D9F9FEBD5C030020D4
:100B70002DE9FE4304460D461646002104EB84028F
:100B80002B4800EBC2004089CDE9001004EB840C37
:100B9000274F07EBCC070291B7F804C004EB840899
:100BA000234F07EBC8073F8B6744BAB204EB840CB2
:100BB0001F4F37F83CC004EB840807EBC807FF8AD7
:100BC0006744B8B204EB840C194F07EBCC07BF881D
:100BD0001837BBB204EB840C154F07EBCC07F98B2D
:100BE00000F09CF90DB304EB8403114A02EBC3023D
:100BF000938804EB84070E4A02EBC702128B991804
:100C000004EB84030A4A32F8333004EB840702EB26
:100C1000C702D28A981833462A4600F093FD04EBA7
:100C20008402034901EBC201C883BDE8FE830000D2
:100C30005C0300202DE9FE4F04460F4615469846FA
:100C4000DDF848B0DDE90C9A0F9E5B48407800EB78
:100C500080015A4820F831405748407800EB800125
:100C6000564800EBC10047805348407800EB8001B4
:100C7000524800EBC10085804F48407800EB80016E
:100C80004E4800EBC100A0F806804B48407800EBCE
:100C900080014A4800EBC100A0F80890464840781F
:100CA00000EB8001454800EBC100A0F80AA04249D2
:100CB000497801EB8102414901EBC2010E9888811C
:100CC0003D48407800EB80013C4800EBC1000661E4
:100CD0003949497801EB8102384901EBC20110988A
:100CE00088823549497801EB8102344901EBC20120
:100CF0001198C8823048407800EB80012F4800EB03
:100D0000C100A0F818B02C49497801EB81022B49A9
:100D100001EBC201139888762749497801EB8102DB
:100D2000264901EBC20114988883002122484078AB
:100D300000EB8002214800EBC20080F820101E4822
:100D4000407800EB80021D4800EBC20041841A4944
:100D5000497801EB8102194901EBC20115984862FB
:100D60000E9843462A463946CDE9009A029020461D
:100D700000F0D4F886B105EB0B01119AA0183246A9
:100D8000109B00F0DFFC0C49497801EB81020B4914
:100D900001EBC201C88308E000210748407800EB5E
:100DA0008002064800EBC200C18303484078401C23
:100DB00001494870BDE8FE8F1C0000205C03002044
:100DC0002DE9FE4F04460F4615469846DDF848B01B
:100DD000DDE90C9A0F9E5048007800EBC0014E48A8
:100DE000001D20F82140001F007800EBC0014A4898
:100DF000001D00EB810047804748007800EBC001F0
:100E00004548001D00EB810085804348007800EBD9
:100E1000C0014148001D00EB8100A0F806803E485B
:100E2000007800EBC0013C48001D00EB8100A0F8F9
:100E300008903948007800EBC0013748001D00EBEE
:100E40008100A0F80AA03449097801EBC1023249B7
:100E5000091D01EB82010E9888812F48007800EB74
:100E6000C0012D48001D00EB810006612A49097868
:100E700001EBC1022849091D01EB8201109888820B
:100E80002549097801EBC1022349091D01EB8201C3
:100E90001198C8822048007800EBC0011E48001D50
:100EA00000EB8100A0F818B01B49097801EBC102E2
:100EB0001949091D01EB82011398C8610E98434638
:100EC0002A463946CDE9009A0290204600F026F8DD
:100ED0008EB105EB0B01119AA0183246109B00F061
:100EE00031FC0D49097801EBC1020B49091D01EBE9
:100EF0008201088409E000210748007800EBC00265
:100F00000548001D00EB8200018403480078401C66
:100F100001490870BDE8FE8F1C0000202DE9F84F44
:100F200006460F4690469946DDE90BA50A9C4B46BE
:100F3000424639463046CDF800A000F01FFA002C9A
:100F400024DD601E304481B24B4642463046009557
:100F500000F014FA601EA9EB000082B24B4639463D
:100F60003046009500F00AFA611E791A88B24B46A5
:100F700042463946009500F001FA601E404483B2B3
:100F8000424639463046009500F0F8F9BDE8F88F42
:100F90002DE9F84306460F4690469946DDE9084597
:100FA000601E304481B24B4642463046009500F008
:100FB000E5F9601EA9EB000082B24B463946304687
:100FC000009500F0DBF9611E791A88B24B46424663
:100FD0003946009500F0D2F9601E404483B2424683
:100FE00039463046009500F0C9F9BDE8F883F0B500
:100FF0000022002428B930230B70491C00230B70F9
:10100000F0BD002802DA2D230B70491C10E00A23E2
:1010100090FBF3F503FB150330330B700A2390FBB1
:10102000F3F313B1491C531CDAB20A2390FBF3F01B
:101030000028ECD1891A002309E0CC5C8D18ED1A48
:101040002D78CD548D18ED1A2C705D1CEBB202EB8F
:10105000D276012707EB66069E42EEDC00238D1850
:101060006B7000BFCCE70000FEB504460D4604EBF4
:10107000C401194800EB8100458104EBC401164806
:1010800000EB8100818904EBC402134800EB82006D
:10109000408904EBC403104A02EB8302128904EB7B
:1010A000C4070D4E06EB8706CDE900200291F388B8
:1010B00004EBC407084E06EB8706B28804EBC407AE
:1010C000054E06EB8706718804EBC407024E36F81E
:1010D0002700FFF723FFFEBD200000202DE9FE437F
:1010E00004460D461646002104EBC4022B4800EBD3
:1010F00082004089CDE9001004EBC40C274F07EBB8
:101100008C070291B7F804C004EBC408234F07EB27
:1011100088073F8B6744BAB204EBC40C1F4F37F803
:101120002CC004EBC40807EB8807FF8A6744B8B2F9
:1011300004EBC40C194F07EB8C07BF881837BBB200
:1011400004EBC40C154F07EB8C07398CFFF7E6FE58
:101150000DB304EBC403114A02EB8302938804EB42
:10116000C4070E4A02EB8702128B991804EBC403E2
:101170000A4A32F8233004EBC40702EB8702D28A12
:10118000981833462A4600F0DDFA04EBC4020349FE
:1011900001EB82010884BDE8FE83000020000020EE
:1011A0000020024908704870887070471C000020B9
:1011B00000B500F00DF800F09FF89F20034908608B
:1011C000002048608020886000BD000000000540CD
:1011D0001948406820F003001749486008468068B5
:1011E00020F00F0088600846806840F00A008860A0
:1011F0000846C06840F00300C8600846006920F057
:10120000030008610846006920F440300861084680
:10121000406920F0030048610846406920F44030EE
:1012200048610846806940F00F0088610846C0693F
:1012300000F00300C861704700800B4070B50C4699
:1012400000BF2C49096901F040010029F9D1902122
:10125000284DA961410069611021A96100BF25499C
:10126000096901F002010029F9D122494C611021DC
:10127000204DA96100BF1F49096901F00201002941
:10128000F9D190211B4DA961012101EB4001696158
:101290001021A96100BF1749096901F00201002965
:1012A000F9D100BF0EE02025124EB56100BF114DEF
:1012B0002D6905F00205002DF9D10E4DED685D5444
:1012C0004D1CE9B2551E8D42EDDC2821094DA96166
:1012D00000BF0849096901F002010029F9D1054957
:1012E000C968CDB2511E5D544021024DA961002153
:1012F000A96170BD000005400020044908604860F5
:101300008860C860086148618861704700000540D6
:1013100010B500BF184B1B6903F04003002BF9D137
:101320009023154CA361430063611023A36100BFA8
:10133000114B1B6903F00203002BF9D10E4B5961CD
:1013400010230D4CA36100BF0B4B1B6903F002037C
:10135000002BF9D1084B5A611023074CA36100BF41
:10136000054B1B6903F00203002BF9D14023024C0B
:10137000A3610023A36110BD000005402DE9FC5FBF
:1013800006460F4614469846DDF83090019440F228
:101390003F10A0EB080084B240F23F110198081AF8
:1013A0001FFA80F800254FF0000A0096A34600BF00
:1013B00021E00BEB0500401C83B20BEB050081B272
:1013C0003A46009800F026FB2C2000F0EBFA4FF094
:1013D000000A0BE04FEA292000F000FB09F0FF00B3
:1013E00000F0FCFA0AF101001FFA80FAB81B504520
:1013F000F0DA681C85B2A8EB0400A842D9DABDE88F
:10140000FC9F70B506460C46154640F23F10001B87
:1014100084B2234632462146304600F0FBFA2C20A7
:1014200000F0C0FA281200F0D9FAE8B200F0D6FABB
:1014300070BD2DE9F04104462612E7B240F23F1399
:10144000EF220021084600F0E5FA2C2000F0AAFA6D
:10145000002506E0B0B200F0C1FAB8B200F0BEFA62
:101460006D1CB5F5963FF5D3BDE8F08110B500F0E1
:1014700039F99948006840F0080097490860974892
:10148000006840F0800095490860012000F08AFA69
:10149000642000F093FCCB2000F084FA392000F0A7
:1014A0009DFA2C2000F09AFA002000F097FA3420E0
:1014B00000F094FA022000F091FACF2000F072FAC6
:1014C000002000F08BFAC12000F088FA302000F0F4
:1014D00085FAE82000F066FA852000F07FFA002007
:1014E00000F07CFA782000F079FAEA2000F05AFA4D
:1014F000002000F073FA002000F070FAED2000F0F8
:1015000051FA642000F06AFA032000F067FA122012
:1015100000F064FA812000F061FAF72000F042FA4E
:10152000202000F05BFAC02000F03CFA232000F0FD
:1015300055FAC12000F036FA102000F04FFAC5200D
:1015400000F030FA3E2000F049FA282000F046FA78
:10155000C72000F027FA862000F040FA362000F07D
:1015600021FA482000F03AFA3A2000F01BFA552000
:1015700000F034FAB12000F015FA002000F02EFA45
:10158000182000F02BFAB62000F00CFA082000F02A
:1015900025FA822000F022FA272000F01FFAF2201C
:1015A00000F000FA002000F019FA2A2000F0FAF901
:1015B000002000F013FA002000F010FA002000F0E4
:1015C0000DFAEF2000F00AFA2B2000F0EBF90020D2
:1015D00000F004FA002000F001FA012000F0FEF90A
:1015E0003F2000F0FBF9262000F0DCF9012000F09C
:1015F000F5F9E02000F0D6F90F2000F0EFF93120E6
:1016000000F0ECF92B2000F0E9F90C2000F0E6F9ED
:101610000E2000F0E3F9082000F0E0F94E2000F081
:10162000DDF9F12000F0DAF9372000F0D7F90720D2
:1016300000F0D4F9102000F0D1F9032000F0CEF929
:101640000E2000F0CBF9092000F0C8F9002000F0CE
:10165000C5F9E12000F0A6F9002000F0BFF90E2046
:1016600000F0BCF9142000F0B9F9032000F0B6F93D
:10167000112000F0B3F9072000F0B0F9312000F09C
:10168000ADF9C12000F0AAF9482000F0A7F9082020
:1016900000F0A4F90F2000F0A1F90C2000F09EF951
:1016A000312000F09BF9362000F098F90F2000F06F
:1016B00095F9112000F076F9642000F07FFB2920D5
:1016C00000F070F92C2000F06DF90548006840F03A
:1016D00080000349086010BD00000C4000800C40F1
:1016E00000800A401548406840F0C0001349486037
:1016F0000846C06840F0C000C8600846806820F412
:10170000704088600846806940F4704088610C48E9
:10171000406840F080000A4948600846C06840F0D0
:101720008000C8600846806820F440408860084611
:10173000806940F4404088617047000000800A40A2
:1017400000800C402DE9F04705460E4617469A46A4
:10175000002418E117F8014B202C00D1AD1D2E2CD0
:101760007DDB3B2C7BDC4FF0000877E04FF000097D
:101770001AE0A4F12E00874901EB80004088404424
:101780008549085C012101FA09F1084040B106F1E0
:101790001802A2EB090291B2A8B25246FFF731FE3D
:1017A00009F1010000F0FF09B9F1080FE1DB4FF08A
:1017B000000921E0A4F12E00764901EB8000408869
:1017C00000EB0801A4F12E00724A32F82000084410
:1017D0007149095C012000FA09F0014041B106F1AC
:1017E0001002A2EB090291B2A8B25246FFF709FE1D
:1017F00009F1010000F0FF09B9F1080FDADB4FF041
:10180000000923E0A4F12E00624901EB800040882A
:1018100000EB0801A4F12E005E4A32F820000222FB
:1018200002FB00105C49095C012000FA09F001404C
:1018300041B106F10802A2EB090291B2A8B25246E8
:10184000FFF7DFFD09F1010000F0FF09B9F1080F12
:10185000D8DB6D1C08F1010000F0FF0800E007E094
:10186000A4F12E004B4931F8200040453FF77EAFF0
:10187000C02C7DDB4FF0000877E04FF000091AE044
:10188000A4F1C000454901EB800040884044444930
:10189000085C012101FA09F1084040B106F1180283
:1018A000A2EB090291B2A8B25246FFF7AAFD09F1D4
:1018B000010000F0FF09B9F1080FE1DB4FF000096A
:1018C00021E0A4F1C000354901EB8000408800EB25
:1018D0000801A4F1C000314A32F820000844304920
:1018E000085C012101FA09F1084040B106F110023B
:1018F000A2EB090291B2A8B25246FFF782FD09F1AC
:10190000010000F0FF09B9F1080FDADB4FF0000920
:1019100023E0A4F1C000214901EB8000408800EBE6
:101920000801A4F1C0001D4A32F82000022202FB87
:1019300000101B49085C012101FA09F1084040B17F
:1019400006F10802A2EB090291B2A8B25246FFF7D3
:1019500058FD09F1010000F0FF09B9F1080FD8DBCB
:101960006D1C08F1010000F0FF08A4F1C00000E0C8
:1019700005E00A4931F8200040453FF77EAF17B136
:10198000202C00D06D1C387800287FF4E3AEA8B27C
:10199000BDE8F08768220008241E00089C22000889
:1019A000351F000810B504460A48006820F04000C2
:1019B000084908600848006820F0080006490860E7
:1019C000204600F0CFF80448006840F008000249C3
:1019D000086010BD00800A4000000C4010B50446AD
:1019E0000A48006840F0400008490860084800685C
:1019F00020F0080006490860204600F0B3F80448CB
:101A0000006840F008000249086010BD00800A40EC
:101A100000000C402DE9F04104460D4616461F46D5
:101A20002A20FFF7BFFF2012FFF7D8FFE0B2FFF731
:101A3000D5FF3012FFF7D2FFF0B2FFF7CFFF2B2018
:101A4000FFF7B0FF2812FFF7C9FFE8B2FFF7C6FFA4
:101A50003812FFF7C3FFF8B2FFF7C0FFBDE8F0810F
:101A600010B500BF1948C06B00F400000028F9D081
:101A70001748C0681649C8600846806840F00100F1
:101A8000886000BF1248006800F004000028F9D008
:101A90000F48C06840F002000D49C8600846406821
:101AA00040F2047108430A49486000BF08480068D2
:101AB00000F002000028F9D00548C06840F48270A8
:101AC0000349C86000F062F810BD000000800D40BE
:101AD0000000024000B500F013F80748C06A40F06B
:101AE00000700549C86200F033F807200349086018
:101AF00002204860086100BD0000024000000A406A
:101B00001248406820F004001049486008464068C8
:101B100040F0680048600846C06840F06C00C8604B
:101B20000846806843F6F0418843084988600846C3
:101B3000806842F6200108430449886008468069AD
:101B400043F6F041084301498861704700000C40AA
:101B50000020034908604860086148614862704796
:101B600000000A400849886000BF0749C96801F0C1
:101B700010010029F9D100BF0349C96801F0010132
:101B80000029F9D07047000000000A4030B5204C11
:101B9000E46804F00204022C01D11E4800E01D4854
:101BA0001B4CE46804F0010404B140080146184CE1
:101BB000E46804F00404042C05D1154C6468C4F3F3
:101BC0000324631C5943124CE468C4F3012424B178
:101BD000012C06D0022C13D10DE00E4C0E4D2C60C2
:101BE00013E00B4CE468C4F30314641CB1FBF4F27F
:101BF000094C226009E04FF40044074D2C6004E0DA
:101C000049F64044044D2C6000BF00BF30BD0000C9
:101C10000000024000127A001800002000B50D48B4
:101C20000D49C8610846C0680020C8600846406881
:101C300000204860084680680020886008460069E7
:101C4000002008610846406900204861FFF79EFFB8
:101C500000BD0000100000080000024010B5002088
:101C600020E000EB8002144901EBC201498C0029FD
:101C70000EDD00EB8002104901EBC201498C491EC8
:101C80008AB200EB80030C4901EBC3014A8407E0F0
:101C9000002200EB8003084901EBC30181F82020FA
:101CA000411CC8B20328DCDB0020044908604865F9
:101CB0000E2000F067F810BD5C0300200000074014
:101CC00010B50B48406A0B49084309494862012096
:101CD0000949C86049F63F404860012088600020FB
:101CE0000860022088650E2000F05AF862B610BD28
:101CF00000000240010000010000074010B5012073
:101D00000449087000200449086048650F2000F06D
:101D100039F810BD100000200080074010B50848B9
:101D2000006820B106480068401E05490860002090
:101D3000044908604865102000F024F810BD000038
:101D40000C0000200000084010B50B48406A0B4909
:101D500008430949486200200949C86027204860B3
:101D6000012088600020086002208865102000F0B3
:101D700017F862B610BD0000000002400000010428
:101D800000000840002807DB00F01F0201219140FD
:101D9000024A430942F823107047000080E200E045
:101DA000002809DB00F01F02012191404209920046
:101DB00002F1E022C2F80011704700000121074A39
:101DC000D1604FF47A714143054A116000BF044964
:101DD00009680029FBD1014AD16070470000084022
:101DE0000C000020FEF717FAFFF7AEFFFFF772FEB8
:101DF000FFF7DEF9FFF73AFBFEF76AFA4BF6D7502A
:101E0000FFF717FBFFF75CFFFEF73CFB07E0FEF771
:101E10002FFA20B90248FEF733FAFEF707FEF6E77D
:101E200012000020000018180000F8FE0701010150
:101E300003FEF8030F181010101C0F030000000021
:101E400000000000000C0602FFFF00000010101050
:101E50001F1F101010000000000000000002010110
:101E600001C3FE3E00181C161311101010000000D4
:101E700000000000000241414163BF9E00081010B5
:101E80001010180F07000000000000000000C060E4
:101E9000380E03FFFF00000303020202021F1F02AD
:101EA0000200000000000000000000003F3F212170
:101EB00061C1800810101010180F0700000000000A
:101EC000000000F8FC4623212161C180070F181093
:101ED0001010180F070000000000000000000101B2
:101EE000010181F13D0F030000181E0701000000F1
:101EF0000000000000000000001CBEB3E141E1F35F
:101F00009E0E0F0F18101010190F07000000000090
:101F1000000000003C7EC381818143FEF810101058
:101F20001010180C0701000000000000000000184D
:101F30001818180000000080F03E07073EF0C000AF
:101F400000101C0F0302020202030F1E100000000B
:101F5000000000000000000000FFFF41414163FE5F
:101F60009C001F1F10101010180F07000000000029
:101F700000000000FFFF01010101011F1F00000020
:101F8000000000000000000000000000F8FF0F014A
:101F90000101FFFF0000F0181E1F11101010101F8C
:101FA0001F10F00100000000000000000000000110
:101FB000FFFF41414141011F1F1010101010000090
:101FC0000000000000030FBCA0404040FFFF404065
:101FD00040A0BC0F03181E07000000001F1F0000D8
:101FE0000001071E180000000000000000000000B3
:101FF0000000000000FFFF404040B0BC0F031F1F67
:1020000000000001071E1800000000000000000092
:10201000000000E0FF1F010101FFFF10101C0F0175
:10202000000000001F1F0000000000000000000072
:1020300000FFFF404040404040FFFF1F1F000000E6
:102040000000001F1F00000000000000000000F062
:10205000FC0603010101010306FCF803070C18103C
:10206000101010180C070100000000000000000014
:10207000000000FFFF818181C37E3C1F1F00000024
:10208000000000000000000000000001010101FF4D
:10209000FF01010101000000001F1F0000000000FF
:1020A00000000000000000000003071CF8E0F81C1E
:1020B0000703181E07010001071E1800000000009A
:1020C00000000000FFFF40404040C0800000FFFFD4
:1020D0001F1F10101010180F07001F1F0000000016
:1020E0000000000000000000100808080818F8F0C0
:1020F0000E1E131111091F1F000000000000000038
:10210000E0F098888898F0E0070F18101010100879
:10211000000000000000000010888888C8F87008DF
:10212000101010190F0F00000000000000F8F80058
:1021300000C070F8F81F1F0E0300001F1F000000F2
:102140000000000000F8F8000080E078181F1F0170
:1021500001030E1C10000000000000000000000041
:1021600080780808F8F810100C070000001F1F0006
:102170000000000000000000F8F878E0000000E037
:1021800078F8F81F1F00031F180F03001F1F00001F
:10219000000000000000000000F8F800000000F857
:1021A000F81F1F010101011F1F00000000000000B7
:1021B00000E0F01808080818F0E0070F18101010D9
:1021C000180F07000000000000000000F8F81008D9
:1021D0000818F0E0FFFF081010180F0701010000B9
:1021E00000000000E0F01808080810070F18101091
:1021F000100800000000000000080808F8F80808AF
:10220000080000001F1F0000000000000000000088
:10221000000878F0800000C0F818000001CFFC3EF4
:10222000070000000000010100000000F8F80000B5
:102230000000F8F80001010101011F1F000000006B
:1022400000000000F8F8000000F8F8000000F8F8BE
:102250001F1F1010101F1F1010101F1F0000000064
:10226000000000000000000002000000000000006C
:10227000090006000800210008003900080051008C
:102280000A0069000800870009009F000900BA00E1
:102290000900D5000900F00002000B010C0000004D
:1022A000000000000900240007003F000D0054005A
:1022B00007007B00100090000000000000000000FC
:1022C000000000000900C0000B00DB00000000005F
:1022D0000A00FC000C001A010000000008003E018A
:1022E000000000000A00560100000000000000008D
:1022F0000900740100000000000000000000000060
:1023000000000000000000000C008F010000000031
:102310000000000000000000000000000800B30101
:1023200000000000000000000000000000000000AD
:102330000800CB01000000000700E3010800F801DD
:102340000000000008001002090028020B004302F0
:102350000800640209007C020000000008009702E7
:102360000700AF020800C4020900DC020000000000
:1023700000000000000000000800F7020C000F033E
:10238000A0230008000000201C000000FC00000842
:10239000BC2300081C0000201C0A000018010008D3
:1023A000000000000000000000000000000000002D
:0C23B000000000000000000000127A0095
:040000050800015D91
:00000001FF
