:020000040800F2
:10000000400A00205D010008650100086701000842
:10001000690100086B0100086D0100080000000084
:100020000000000000000000000000006F01000858
:10003000710100080000000073010008750100084C
:100040007701000877010008770100080000000030
:100050000000000077010008770100087701000820
:100060007701000800000000770100087701000810
:100070007701000800000000611C0008011D000855
:10008000211D00087701000800000000770100082A
:1000900077010008000000000000000000000000E0
:1000A00000000000000000000000000077010008D0
:1000B0007701000877010008650200087701000851
:1000C00000F002F800F03AF80AA090E8000C824430
:1000D0008344AAF10107DA4501D100F02FF8AFF20D
:1000E000090EBAE80F0013F0010F18BFFB1A43F016
:1000F000010318473C2400005C240000103A24BF90
:1001000078C878C1FAD8520724BF30C830C144BF7C
:1001100004680C60704700000023002400250026BE
:10012000103A28BF78C1FBD8520728BF30C148BF5A
:100130000B6070471FB51FBD10B510BD00F031F842
:100140001146FFF7F7FF01F04FFE00F04FF803B440
:10015000FFF7F2FF03BC00F057F8000009488047A2
:1001600009480047FEE7FEE7FEE7FEE7FEE7FEE799
:10017000FEE7FEE7FEE7FEE704480549054A064BB1
:1001800070470000211C0008C10000084004002046
:10019000400A0020400600204006002070477047BB
:1001A0007047754600F02CF8AE4605006946534688
:1001B00020F00700854618B020B5FFF7DDFFBDE849
:1001C00020404FF000064FF000074FF000084FF0BE
:1001D000000B21F00701AC46ACE8C009ACE8C0094F
:1001E000ACE8C009ACE8C0098D46704710B50446BC
:1001F000AFF300802046BDE81040FFF7A8BF000025
:1002000000487047E003002001491820ABBEFEE71C
:1002100026000200704710B500F01CF801F022FC27
:1002200000F002F810BD00000848006840F0180017
:10023000064908600648806B40F006000449886360
:100240000846806B40F030008863704700800140B2
:1002500000800D404FF0FF300149C8617047000039
:100260000000024001200149087070471000002082
:10027000002002490968C1F34010704700800A401D
:1002800038B50446002000906B4604220321382034
:1002900001F010F89DF800004FF4706101EA0020B1
:1002A000208020889DF80110084320809DF80200DE
:1002B0004FF4706101EA0020608060889DF80310AF
:1002C00008436080608840F23F11081A608038BDA2
:1002D00010B500F021F800F04FF800221146382048
:1002E00001F052F880221146382001F04DF88022AA
:1002F0008521382001F048F800228621382001F0BD
:1003000043F80E228821382001F03EF80022A42173
:10031000382001F039F810BD1548406840F002005F
:10032000134948600846C06840F00200C8600846AB
:10033000806820F00C0088600846806940F00C005E
:1003400088610C48406840F020000A49486008462F
:10035000C06840F02000C8600846806820F4406013
:1003600088600846806940F44060886170470000FA
:1003700000800C4000800A4010B51448006820F04E
:10038000020012490860052001F01AFD0F480068BC
:1003900040F002000D4908604FF4AF7001F010FD0D
:1003A0000B48006820F0200009490860012001F096
:1003B00007FD0748006840F020000549086008462E
:1003C000406820F02000486010BD000000800C4014
:1003D00000800A4010B5154890F8B20390B9012189
:1003E000124880F8B21347F26951022000F09CFBDA
:1003F00000220FA1022000F0D1FB0121162000F005
:10040000EDFA11E00021094880F8B2134DF2DA61EB
:10041000022000F089FB002206A1022000F0BEFBB2
:100420000021162000F0DAFA10BD00001C000020A8
:10043000C2CACB00C2DBCACB0000000010B54FF629
:100440002071012000F070FB05480068401E04493F
:100450000860084603490268142000F0E1FA10BD64
:10046000000000200400002010B54FF6207100208D
:1004700000F05AFB05480068401C04490860084623
:1004800003490268142000F0CBFA10BD00000020E0
:100490000400002000B58BB000F0BCFE00204FF639
:1004A000FF71CDE9000140F23F130246EF210290B7
:1004B00000F04EFD002004210822CDE90402CDE920
:1004C0000610FEA000214FF6FF720223CDE9003294
:1004D000CDE9021040F23F134FF48F72EF2100205C
:1004E00000F086FC002002210622CDE90402CDE9BD
:1004F0000610F9A000214FF6FF72CDE9001240F27C
:100500001D134FF48172CDE902104F21002000F03D
:100510006FFC00200522CDE9040206900790F0A0B0
:1005200000214FF6AE52CDE9001240F20113E6224F
:10053000CDE902104F21002000F05AFC00200522D6
:10054000CDE9040206900790E6A000214FF6FF7265
:10055000CDE90012E523CA22CDE902104F21002087
:1005600000F046FC00200522CDE904020690079029
:10057000DDA000214FF6AE52CDE90012C923AE2214
:10058000CDE902104F21002000F032FC00200522AE
:10059000CDE9040206900790D4A000214FF6FF7227
:1005A000CDE90012AD239222CDE902104F210020A7
:1005B00000F01EFC00200522CDE904020690079001
:1005C000CBA000214FF6AE52CDE900129123762246
:1005D000CDE902104F21002000F00AFC0020052286
:1005E000CDE9040206900790C2A000214FF6FF72E9
:1005F000CDE9001275235A22CDE902104F210020C7
:1006000000F0F6FB00200522CDE9040206900790D9
:10061000B9A000214FF6AE52CDE9001259233E2277
:10062000CDE902104F21002000F0E2FB002005225E
:10063000CDE9040206900790B0A000214FF6FF72AA
:10064000CDE900123D232222CDE902104F210020E6
:1006500000F0CEFB00200522CDE9040206900790B1
:10066000A7A000214FF6FF72CDE900128623682271
:10067000CDE9021095216D2000F0BAFB0020052283
:10068000CDE90402069007909FA000214FF6FF726B
:10069000CDE9001263234722CDE9021095216D2098
:1006A00000F0A6FB0020052240F26A53CDE90520A8
:1006B0004FF6AE520790CDE900020290CDE9030358
:1006C00040F20113E6224F211A2000F091FB002096
:1006D0000522CDE9040206904FF6FF720790CDE99E
:1006E00000020290E523CA224F2103901A2000F055
:1006F0007FFB00200522CDE9040206904FF6AE52A2
:100700000790CDE900020290C923AE224F21039049
:100710001A2000F06DFB00200522CDE904020690AE
:100720004FF6FF720790CDE900020290AD239222AE
:100730004F2103901A2000F05BFB00200522CDE939
:10074000040206904FF6AE520790CDE900020290E7
:10075000912376224F2103901A2000F049FB0020BC
:100760000522CDE9040206904FF6FF720790CDE90D
:100770000002029075235A224F2103901A2000F0A4
:1007800037FB00200522CDE9040206904FF6AE5259
:100790000790CDE90002029059233E224F21039099
:1007A0001A2000F025FB00200522CDE90402069066
:1007B0004FF6FF720790CDE9000202903D232222FE
:1007C0004F2103901A2000F013FB00200522CDE9F1
:1007D0000402069007904EA000214FF6FF72CDE96B
:1007E0000012CDE902104B48B0F89401C01D80B250
:1007F00086236822D6210A9000F0FAFA002005220A
:1008000040F26A53CDE905200493079040A00021EF
:100810004FF6FF72CDE90012CDE902103D48B0F865
:10082000B801401D80B263234722D6210A9000F010
:10083000DFFA00200522CDE904020690079036A0D9
:1008400000214FF620720223CDE90032CDE90210DB
:1008500021230A464F21002000F0CAFA30486421C3
:1008600000220692CDE9072102920392049205929A
:10087000099047F26950012140F21713D722CDE9C0
:100880000010D621682000F0EBF9264864210022F0
:100890000692CDE9072102920392049205920990F3
:1008A00047F269500121CB238B22CDE90010D621DC
:1008B000682000F0D5F91C48642137E0CAF0E8EE62
:1008C000CAEEEDF2F0EEEBEBE5F020ECE8F8E5ED4A
:1008D000E820CD3200000000C4E0F2F7E8EAE800CA
:1008E000D2310000D2320000D2330000D2340000F6
:1008F000D2350000D2360000D2370000D2380000D6
:10090000D220F3F1F23A0000D220E8E7EC3A0000FE
:10091000300000001C000020CED5CBC0C62E000049
:10092000690400083D040008D503000800221223D2
:10093000CDE90632CDE908101E20114625A200237C
:10094000CDE90232CDE904104DF2DA6001213F23F6
:100950000022CDE90010D621682000F081F94FF681
:10096000FF700022CDE900204FF48873DE22A12120
:1009700002909D2000F0ECFA4FF6FF700022CDE9C6
:100980000020F923F522B8210290862000F0E0FA39
:100990004FF6FF700022CDE90020AD23A922B82137
:1009A0000290862000F0D4FA0020022140F21F13AA
:1009B0000246CDE900104F2100F004FB0020022187
:1009C00040F23F130246CDE90010EF2100F0FAFAA1
:1009D0000BB000BDC2DBCACB0000000070B50546FD
:1009E0000C4654B94DF2DA61284600F06FFB002244
:1009F00007A1284600F0A4FB09E047F26951284608
:100A000000F064FB002204A1284600F099FB70BDB1
:100A1000CED5CBC0C62E0000CDC0C3D0C5C200000D
:100A200070B505460E4614463146204600F012FBCE
:100A300000223146284600F083FB70BD70B50025CA
:100A400000F0F0FA00F0DEFB35480078002865D0B1
:100A500000245DE03248418804EB840200F55270C6
:100A600030F8320081420ADB2D48418804EB8402D1
:100A700000F5527000EBC2004088814200DD45E085
:100A80002748818804EB840200F5527000EBC20015
:100A9000808881420ADB2248818804EB840200F5C9
:100AA000527000EBC200C088814200DD2EE004EBF2
:100AB00084011C4800EBC10090F8200008BB04EB47
:100AC0008402184901EBC201486A804704EB8401A3
:100AD000144800EBC100808B98B1012104EB840223
:100AE000104800EBC20080F8201004EB84010D4890
:100AF00000EBC100818B04EB84020A4800EBC200CA
:100B00004184012500200649087003E0601CC4B23E
:100B1000032C9FDB00BF012D00D170BD00BFFCE79F
:100B20001C00002064030020FEB504460D4604EBC3
:100B30008401194800EBC100458104EB840116488B
:100B400000EBC100818904EB8402134800EBC20072
:100B5000428904EB8403104800EBC300008904EBD6
:100B600084070D4E06EBC706CDE901210090F388FE
:100B700004EB8407084E06EBC706B28804EB840733
:100B8000054E06EBC706718804EB8407024E36F863
:100B9000370000F0DDF9FEBD640300202DE9FE43BF
:100BA00004460D461646002104EB84022B4800EB58
:100BB000C2004089CDE9001004EB840C274F07EBFD
:100BC000CC070291B7F804C004EB8408234F07EB6D
:100BD000C8073F8B6744BAB204EB840C1F4F37F849
:100BE0003CC004EB840807EBC807FF8A6744B8B22F
:100BF00004EB840C194F07EBCC07BF881837BBB246
:100C000004EB840C154F07EBCC07F98B00F0A0F92F
:100C100015B304EB8403114A02EBC302938804EB7F
:100C200084070E4A02EBC702128B991804EB840367
:100C30000A4A32F8333004EB840702EBC702D28A47
:100C4000981833462A4600F0FFFD014604EB840263
:100C5000024800EBC200C183BDE8FE8364030020AC
:100C60002DE9FE4F04460F4615469846DDF848B07C
:100C7000DDE90C9A0F9E5C48407A00EB80015B48EE
:100C800020F831405848407A00EB8001574800EB8B
:100C9000C10047805448407A00EB8001534800EB84
:100CA000C10085805048407A00EB80014F4800EB3E
:100CB000C100A0F806804C48407A00EB80014B4808
:100CC00000EBC100A0F808904748407A00EB800193
:100CD000464800EBC100A0F80AA04348407A00EB68
:100CE0008002424800EBC2000E9981813E48407A62
:100CF00000EB80013D4800EBC10006613A48407AB4
:100D000000EB8002394800EBC2001099818236481E
:100D1000407A00EB8002354800EBC2001199C18295
:100D20003148407A00EB8001304800EBC100A0F868
:100D300018B02D48407A00EB80022C4800EBC2002E
:100D4000139981762848407A00EB8002274800EB0F
:100D5000C2001499818300212348407A00EB80026D
:100D6000224800EBC20080F820101F48407A00EBB8
:100D700080021E4800EBC20041841B48407A00EB11
:100D800080021A4800EBC200159941620E98434652
:100D90002A463946CDE9009A0290204600F0D8F85C
:100DA0008EB105EB0B01119AA0183246109B00F092
:100DB0004BFD01460C48407A00EB80020B4800EBEB
:100DC000C200C18308E000210748407A00EB80029E
:100DD000064800EBC200C1830348407A401CC1B200
:100DE00001484172BDE8FE8F1C0000206403002012
:100DF0002DE9FE4F04460F4615469846DDF848B0EB
:100E0000DDE90C9A0F9E5148007A00EBC0014F4873
:100E10000C3020F821400C38007A00EBC0014B4820
:100E20000C3000EB810047804848007A00EBC0019D
:100E300046480C3000EB810085804448007A00EB86
:100E4000C00142480C3000EB8100A0F806803F480A
:100E5000007A00EBC0013D480C3000EB8100A0F8A7
:100E600008903A48007A00EBC00138480C3000EB9B
:100E70008100A0F80AA03548007A00EBC002334890
:100E80000C3000EB82000E9981813048007A00EB33
:100E9000C0012E480C3000EB810006612B48007A1F
:100EA00000EBC00229480C3000EB820010998182CF
:100EB0002648007A00EBC00224480C3000EB820088
:100EC0001199C1822148007A00EBC0011F480C3003
:100ED00000EB8100A0F818B01C48007A00EBC002BB
:100EE0001A480C3000EB82001399C1610E984346FA
:100EF0002A463946CDE9009A0290204600F028F8AB
:100F000096B105EB0B01119AA0183246109B00F028
:100F10009BFC01460D48007A00EBC0020B480C30E8
:100F200000EB8200018409E000210848007A00EB10
:100F3000C00206480C3000EB820001840348007AAE
:100F4000401C02490872BDE8FE8F00001C00002012
:100F50002DE9F84F06460F4690469946DDE90BA568
:100F60000A9C4B46424639463046CDF800A000F078
:100F700041FA002C24DD601E304481B24B464246CB
:100F80003046009500F036FA601EA9EB000082B2F0
:100F90004B4639463046009500F02CFA611E791A0E
:100FA00088B24B4642463946009500F023FA601E4F
:100FB000404483B2424639463046009500F01AFA62
:100FC000BDE8F88F2DE9F84306460F46904699464E
:100FD000DDE90845601E304481B24B46424630464A
:100FE000009500F007FA601EA9EB000082B24B46A4
:100FF00039463046009500F0FDF9611E791A88B235
:101000004B4642463946009500F0F4F9601E4044D4
:1010100083B2424639463046009500F0EBF9BDE810
:10102000F883000010B5FFF723F908490870084657
:10103000007850B10648FFF723F9054800880349B6
:101040004880034841880148818010BD1C00002071
:1010500012000020F0B50022002428B930230B70C4
:10106000491C00230B70F0BD002802DA2D230B7001
:10107000491C10E00A2390FBF3F503FB1503303302
:101080000B700A2390FBF3F313B1491C531CDAB223
:101090000A2390FBF3F00028ECD1891A002309E021
:1010A000CC5C8D18ED1A2D78CD548D18ED1A2C705E
:1010B0005D1CEBB202EBD276012707EB66069E427F
:1010C000EEDC00238D186B7000BFCCE7FEB5044644
:1010D0000D4604EBC401194800EB8100458104EB87
:1010E000C401164800EB8100818904EBC402134857
:1010F00000EB8200428904EBC403104800EB83003C
:10110000008904EBC4070D4E06EB8706CDE90121EB
:101110000090F38804EBC407084E06EB8706B288FC
:1011200004EBC407054E06EB8706718804EBC40781
:10113000024E36F82700FFF70BFFFEBD2800002007
:101140002DE9FE4304460D461646002104EBC40279
:101150002B4800EB82004089CDE9001004EBC40C61
:10116000274F07EB8C070291B7F804C004EBC408C3
:10117000234F07EB88073F8B6744BAB204EBC40CDC
:101180001F4F37F82CC004EBC40807EB8807FF8A11
:101190006744B8B204EBC40C194F07EB8C07BF8847
:1011A0001837BBB204EBC40C154F07EB8C07398C16
:1011B000FFF7CEFE15B304EBC403114A02EB830222
:1011C000938804EBC4070E4A02EB8702128B99182E
:1011D00004EBC4030A4A32F8233004EBC40702EBE1
:1011E0008702D28A981833462A4600F02DFB014622
:1011F00004EBC402024800EB82000184BDE8FE83D8
:101200002800002010B50249D1F8C003804710BD66
:101210001C0000200020034908720021014841728F
:10122000817270471C00002000B500F00DF800F03E
:101230009FF89F2003490860002048608020886054
:1012400000BD0000000005401948406820F0030080
:10125000174948600846806820F00F0088600846FB
:10126000806840F00A0088600846C06840F00300CB
:10127000C8600846006920F003000861084600695C
:1012800020F4403008610846406920F003004861BE
:101290000846406920F4403048610846806940F0C3
:1012A0000F0088610846C06900F00300C8617047FC
:1012B00000800B4070B50C4600BF2C49096901F055
:1012C00040010029F9D19021284DA96141006961AF
:1012D0001021A96100BF2549096901F00201002917
:1012E000F9D122494C611021204DA96100BF1F494D
:1012F000096901F002010029F9D190211B4DA96172
:10130000012101EB400169611021A96100BF17496A
:10131000096901F002010029F9D100BF0EE0202582
:10132000124EB56100BF114D2D6905F00205002D6B
:10133000F9D10E4DED685D544D1CE9B2551E8D423C
:10134000EDDC2821094DA96100BF0849096901F0B8
:1013500002010029F9D10549C968CDB2511E5D5479
:101360004021024DA9610021A96170BD0000054026
:1013700000200449086048608860C86008614861CE
:10138000886170470000054010B500BF184B1B690D
:1013900003F04003002BF9D19023154CA3614300C7
:1013A00063611023A36100BF114B1B6903F00203AB
:1013B000002BF9D10E4B596110230D4CA36100BFD6
:1013C0000B4B1B6903F00203002BF9D1084B5A6148
:1013D0001023074CA36100BF054B1B6903F00203F8
:1013E000002BF9D14023024CA3610023A36110BD5F
:1013F000000005402DE9FC5F06460F46144698465E
:10140000DDF83090019440F23F10A0EB080084B268
:1014100040F23F110198081A1FFA80F800254FF09A
:10142000000A0096A34600BF21E00BEB0500401C1C
:1014300083B20BEB050081B23A46009800F0ECFA5B
:101440002C2000F0B1FA4FF0000A0BE04FEA2920FF
:1014500000F0C6FA09F0FF0000F0C2FA0AF101003C
:101460001FFA80FAB81B5045F0DA681C85B2A8EB69
:101470000400A842D9DABDE8FC9F70B506460C46C8
:10148000154640F23F10001B84B2234632462146E7
:10149000304600F0C1FA2C2000F086FA281200F045
:1014A0009FFAE8B200F09CFA70BD2DE9F0410446C5
:1014B0002612E7B240F23F13EF220021084600F067
:1014C000ABFA2C2000F070FA002506E0B0B200F074
:1014D00087FAB8B200F084FA6D1CB5F5963FF5D3E3
:1014E000BDE8F08110B500F039F99948006840F086
:1014F0000800974908609748006840F080009549C7
:101500000860012000F050FA642000F059FCCB2064
:1015100000F04AFA392000F063FA2C2000F060FA5B
:10152000002000F05DFA342000F05AFA022000F0AA
:1015300057FACF2000F038FA002000F051FAC1200D
:1015400000F04EFA302000F04BFAE82000F02CFAC0
:10155000852000F045FA002000F042FA782000F0E3
:101560003FFAEA2000F020FA002000F039FA0020CB
:1015700000F036FAED2000F017FA642000F030FA9F
:10158000032000F02DFA122000F02AFA812000F04A
:1015900027FAF72000F008FA202000F021FAC020F6
:1015A00000F002FA232000F01BFAC12000F0FCF941
:1015B000102000F015FAC52000F0F6F93E2000F0EA
:1015C0000FFA282000F00CFAC72000F0EDF9862071
:1015D00000F006FA362000F0E7F9482000F000FAA3
:1015E0003A2000F0E1F9552000F0FAF9B12000F0BE
:1015F000DBF9002000F0F4F9182000F0F1F9B62032
:1016000000F0D2F9082000F0EBF9822000F0E8F9B0
:10161000272000F0E5F9F22000F0C6F9002000F0E4
:10162000DFF92A2000F0C0F9002000F0D9F90020ED
:1016300000F0D6F9002000F0D3F9EF2000F0D0F947
:101640002B2000F0B1F9002000F0CAF9002000F0D2
:10165000C7F9012000F0C4F93F2000F0C1F92620AD
:1016600000F0A2F9012000F0BBF9E02000F09CF9A5
:101670000F2000F0B5F9312000F0B2F92B2000F076
:10168000AFF90C2000F0ACF90E2000F0A9F9082009
:1016900000F0A6F94E2000F0A3F9F12000F0A0F927
:1016A000372000F09DF9072000F09AF9102000F093
:1016B00097F9032000F094F90E2000F091F9092029
:1016C00000F08EF9002000F08BF9E12000F06CF9B9
:1016D000002000F085F90E2000F082F9142000F0BF
:1016E0007FF9032000F07CF9112000F079F9072040
:1016F00000F076F9312000F073F9C12000F070F9A4
:10170000482000F06DF9082000F06AF90F2000F081
:1017100067F90C2000F064F9312000F061F93620FF
:1017200000F05EF90F2000F05BF9112000F03CF9A9
:10173000642000F045FB292000F036F92C2000F051
:1017400033F90548006840F080000349086010BD87
:1017500000000C4000800C4000800A4015484068A2
:1017600040F0C000134948600846C06840F0C0001F
:10177000C8600846806820F4704088600846806928
:1017800040F4704088610C48406840F080000A498D
:1017900048600846C06840F08000C860084680681D
:1017A00020F4404088600846806940F440408861E9
:1017B0007047000000800A4000800C402DE9F05F77
:1017C00005468A4614469B46DDE90B674FF0000943
:1017D00030E04FF0000820E0E01B00EB400006EB9B
:1017E0004000808800EB09010A98415C012000FA62
:1017F00008F0014069B1E21B02EB420206EB420233
:1018000052885244A2EB080291B2A8B25A46FFF79E
:1018100034FE08F1010000F0FF08E01B00EB40007F
:1018200006EB400040884045D6DC6D1C09F1010004
:1018300000F0FF09E01B00EB400036F810004845BF
:10184000C7DCA8B2BDE8F09F2DE9FE4F05468846EB
:1018500016469A46002498E016F8014B202C00D139
:10186000AD1D2E2C0EDB3B2C0CDC2E204A494B4AA6
:101870005346CDE900210290224641462846FFF713
:101880009DFF0546C02C7CDB002773E04FF000096C
:101890001AE0A4F1C000424901EB800040883844BE
:1018A0004049085C012101FA09F1084040B108F102
:1018B0001802A2EB090291B2A8B25246FFF7DDFD71
:1018C00009F1010000F0FF09B9F1080FE1DB4FF069
:1018D000000920E0A4F1C000314901EB80004088FC
:1018E000C119A4F1C0002E4A32F8200008442D4945
:1018F000085C012101FA09F1084040B108F1100229
:10190000A2EB090291B2A8B25246FFF7B6FD09F167
:10191000010000F0FF09B9F1080FDBDB4FF000090F
:1019200022E0A4F1C0001E4901EB80004088C119EB
:10193000A4F1C0001A4A32F82000022202FB001073
:101940001849085C012101FA09F1084040B108F189
:101950000802A2EB090291B2A8B25246FFF78DFD30
:1019600009F1010000F0FF09B9F1080FD9DB6D1C86
:10197000781CC7B2A4F1C000094931F82000B84270
:1019800084DC16B1202C00D06D1C307800287FF448
:1019900063AFA8B2BDE8FE8F841F00081E1E0008BA
:1019A0004A240008E320000810B504460A480068ED
:1019B00020F04000084908600848006820F008004E
:1019C00006490860204600F0CFF80448006840F05F
:1019D00008000249086010BD00800A4000000C4069
:1019E00010B504460A48006840F040000849086005
:1019F0000848006820F0080006490860204600F00A
:101A0000B3F80448006840F008000249086010BDBF
:101A100000800A4000000C402DE9F04104460D46CC
:101A200016461F462A20FFF7BFFF2012FFF7D8FFF8
:101A3000E0B2FFF7D5FF3012FFF7D2FFF0B2FFF7A9
:101A4000CFFF2B20FFF7B0FF2812FFF7C9FFE8B246
:101A5000FFF7C6FF3812FFF7C3FFF8B2FFF7C0FF6A
:101A6000BDE8F08110B500BF1948C06B00F400005C
:101A70000028F9D01748C0681649C8600846806831
:101A800040F00100886000BF1248006800F00400C8
:101A90000028F9D00F48C06840F002000D49C86026
:101AA0000846406840F2047108430A49486000BF94
:101AB0000848006800F002000028F9D00548C06816
:101AC00040F482700349C86000F062F810BD000065
:101AD00000800D400000024000B500F013F80748F8
:101AE000C06A40F000700549C86200F033F8072072
:101AF0000349086002204860086100BD0000024000
:101B000000000A401248406820F004001049486074
:101B10000846406840F0680048600846C06840F0E9
:101B20006C00C8600846806843F6F0418843084965
:101B300088600846806842F62001084304498860AE
:101B40000846806943F6F0410843014988617047BF
:101B500000000C40002003490860486008614861AB
:101B60004862704700000A400849886000BF074982
:101B7000C96801F010010029F9D100BF0349C96803
:101B800001F001010029F9D07047000000000A406F
:101B900030B5204CE46804F00204022C01D11E4848
:101BA00000E01D481B4CE46804F0010404B1400847
:101BB0000146184CE46804F00404042C05D1154CCB
:101BC0006468C4F30324631C5943124CE468C4F3EF
:101BD000012424B1012C06D0022C13D10DE00E4CAF
:101BE0000E4D2C6013E00B4CE468C4F30314641C2A
:101BF000B1FBF4F2094C226009E04FF40044074DB8
:101C00002C6004E049F64044044D2C6000BF00BF46
:101C100030BD00000000024000127A0018000020D1
:101C200000B50D480D49C8610846C0680020C8606D
:101C300008464068002048600846806800208860A8
:101C40000846006900200861084640690020486194
:101C5000FFF79EFF00BD00001000000800000240DA
:101C600010B5002020E000EB8002144901EBC20116
:101C7000498C00290EDD00EB8002104901EBC20106
:101C8000498C491E8AB200EB80030C4901EBC30169
:101C90004A8407E0002200EB8003084901EBC301FE
:101CA00081F82020411CC8B20328DCDB0020044955
:101CB000086048650E2000F067F810BD640300203E
:101CC0000000074010B50B48406A0B49084309491A
:101CD000486201200949C86049F63F404860012038
:101CE000886000200860022088650E2000F05AF805
:101CF00062B610BD00000240010000010000074074
:101D000010B50120044908700020044908604865A6
:101D10000F2000F039F810BD1000002000800740AF
:101D200010B50848006820B106480068401E054903
:101D300008600020044908604865102000F024F87D
:101D400010BD00000C0000200000084010B50B483A
:101D5000406A0B4908430949486200200949C860A4
:101D600027204860012088600020086002208865E4
:101D7000102000F017F862B610BD0000000002400D
:101D80000000010400000840002807DB00F01F02EB
:101D900001219140024A430942F823107047000094
:101DA00080E200E0002809DB00F01F0201219140E1
:101DB0004209920002F1E022C2F8001170470000CF
:101DC0000121074AD1604FF47A714143054A1160FD
:101DD00000BF044909680029FBD1014AD16070475E
:101DE000000008400C000020FEF715FAFFF7AEFFD8
:101DF000FFF772FEFFF718FAFFF774FBFEF768FAB9
:101E00004BF6D750FFF751FBFFF75CFFFEF742FBA5
:101E100004E0FEF72DFA08B9FEF710FEF9E70F0F00
:101E20000F06F0FCFE1F070707071FFEFCF01F7FD1
:101E3000FFF0C0C0C0C0F0FF7F1F00000001010123
:101E4000010101000000181C0E06FFFFFF0000004A
:101E5000C0C0C0C0FFFFFFC0C0C00101010101013F
:101E6000010101010E0E070707078FFFFE7C00C06E
:101E7000E0F0F8DCCFC7C3C0C0C00101010101011F
:101E800001010101010E0E87878787CFFFFE3C000D
:101E9000E0E0C3C3C3C3C3E7FF7E3C000001010110
:101EA0000101010000000080C0F0F83C1F0FFFFF9F
:101EB000FF00001E1F1F1D1C1C1C1CFFFFFF1C1C05
:101EC0000000000000000000010101000000FFFF11
:101ED000FFC7C7C7C7878700E0E1C1C1C1C1C1E370
:101EE000FF7F3F0000010101010100000000E0F858
:101EF000FC9ECFC7C7C7C7C78E001F7FFFE3C1C106
:101F0000C1C1E3FF7F3F00000001010101010100A9
:101F10000000070707070707C7F7FFFF3F0F00008D
:101F200080E0F8FF7F1F07000000000001010101B1
:101F30000000000000003C7EFECFC78787C7CFFFB0
:101F40007E3C78FCFEE7C3C3C3C3E7FFFE7C000012
:101F500000010101010101000000F8FCFE8F0707EC
:101F600007078FFEFCF001E3C3C7C7C7C7E7F37FCE
:101F70003F0F0000010101010101000000000F0FEF
:101F80000F1E1E1E040004000000000000000000E0
:101F90000C00110004000A00110028000B001100C1
:101FA00046000B00110067000D00110088000B00B7
:101FB0001100AF000C001100D0000C001100F40063
:101FC0000C00110018010C0011003C0103000D0071
:101FD0006001000018180000F8FE0701010103FE6F
:101FE000F8030F181010101C0F0300000000000071
:101FF0000000000C0602FFFF0000001010101F1F61
:10200000101010000000000000000002010101C3D8
:10201000FE3E00181C1613111010100000000000E6
:102020000000000241414163BF9E000810101010E3
:10203000180F07000000000000000000C060380E0C
:1020400003FFFF00000303020202021F1F0202003F
:10205000000000000000000000003F3F212161C19E
:10206000800810101010180F07000000000000007A
:1020700000F8FC4623212161C180070F18101010C1
:10208000180F07000000000000000000010101011E
:1020900081F13D0F030000181E0701000000000041
:1020A000000000000000001CBEB3E141E1F39E0E01
:1020B0000F0F18101010190F07000000000000008B
:1020C00000003C7EC381818143FEF8101010101087
:1020D000180C07010000000000000000001818188C
:1020E000180000000080F03E07073EF0C00000101E
:1020F0001C0F0302020202030F1E1000000000006A
:1021000000000000000000FFFF41414163FE9C0011
:102110001F1F10101010180F070000000000000013
:102120000000FFFF01010101011F1F00000000006E
:1021300000000000000000000000F8FF0F01010196
:10214000FFFF0000F0181E1F11101010101F1F10AD
:10215000F001000000000000000000000001FFFF8F
:1021600041414141011F1F101010101000000000DC
:10217000000000030FBCA0404040FFFF404040A0D3
:10218000BC0F03181E07000000001F1F0000000105
:10219000071E180000000000000000000000000002
:1021A000000000FFFF404040B0BC0F031F1F0000B5
:1021B0000001071E180000000000000000000000E1
:1021C00000E0FF1F010101FFFF10101C0F010000C4
:1021D00000001F1F0000000000000000000000FFC2
:1021E000FF404040404040FFFF1F1F000000000034
:1021F000001F1F00000000000000000000F0FC06AF
:1022000003010101010306FCF803070C181010106C
:1022100010180C0701000000000000000000000082
:1022200000FFFF818181C37E3C1F1F000000000072
:1022300000000000000000000001010101FFFF019B
:10224000010101000000001F1F000000000000004D
:102250000000000000000003071CF8E0F81C070362
:10226000181E07010001071E1800000000000000F2
:102270000000FFFF40404040C0800000FFFF1F1FE4
:1022800010101010180F07001F1F000000000000A2
:10229000000000000000100808080818F8F00E1EE2
:1022A000131111091F1F0000000000000000E0F0E2
:1022B00098888898F0E0070F181010101008000098
:1022C00000000000000010888888C8F8700810100E
:1022D00010190F0F00000000000000F8F80000C007
:1022E00070F8F81F1F0E0300001F1F000000000001
:1022F000000000F8F8000080E078181F1F010103BB
:102300000E1C10000000000000000000000080789B
:102310000808F8F810100C070000001F1F0000004C
:10232000000000000000F8F878E0000000E078F815
:10233000F81F1F00031F180F03001F1F00000000DD
:1023400000000000000000F8F800000000F8F81F8E
:102350001F010101011F1F0000000000000000E03C
:10236000F01808080818F0E0070F18101010180FE0
:1023700007000000000000000000F8F8100808182E
:10238000F0E0FFFF081010180F0701010000000027
:102390000000E0F01808080810070F1810101008C7
:1023A00000000000000000080808F8F8080808000D
:1023B00000001F1F000000000000000000000008D7
:1023C00078F0800000C0F818000001CFFC3E070044
:1023D00000000000010100000000F8F8000000000B
:1023E000F8F80001010101011F1F000000000000BA
:1023F0000000F8F8000000F8F8000000F8F81F1FCF
:102400001010101F1F1010101F1F000000000000F0
:1024100000000000000002000000000000000900B1
:1024200006000800210008003900080051000A00D9
:1024300069000800870009009F000900BA00090030
:10244000D5000900F00002000B010C0000000000A4
:1024500000000900240007003F000D0054000700A1
:102460007B00100090000000000000000000000051
:1024700000000900C0000B00DB00000000000A00A3
:10248000FC000C001A010000000008003E010000E2
:1024900000000A00560100000000000000000900D2
:1024A00074010000000000000000000000000000B7
:1024B0000000000000000C008F0100000000000080
:1024C000000000000000000000000800B301000050
:1024D00000000000000000000000000000000800F4
:1024E000CB01000000000700E3010800F801000034
:1024F000000008001002090028020B004302080037
:10250000640209007C020000000008009702070036
:10251000AF020800C4020900DC0200000000000055
:102520000000000000000800F7020C000F0300008C
:1025300050250008000000201C000000FC000008DE
:102540006C2500081C000020240A00001801000867
:10255000000000000000000000000000000000007B
:0C256000000000000000000000127A00E3
:040000050800015D91
:00000001FF
